:020000040800F2
:1000000000000120C5020008CB020008CF02000852
:1000100041030008450300088D03000800000000AC
:10002000000000000000000000000000D5030008F0
:10003000D903000800000000DD030008ED060008F9
:10004000F1030008F1030008F1030008F1030008C0
:10005000F1030008F1030008550A0008750A0008BA
:10006000950A0008B50A0008D50A0008F10300083F
:10007000F1030008F1030008F1030008F103000890
:10008000F1030008F1030008F1030008000000007C
:10009000000000000000000000000000F50A000859
:1000A000F1030008F1030008F1030008F103000860
:1000B000F1030008F1030008F1030008F103000850
:1000C000F1030008F1030008F1030008F103000840
:1000D000F1030008F1030008F1030008000000002C
:1000E000350B0008F1030008F103000800000000D0
:1000F000000000000000000000000000F103000804
:1001000000000000F1030008F1030008F1030008FB
:1001100000000000000000000000000000000000DF
:10012000F1030008F1030008F1030008F1030008DF
:10013000F1030008000000000000000000000000C3
:10014000000000000000000000000000F1030008B3
:10015000F1030008F1030008F1030008F1030008AF
:10016000F1030008F1030008000000000000000097
:10017000000000000000000000000000000000007F
:1001800000000000F1030008000000000000000073
:10019000F103000800B583B000F0BAF9384B394AD2
:1001A0001360394A1360394900E02146384B9942BF
:1001B0000BD20A684B6801F10C0488689842F4D9A4
:1001C0001168196004330432F8E72E4B1A68314B7A
:1001D0009A4200D0FEE72C4B1A682F4B9A42F9D175
:1001E000274B2E4A13602E4A13602E4B05E0002049
:1001F000106004329342FAD80B462B4A934204D241
:10020000194651F8082B5B68F4E7244B1B6813B9B7
:10021000234B1B6803B1FEE700F02FFD694601A8E0
:1002200000F022F9214C224BE41AA4100025AC4224
:1002300014DC204C204BE41AA4100025AC4213DC43
:100240000099019800F01AFD05461C4C1C4BE41A5D
:10025000A410002C0EDC284600F0E2F8144B53F8F2
:10026000253098470135E2E7134B53F8253098477E
:100270000135E3E7013C124B53F824309847E8E797
:10028000BABADECA0000002070000020F4030008A3
:100290000C0400087856341232547698740000200A
:1002A000580100200C0400081C0400081C0400086D
:1002B0001C0400081C0400081C0400081C0400089E
:1002C0001C04000808B5FFF765FF00BEFEE71EF03E
:1002D000040F0CBFEFF30880EFF309807146414A29
:1002E00010472DE9F04182B004468846124B5E6B00
:1002F0009F6B9D6A1B6B13F0020F03D00E4BDB6AE2
:10030000002B0CDB0D4800F0B7F8CDF800803B4621
:1003100032462946204600F007F900BEFEE74BF6BC
:10032000AB6100F07BF90028ECD0034B4FF00042AA
:10033000DA6202B0BDE8F08100ED00E0E4160008EA
:1003400000BEFEE71EF0040F0CBFEFF30880EFF3D2
:1003500009807146244A10472DE9F04182B00446D5
:100360008846084B5E6B9F6B9D6A074800F084F8D7
:10037000CDF800803B4632462946204600F0D4F8AE
:1003800000BEFEE700ED00E0F41600081EF0040FCA
:100390000CBFEFF30880EFF309807146134A104752
:1003A0002DE9F04182B004468846084B5E6B9F6B96
:1003B0009D6A074800F060F8CDF800803B46324661
:1003C0002946204600F0B0F800BEFEE700ED00E050
:1003D0000017000800BEFEE700BEFEE700BEFEE715
:1003E00070470000E302000859030008A103000859
:0403F00000BEFEE766
:1003F40044570108000000207400002044570108FD
:100404000000001000000010740000205C010020B7
:080414000000001000000010C0
:10042000FEE7000008B503460C4A12685AB10B4AB1
:100430001068033323F003030344094A934206D8A8
:10044000064A136008BD054A06491160EFE700F04F
:1004500041FC0C2303604FF0FF30F3E778000020ED
:1004600000FC00205C01002001230360014B0B60B5
:10047000704700BF040000200FB400B583B004AB88
:1004800053F8042B01938021064800F055FC002806
:1004900003DD0146034800F037F803B05DF804EBD4
:1004A00004B07047800000202DE9F04385B0044679
:1004B0000F4643560BB10E461EE004252846214642
:1004C000ABBE0446384605B0BDE8F08314F9011B05
:1004D00004AA1A4402F8101C0133AB42F6D304AA52
:1004E0001344002203F8102C4FF00408E94640465C
:1004F0004946ABBE8046761B002EE3D03546102E13
:1005000028BF10250023E8E708B5FFF7CDFF08BD99
:1005100008B500F093F8024A024B9A6008BD00BF8C
:100520000000000800ED00E0F8B504460D4617464F
:100530001E462748FFF7A0FF21682648FFF79CFFCB
:1005400061682548FFF798FFA1682448FFF794FFEA
:10055000E1682348FFF790FF21692248FFF78CFFED
:1005600061692148FFF788FFA1692048FFF784FFF0
:10057000E1691F48FFF780FF1E48FFF77DFF29460E
:100580001D48FFF779FF1D4CE16A1D48FFF774FF16
:10059000216B1C48FFF770FFE16B1B48FFF76CFFF6
:1005A00015F0800F0AD115F4004F0CD11748FFF752
:1005B00063FF06991648FFF75FFFF8BD39461548F7
:1005C000FFF75AFFEFE731461348FFF755FFEDE716
:1005D000C8150008D8150008E8150008F815000827
:1005E0000816000818160008281600083816000813
:1005F00048160008581600086416000800ED00E0D0
:10060000741600088416000894160008C416000822
:10061000CC160008A4160008B416000883691A88CE
:100620008A4201D0002070470268033A012A03D8A9
:100630000233836101207047002070470C4B1A6819
:1006400042F001021A60002199601A6822F0847257
:1006500022F480321A60074A5A601A6822F4802213
:100660001A60D960044B4FF000629A60704700BF77
:10067000003802401030002400ED00E0064B1A68FC
:1006800022F004021A60054A054911601A6842F016
:1006900002021A60704700BF10E000E05401002021
:1006A00008AF2F00024A136843F00103136070473C
:1006B00010E000E0024A136823F001031360704762
:1006C00010E000E008B500EB4000074B5860002246
:1006D0009A60FFF7E7FF044B1B6813F4803FFAD0E2
:1006E000FFF7E8FF08BD00BF10E000E008B5084BC9
:1006F0001B6803B19847074B1B783BB1054B0022A1
:100700001A70054A136823F00103136008BD00BF87
:10071000000100200401002010E000E008B50222E2
:100720000421002000F08AF802220521002000F0B8
:1007300085F802220621002000F080F8022207211D
:10074000002000F07BF801220021084600F076F836
:10075000074A136A9BB21362136A43F0AA4343F435
:10076000AA031362034B40F247321A6008BD00BF70
:10077000000002400030014010B50446002211463E
:10078000104600F02BF9054BDC60044B9B6813F01E
:10079000800FFAD1014BD86880B210BD0030014003
:1007A0000E4B1A6842F400221A601A6822F4802262
:1007B0001A609A6842F001029A609A6822F0020276
:1007C0009A601A6822F001021A601A6842F48032B4
:1007D0001A601A6822F080721A607047003802406E
:1007E000042827D81F2925D80138032822D8DFE874
:1007F00000F0020A121A1048036C012202FA01F1F9
:100800001943016470470C48436C012202FA01F15C
:100810001943416470470848036B012202FA01F151
:100820001943016370470448436B012202FA01F146
:1008300019434163704700BF0038024010B44900BB
:10084000C9B2032A08D8DFE802F00236659401280D
:1008500013D018B102281FD010BC70475C4B186829
:10086000012202FA01F420EA040018601868114419
:100870008A4020EA02021A60EEE7564B186801220D
:1008800002FA01F420EA04001860186811448A4052
:1008900020EA02021A60DFE74F4B1868012202FAD1
:1008A00001F420EA04001860186811448A4020EA24
:1008B00002021A60D0E701281ED078B10228CBD1FD
:1008C000454B1868012202FA01F4204318601868A9
:1008D00011448A4020EA02021A60BDE73C4B1868C6
:1008E000012202FA01F420431860186811448A407A
:1008F00020EA02021A60AFE7364B1868012202FABA
:1009000001F420431860186811448A4020EA02026A
:100910001A60A1E701281ED078B102289CD12E4B85
:100920001868012202FA01F420EA0400186018682D
:1009300011448A4002431A608EE7254B1868012251
:1009400002FA01F420EA04001860186811448A4091
:1009500002431A6080E71F4B1868012202FA01F473
:1009600020EA04001860186811448A4002431A60A3
:1009700072E701281ED080B102287FF46DAF164BBC
:100980001868012202FA01F4204318601868114423
:1009900002FA01F1014319605EE70D4B186801226C
:1009A00002FA01F420431860186811448A40024397
:1009B0001A6051E7074B1868012202FA01F420433C
:1009C0001860186811448A4002431A6044E700BF67
:1009D000000002400004024000080240CAB1012A9F
:1009E00031D1012809D010B102280CD07047012361
:1009F00003FA01F1144B99617047012303FA01F1E5
:100A0000124B99617047012303FA01F1104B996170
:100A1000704701280AD010B102280ED0704710315B
:100A2000012303FA01F1084B99617047103101234A
:100A300003FA01F1054B996170471031012303FA64
:100A400001F1034B9961704700000240000402402D
:100A50000008024008B5054B1B682BB19847044AB3
:100A6000536943F00103536108BD00BF0801002032
:100A7000003C014008B5054B5B682BB19847044A20
:100A8000536943F00203536108BD00BF0801002011
:100A9000003C014008B5054B9B682BB19847044AC0
:100AA000536943F00403536108BD00BF08010020EF
:100AB000003C014008B5054BDB682BB19847044A60
:100AC000536943F00803536108BD00BF08010020CB
:100AD000003C014008B5054B1B692BB19847044AFF
:100AE000536943F01003536108BD00BF08010020A3
:100AF000003C014038B5052401E00134E4B2092C82
:100B000012D80A4B53F82420002AF6D0084B5B6910
:100B1000E34013F0010FF0D0904705494B690122E3
:100B2000A24013434B61E8E738BD00BF0801002035
:100B3000003C014038B50A2401E00134E4B20F2C36
:100B400012D80A4B53F82420002AF6D0084B5B69D0
:100B5000E34013F0010FF0D0904705494B690122A3
:100B6000A24013434B61E8E738BD00BF08010020F5
:100B7000003C014010B50446012202210020FFF78D
:100B80002DFF2046FFF7F8FD10BD10B504460022EA
:100B900002211046FFF722FF2046FFF7EDFD10BDB2
:100BA00008B5012211460020FFF718FF6420FFF767
:100BB00089FD002201211046FFF710FF0A20FFF7F0
:100BC00081FD012211460020FFF708FF6420FFF796
:100BD00079FD002201211046FFF700FF6420FFF796
:100BE00071FD012211460020FFF7F8FE0948FFF7CA
:100BF00069FD1120FFF7C9FF0748FFF763FD3A20A1
:100C0000FFF7C3FF0520FFF7B5FF2920FFF7BDFF62
:100C100008BD00BFC0D40100F049020038B5054648
:100C20002A20FFF7B2FF0020FFF7A4FF0020FFF704
:100C3000A1FF0020FFF79EFF7F20FFF79BFF2B20E7
:100C4000FFF7A3FF0020FFF795FF0020FFF792FFBB
:100C50000020FFF78FFF9F20FFF78CFF2C20FFF76E
:100C600094FF002405E015F81400FFF783FF01341A
:100C7000A4B2B4F5A04FF6D338BD704708B5FFF75E
:100C80008FFDFFF7FBFC00210320FFF7A9FD0C21DE
:100C90000220FFF7A5FD012205210020FFF7CEFD70
:100CA000012207210020FFF7C9FD012202210020B7
:100CB000FFF7C4FD012211460020FFF7BFFDFFF73B
:100CC0002DFDFFF76DFF0248FFF7A8FF002008BDCC
:100CD00010170008014B1868704700BF0C00002077
:100CE00030B5141E05469BB0184605DA8B232B60E1
:100CF0004FF0FF301BB030BD4FF40273ADF80C3035
:100D000014BF04F1FF332346029305934FF6FF739C
:100D100000910491ADF80E3002461E9B69462846AC
:100D200000F072F8431CBCBF8B232B60002CE1D079
:100D3000009B00221A70DDE707B5009313460A46B0
:100D4000014603480068FFF7CBFF03B05DF804FBE2
:100D50000C0000202DE9F0478E689E4282460C462A
:100D60009046994637D88A8912F4906F31D0256819
:100D700009696F1A6569022305EB450595FBF3F5D3
:100D800009F101033B449D4238BF1D46530530D550
:100D9000294600F07FFB064650B90C23CAF8003004
:100DA000A38943F04003A3814FF0FF30BDE8F087F3
:100DB0003A46216900F0FCFAA38923F4906343F0DA
:100DC0008003A381266165613E44ED1B2660A5601A
:100DD0004E464E4500D94E4632464146206800F008
:100DE000F2FAA3689B1BA36023681E4426600020C0
:100DF000DCE72A4600F0A8FB06460028E2D121697C
:100E0000504600F0F9FAC8E72DE9F04F9DB0804652
:100E100003938B891D060C4616460FD50B696BB9DB
:100E2000402100F037FB2060206128B90C23C8F86E
:100E300000304FF0FF30C7E0402363610023099387
:100E400020238DF8293030238DF82A304FF0010B04
:100E500037463D4615F8013B0BB1252B3ED1B7EB8C
:100E6000060A0BD05346324621464046FFF772FF32
:100E7000013000F0A480099B534409933B78002B78
:100E800000F09D8000234FF0FF32CDE9052304934D
:100E900007938DF853301A932F46052217F8011B3C
:100EA0004F4800F035FA049BD0B9D90644BF202240
:100EB0008DF853201A0744BF2B228DF853202A782F
:100EC0002A2A15D0079A2F4600200A25394611F8FC
:100ED000013B303B092B4DD9B8B10FE02F46B8E7A5
:100EE0003F4A801A0BFA00F0184304903D46D3E7BE
:100EF000039A111D12680391002A01DB079204E096
:100F0000524243F00203079204933B782E2B0CD1FC
:100F10007B782A2B33D1039B1A1D1B680392002B6D
:100F2000B8BF4FF0FF33023705932E4D39780322B7
:100F3000284600F0EDF938B14023401B03FA00F0D9
:100F4000049B034301370493397827488DF8281010
:100F500006227E1C00F0DCF9002838D0234B13BB9E
:100F6000039B073323F0070308330393099B4B4488
:100F700009936DE705FB023201200F46A6E7002327
:100F80000137059319460A25384610F8012B303AE7
:100F9000092A03D9002BC8D00591C6E705FB01211A
:100FA00001230746F0E703AB00932246104B04A948
:100FB0004046AFF30080B0F1FF3F8146D6D1A38910
:100FC0005B063FF536AF09981DB0BDE8F08F03AB67
:100FD00000932246064B04A9404600F081F8EAE758
:100FE00010570108165701081A57010800000000A1
:100FF000550D00082DE9F04791461F468A680B6998
:10100000DDF820809342B8BF1346C9F8003091F84C
:10101000432006460C4612B10133C9F8003023685C
:10102000990642BFD9F800300233C9F8003025686C
:1010300015F0060507D104F1190AE368D9F8002074
:101040009B1AAB4228DC94F843302268003318BF67
:10105000012392062DD404F1430239463046C0479D
:10106000013020D02368E568D9F8002003F006039A
:10107000042B08BFAD1AA36822690CBF25EAE575E9
:1010800000259342C4BF9B1AED184FF000091A3493
:101090004D451AD1002008E001235246394630461A
:1010A000C047013003D14FF0FF30BDE8F087013574
:1010B000C3E7E1185A1C302081F84300224494F819
:1010C000451082F843100233C5E701232246394612
:1010D0003046C0470130E6D009F10109D8E70000E9
:1010E0002DE9F04301F1430C0C46097E85B06E29D1
:1010F0001746064698460C9A00F0B38022D863291A
:1011000036D00AD8002900F0B980582900F0838031
:1011100004F1420584F8421032E0642901D06929C3
:10112000F6D120681368050603F104012AD51B686F
:101130001160002B03DA2D225B4284F843206F48B4
:101140000A2239E0732900F09D8008D86F2920D049
:101150007029DDD1236843F02003236003E0752963
:1011600017D07829D4D1782384F84530644855E0E5
:101170001368191D1B68116004F1420584F84230A0
:1011800001238CE01B68116010F0400F18BF1BB2E8
:10119000CFE713682568181D1060280601D51B6865
:1011A00002E06806FBD51B8854486F2914BF0A2249
:1011B0000822002184F843106568A560002DC0F264
:1011C0009580216821F004012160002B3DD1002D84
:1011D00040F08E806546082A0BD12368DB0708D5CE
:1011E000236962689A42DEBF302305F8013C05F1AD
:1011F000FF35ACEB05032361CDF800803B4603AA25
:1012000021463046FFF7F6FE01304DD14FF0FF305A
:1012100005B0BDE8F083394884F8451013682168AB
:101220001D1D1B6815600A060BD5CA0744BF41F097
:10123000200121601BB9226822F0200222601022C6
:10124000B7E74D0648BF9BB2EFE76546B3FBF2F147
:1012500002FB1133C35C05F8013D0B460029F5D1B3
:10126000B9E7136825686169181D106028061B68B6
:1012700001D5196002E06A06FBD5198000232361BD
:101280006546B9E71368191D11601D686268002181
:10129000284600F03DF808B1401B60606368236198
:1012A000002384F84330A7E723692A4639463046AD
:1012B000C0470130AAD023689B0713D4E068039B82
:1012C0009842B8BF1846A3E701234A46394630463C
:1012D000C04701309AD00135E368039A9B1AAB42AC
:1012E000F2DCEBE7002504F11909F5E7002BACD19E
:1012F000037884F8423004F142056CE72157010875
:10130000325701080000000000000000000000004B
:1013100001F0FF01102A2BDB10F0070F08D010F8A6
:10132000013B013A8B422DD010F0070F42B3F6D1AA
:10133000F0B441EA012141EA014122F007047FF0C3
:1013400000070023F0E80256083C85EA010586EA1A
:10135000010685FA47F5A3FA87F586FA47F6A5FA56
:1013600087F68EB9EED1F0BC01F0FF0102F0070262
:1013700032B110F8013B013A83EA010313B1F8D10D
:101380000020704701387047002D06BF35460338EE
:10139000073815F0010F07D1013015F4807F02BF27
:1013A000013015F4C03F0130F0BC0138704700BF78
:1013B00010B5431E0A44914200D110BD11F8014BF3
:1013C00003F8014FF7E7884210B501EB020307D895
:1013D000421E99420AD011F8014B02F8014FF8E77A
:1013E0008342F5D98118D21AD34200D110BD13F827
:1013F000014D01F8014DF7E738B50546002945D004
:1014000051F8043C0C1F002BB8BFE41800F0D2F8D0
:101410001F4A1368104633B9636014602846BDE85C
:10142000384000F0C8B8A3420CD921686218934232
:1014300004BF1A685B68636004BF521822600460CE
:10144000ECE713465A680AB1A242FAD9196858184B
:10145000A0420BD120680144581882421960DDD1A6
:10146000106852685A6001441960D7E702D90C230A
:101470002B60D3E7206821188A4204BF11685268A4
:10148000626004BF091821605C60C7E738BD00BF17
:101490004801002070B5CD1C25F0030508350C2D42
:1014A00038BF0C25002D064601DBA94203D90C23C9
:1014B0003360002070BD00F07DF8214A1468214699
:1014C00091B9204C23681BB9304600F063F82060C6
:1014D0002946304600F05EF8431C24D10C233360CB
:1014E000304600F068F8E4E70B685B1B18D40B2B60
:1014F0000FD90B60CD50CC18304600F05CF804F1E9
:101500000B00231D20F00700C31AD3D05A42E2502B
:10151000D0E78C424B6816BF636013600C46EBE764
:101520000C464968CCE7C41C24F00304A04205D053
:10153000211A304600F02EF80130CFD02560DBE7CD
:10154000480100204C010020F8B5074614460E461D
:1015500021B91146BDE8F840FFF79CBF22B9FFF75B
:101560004BFF25462846F8BD00F026F8A0420FD2D2
:1015700021463846FFF78EFF05460028F2D0314657
:101580002246FFF715FF31463846FFF735FFE9E7FA
:101590003546E7E738B5064C002305460846236084
:1015A000FEF740FF431C02D1236803B12B6038BD16
:1015B000500100207047704751F8043C181F002B61
:1015C000BCBF0B58C0187047537461636B206672C0
:1015D000616D653A0A000000205230203D20202530
:1015E0003038580A00000000205231203D202025CC
:1015F0003038580A00000000205232203D202025BB
:101600003038580A00000000205233203D202025A9
:101610003038580A0000000020523132203D202589
:101620003038580A00000000204C52203D20202570
:101630003038580A00000000205043203D2020256B
:101640003038580A0000000020505352203D202519
:101650003038580A000000004653522F4641523A93
:101660000A0000002043465352203D2020253038F8
:10167000580A00002048465352203D20202530388B
:10168000580A00002044465352203D20202530387F
:10169000580A00002041465352203D202025303872
:1016A000580A0000204D4D464152203D202530383B
:1016B000580A00002042464152203D202025303863
:1016C000580A00004D6973630A000000204C522F35
:1016D0004558435F52455455524E3D2025303858A9
:1016E0000A0000005B486172644661756C745D0AB3
:1016F000000000005B4275734661756C745D0A0002
:101700005B55736167654661756C745D0A00000026
:101710000100470001002700090027000800E7003A
:101720001000C70019000800190008001900270060
:1017300011002700220009007400D4006400B400E6
:101740006400B5006400D6005C00B6005C00970041
:1017500074007500740074006C0094006C00B50097
:101760006C00D5006400F6006D00160065003600C0
:101770006D00580075007800750099007D00B90073
:101780008500DA0086001A008E007B009600BC00FF
:10179000BE007900C600DB00D7003D00E7009E00D8
:1017A000E700BF00E700BF00E700BF00E700BF00A1
:1017B000E7009F00DF001D00D600DC00DE00FC001B
:1017C000D600FC00D600BB00DF001C00EF009E002E
:1017D000FF009D00FF007C00FF007D00FF009E00D9
:1017E000FF007E00F7007F00F700BF00EF00DF0082
:1017F000EF00DF00EF007E00E7005E00E7003E0044
:10180000CE00DD00C600FE00BF003F00AF003F007D
:10181000C600FD00C600FD00C600FD00CF001E0092
:10182000D7005E00DF007F00E700BF00EF00DF00B1
:10183000EF00BF00E700BF00E7009F00E7007F0068
:10184000DF005F00DF005F00E7005F00E7007F0070
:10185000F7007F00F7009F00F7009F00F700BF0030
:10186000F700BF00EF00BF00DF005D00CE00FB000F
:10187000C600DB00BE00BB00B6009B00AE005B00F4
:10188000AE003B00A6003B00A6001B00A6001B000C
:10189000A6001A009D00F900A500D800A500D800F8
:1018A000AD00D700B500B700B500B700B500B70070
:1018B000AD009800AD0099005B007100430030005E
:1018C0003B0051000A002C003300B3002B009200B3
:1018D0002B00D3003300D3003B00B2003B002F00AD
:1018E00043000E007C009300BE001900C6007A0081
:1018F000C6005A00C6007A00C6007B00C6007B0006
:10190000CE007A00CE005A00D6005A00D6007A00E7
:1019100019004600110026001100270009002800C8
:101920000900290009008B0009008B0001008B00D1
:1019300001008B001A004D006400D6006C00F60018
:101940006C00F6006C00F6006C00F6006D001700ED
:101950006D0017006D0037006D0037006D005700F7
:101960006D0057006D0077007500980075009800B5
:101970007D00B9008D00DA0096001A00A6005B0019
:10198000AE007C00AE009C00B600BC00B600DC00DF
:10199000DF001C00E7005D00EF009E00F700BF00C5
:1019A000F700BF00F700BF00F700BF00F700BF005F
:1019B000EF009F00E7005E00EF009F00EF007E0059
:1019C000E7005D00F700BF00F700BF00EF009E00DA
:1019D000EF009E00FF00FF00F700DF00E700BF0000
:1019E000E700BF00DF007F00D7003E00DF005F00A0
:1019F000CF001D00D7005E00C600DC00BE007B00EB
:101A0000BE00DD00B600DD00A6009C00AE00FE00BA
:101A1000BE00DC00B600DC00B600BC00B600BC00B6
:101A2000BE00DC00C600FD00CF003D00CF005E0020
:101A3000CF003E00CF003E00CF003E00CF001E0092
:101A4000CF001E00CF001E00D7003E00D7003F0091
:101A5000DF003E00E7007F00EF009F00EF00DF00A7
:101A6000F700DF00EF00DF00E7009E00DF005D0011
:101A7000CF001C00CE00FC00C600DC00BE00BC0095
:101A8000B6009C00AE007C00A6003B00A6001B0038
:101A9000A6001A00A500FA00A500F900AD00F800A4
:101AA000AD00D800AD00D700AD00B700B500B8005C
:101AB000B500B800B500FA008C00D6004200CF0097
:101AC000430071001A006E001A00CF003B00F400C2
:101AD0003300B2002B0071004300B2007400B50067
:101AE0009D009800BE003900CE007A00C600390083
:101AF000C6005A00C6005A00C6007B00C6007B0024
:101B0000CE007A00CE005A00D6005A00D6007A00E5
:101B100019004700110047001100890009008A00E0
:101B20000100AC000A002F000A0070000A00B1009A
:101B30000A00D2000A00B0004400560075009A0066
:101B40008500FA007D0098007D0076008500B700D2
:101B50007500FA007500FA007500FA0076001900A9
:101B60007E003A0086003A008E003A0096005A0045
:101B70009E005A00AE007B00BE00BC00CF001D00DE
:101B8000DF005E00E7007F00EF007E00EF007E00D8
:101B9000F7007E00FF009E00FF00BF00FF00BF00B7
:101BA000F7009F00F7007E00F7009F00F700BF00DE
:101BB000FF00DF00F7009E00EF009E00F700DF004F
:101BC000F700BF00EF007E00F700BF00F700DF0066
:101BD000DF00DF00DF00FF00C7007F009E009C00E9
:101BE0008500FA0096005C00AE00DE00B600DE0064
:101BF000B600BD00A6003A009E003900A6009B007A
:101C0000A6009A009E007A00A6007B00A6007B003A
:101C10009E005A009E005A00A6007A00A6007A0094
:101C2000A6007A00A6007A00AE007A00AE007B0023
:101C3000AE009B00AE00BB00B600BB00B600BC000F
:101C4000B600DC00B600DC00BE00FD00BE00FD00FA
:101C5000CE00FD00D7003E00DF007F00E7009F00C0
:101C6000EF00BF00EF00DF00EF00BF00EF009E00BD
:101C7000E7007E00E7005E00DF005E00D7003E0068
:101C8000CF001D00C600FD00BE00BC00B6007B00FA
:101C9000B6003A00AE001A00AE001900AE001900FE
:101CA000AD00F900AD00F800AD00D800AD00B800FF
:101CB000AD00B800B500D900AD00D90074005400E3
:101CC000430030002A00EF0012004D003B00D3001B
:101CD0003B0052006C00960095009A00B6003B0055
:101CE000C6005B00C6001A00C6001900C600190035
:101CF000C6003A00C6003A00C6005B00C6005B00A2
:101D0000C6005A00CE005A00CE005A00D6007A0013
:101D100002002C0002002C0012006D0012006E0068
:101D20001A008F002200F100230032001B00530034
:101D30002300B4001B00B3002C0034004C00D6007C
:101D40006D00980096005A00A6009B00A60059005E
:101D500096007C0096007C009E009C009E009B00EC
:101D60009E009B00A600BB00AE00BB00BE00DC00D6
:101D7000CF001D00D7003D00E7005E00F7009F0088
:101D8000FF00BF00FF00BF00FF00BF00FF00BE005C
:101D9000F700BF00F700BF00F700BF00EF007E00B4
:101DA000E7005E00E7005D00E7005E00E7007E0000
:101DB000DF005D00E7007E00DF005E00DF007E00E8
:101DC000DF009F00DF009F00DF00BF00D7005E0044
:101DD000C700BF0096007D005400D7003C005500AE
:101DE000340055002B00F4003300D400540096005A
:101DF0008500BA009E007C00A6009C009600190099
:101E00008D00F800960019009E001900A600190028
:101E10009E005A009E005A009E005A009E00390003
:101E20009E0039009E0039009E0039009E00390056
:101E30009E0039009E0059009E005A00A6007A00BC
:101E4000A6007B00A6009B00AE00BC00AE00BC005C
:101E5000B600DC00BE00FC00C7001D00D7005E001D
:101E6000E7009F00EF00DF00F700DF00F700BF0092
:101E7000F700DF00F700BF00EF00BF00EF00BF007A
:101E8000E7009F00DF007E00D7003D00CF001D006F
:101E9000C6009B00BE007B00B6005A00AE003A00B0
:101EA000AE001A00A6001A00AD00F900AD00D9007E
:101EB000B500D900AD009800B500F900AD00F900FB
:101EC0006300D2003B000F001A004D003300710088
:101ED0004B0072009D00BB00BE009D00BE003B0099
:101EE000C500FA00C500D900CE001900CE001900C7
:101EF000CE001900C6003A00C6005A00C6005A00BB
:101F0000C6005A00CE005A00CE005A00CE005A0039
:101F100003005100130071002B00D3004C0034006B
:101F2000640096007D003800850099008500B900A6
:101F3000750098007500F9006D00D8007500F90073
:101F40008E001900B600DC00D7005E00CF001C0038
:101F5000DF001E00DF001E00DF003E00DF003E004D
:101F6000D7003D00DF003D00E7007E00E7009E0057
:101F7000EF007E00EF009E00F700BF00F700BF00FB
:101F8000F700BF00F7009E00EF009E00EF007E000C
:101F9000DF00BF00DF009F00D7007E00CF003E00C3
:101FA000CF001D00C7001D00C600FC00BE00FC00E5
:101FB000AE009B00A6007A00B600DC00AE00BB00BD
:101FC000AE00DC00BF001E00A6009C00B600DD00D5
:101FD0005C00F8002B00730023007300340016002F
:101FE0002300B5001B0074001B0033001200B0007A
:101FF00012008E0033000F00640074009500B800DA
:10200000A6003900A60019009D00D8009D00970089
:102010009500D8009500D8009500F9009D00F900C2
:102020009D00F9009D00F9009E0019009E00190016
:102030009D00F9009E0019009E0019009E001A00E4
:102040009E003A00A6003A00A6005B00A6005B00D6
:10205000AE009B00AE009B00B600BC00BE00FD00C1
:10206000D7005E00E7009F00EF00BF00F700DF0031
:10207000F700DF00F700BF00F700BF00F700BF0068
:10208000F700DF00EF00BF00EF009E00E7009E00BA
:10209000DF001D00D600FD00C600BC00B6007C00BD
:1020A000AE005B00A6003B00AE001B00AE001A00B5
:1020B000B500F900B500D800B500D800B500F900AA
:1020C0009D0077005B00B10022004C002A00CE008A
:1020D0005B009200A500BB00BE003C00BD00DA0022
:1020E000CE001A00CE001A00D6001900CE0019004A
:1020F000CE001900C6001A00C6003A00C6005A00F9
:10210000C6005A00C6005A00CE005A00CE005A003F
:102110003C0035005C00F80096005D00BF001F0029
:10212000D7005F00E7009F00E7007F00DF007E0030
:10213000D7007E00D7009F00D7007E00DF00DF00C1
:10214000E700BF00E7005E00F7009E00FF009F0071
:10215000FF005E00FF007E00FF007F00FF009E008A
:10216000FF007E00F7009E00F7009E00F700BE0013
:10217000F700BE00F700DF00F700DF00EF00BF0050
:10218000DF009E00D7005E00CF003D00CF003D0085
:10219000B7003E00B7001E00AE00DD00AE00DC0060
:1021A000A600BC00A600BC00A6009B009E007B0011
:1021B0008500B8009E007B0096005B009E007C00BE
:1021C0008D00FA0096003B0096003C003B00910019
:1021D0001A00D000230012002200F2001A00910021
:1021E0000A005000120091001A00B10012008F0086
:1021F00012004D001100CB0032004C0053000E00C5
:1022000063006F008C00B400B500F800A500B700B3
:102210009D0098009D00B800A500D800A500D8003A
:10222000A500B8009D00B8009D00B8009D00B80052
:10223000A500D800A500D900A500D900A500D900A7
:10224000A500D900A500F900A500FA00A6001A0013
:102250009E003A00A6005A00AE007B00B6009B002C
:10226000BE00BC00C600FD00D7005E00DF007F009E
:10227000E7007F00E7007F00E7009E00EF009F007F
:10228000F700BF00F700BF00F700BF00F700BF0076
:10229000F700BF00EF009F00DF005E00C600FD00FA
:1022A000B6009C00AE005C00AE003B00AE003B0000
:1022B000AD00F900B6001900AD00B700B500F80098
:1022C000B6001A008D0016003A00CE001A000B006E
:1022D00053007100A500FB00BE007C00BE001A0088
:1022E000CE003A00CD00F900CD00F900CE00190073
:1022F000CE001900C6001A00C6003A00C6003A0017
:10230000C6005A00C6005A00CE005A00CE005A003D
:10231000C6009E00D600FF00EF00BF00EF00BF0028
:10232000EF007F00EF007E00F7009E00F700BF0087
:10233000F7007E00F7009F00F7007F00F7007F00A6
:10234000F7007F00F7007F00FF009F00F7005E00AE
:10235000F7009F00F7009F00F700BF00F700DF00C5
:10236000F700DF00F700FF00EF00DF00E700DF000D
:10237000E700BE00DF009E00D7007E00C7003E00E1
:10238000B600FD00A600BC009E007B0096005B002E
:1023900096005B0096003B008E003B008E003A00EA
:1023A00096003A0096003A0096001A008E001A0035
:1023B0008D00F9008D00FA0096001B008D00DA00F8
:1023C0009E005D007D00590022008E001100ED008E
:1023D0001A006F001A002E001A002F002200500071
:1023E0001A002F001A000E0012000E0012000D003D
:1023F00022002D0074005400B500DA00BD00D900A1
:102400009C00950073004F006B004E00840072002A
:10241000A5009800AD009800AD009800AD009800B0
:10242000A5009800A5007800AD009800AD009800C8
:10243000A5009800A5009800A5009800A5009800A8
:10244000A5009800A500B900A500B900A500B90035
:10245000A500F900A6001A00A6001A00A6003A007E
:10246000AE005A00AE007B00B600BB00BE00DC0030
:10247000CF001D00CF001D00D7003D00E7005E002B
:10248000EF007E00F7009E00F7009F00FF00BF00F6
:10249000FF00BF00F700DF00EF009F00D7005E00E5
:1024A000C600DD00B6009C00AE007C00AE005B0004
:1024B000AE001900B6001900AD00B800BE0039002A
:1024C000AD00F900AE001A007C0074002A002B0059
:1024D0003200CD009D00D900BE009C00B60019005E
:1024E000C6003A00C6003900CE003900C600190007
:1024F000C6003900C6003900C6003A00C6003A00DE
:10250000C6003A00C6003A00CE003A00CE003A00BB
:10251000F7005F00F7005F00FF007F00F7007E001C
:10252000EF005E00F7007E00EF007E00E7005E0037
:10253000EF009F00E7007F00E7009F00E7009F009B
:10254000DF009F00CE00FE00C600DE00C600DE00F9
:10255000B7001E00B7001E00B7001E00BF005E00DF
:10256000C7009F00C7009F00BF005E00B7001D00AE
:10257000B600FC00AE00BC00A6009B009E005B0005
:1025800096003B008E003B0086001B008500FB0090
:102590008D00DA008500D9008500B9008500D900DA
:1025A0008D00B8008D00B8008D00B8008D00980037
:1025B0009500D90085005800950099009D00DB002A
:1025C0005B00D30019008B001900AC0022000E0044
:1025D0001900ED0022000D001900CC001900AC001C
:1025E00022000D002100CC001900AB0032004D008C
:1025F0009D005800BE001B00C6001A00BD00B900B7
:10260000CE001A00CE001A00AD0036008400120081
:102610006B004F007B00F1009400D400AD00770008
:10262000B500D900B500D900B500B800AD009700DD
:10263000AD007700AD007700AD009800AD009800C8
:10264000A5009800A5009800A5009800A500980096
:10265000A500D900A500B900A500D900A500F90082
:10266000A6003A00A6005A00AE007B00AE007B0038
:10267000B600BC00BE00DC00CE00FC00D7001D0090
:10268000DF003D00E7005E00EF005E00F7007E0027
:10269000F7009E00F700BF00F700BF00DF005E00FC
:1026A000CE00FD00BE00BD00B6009C00B6007C0060
:1026B000AE003A00B6005A00AD00F900AD00F900D6
:1026C000AD00F900AD00F900B6003A0053000E006D
:1026D0001A002A008D007700B6007B00B6005A0071
:1026E000C6005A00BE001900C6003900C6003900F5
:1026F000C6003900C6003900C6003A00C6003A00DC
:10270000C6003A00C6003A00CE003A00CE003A00B9
:10271000F7007E00EF005D00F7007E00F7009F00ED
:10272000E7003E00D600FD00C600BC00B600BC00BD
:10273000AE00BC009E009C008E007B007E003B0033
:102740007500FB0065009A005D003A005500190015
:102750004D0039004400D7004D0038004D001800EE
:10276000440096005D0058009600BE008E003B00BD
:102770008E003A008E001A008D00F9008D00FA00DC
:102780008D00D900850099008500BA007D005900B0
:102790007D00570085007700850077007D003600BA
:1027A0008500560085005700850036008D007700B3
:1027B0008D007700950099008400F6004200AE007D
:1027C0001100290019006A002100AC0019008B00DB
:1027D0001900CC001100AB001900EC001900EB004F
:1027E0001900EB001900AA003100EB00A500580009
:1027F000BD00FA00BD00F900BD00F900BD00F90000
:10280000BD00F900BD00F900C6003A00CE005B0033
:10281000B500D8009D0015007C0011006B008F00F2
:102820007300B0008C0073009D003600AD00B8004E
:10283000B500F900B500F900AD00B800A50097009B
:10284000A500B800A500B800A500B800A500980034
:10285000A5009800AD00B800A500B900A500D900FA
:10286000A500F900A6001A00A6003A00A6005A002A
:10287000AE007B00B6009B00BE00DC00CE00FD0079
:10288000CF001D00DF001D00E7005E00EF009F008D
:10289000F700BF00F700BF00F700BF00E7007E00B1
:1028A000DF003D00CE00FD00BE00BC00BE009C006D
:1028B000B6007B00AE005B00AE001A00AE001A004E
:1028C000B6001A00B6001A00AD00D900AD00B8007D
:1028D0001900E9006C005200BE00DC00B6005A008E
:1028E000BE003900C6003900C6003900C6003900F4
:1028F000C6003900C6003900C6003A00C6003A00DA
:10290000C6003A00C6003A00CE003A00CE003A00B7
:10291000EF009D00EF00BE00EF00BF00D7005F009A
:10292000B600BD009E005C008500FB007500DB006A
:102930005D0079004D0038003C00F7003400D700FE
:102940002C009700240057001C0017001C001700E3
:102950001B00F6001B00D6001B00B5001B009500F5
:10296000230095002300730065007A008500FC00B9
:102970007D00BA008D00B9008500980085007700C1
:102980008500370085003700850037008500570037
:102990007D0036007C00F5007D0015008D0077007D
:1029A0008500560085003500850056007C00D40067
:1029B0006C0053003200AC0019008900110068005F
:1029C00019008A001900AA0019008A001900AB003A
:1029D0001100AC001900EC000900AB001100EB0085
:1029E0001900EA002900EA00A5007700C6003A00B5
:1029F000C500D800C500F800BE001800BE003900B0
:102A0000BE003900BE001900BE001900C500F90063
:102A1000BE001900C6005A00CE009B00BE0039005F
:102A2000A50076008C0093007300D00063008E0038
:102A30007300F0008C00B300A500B700B6001900C9
:102A4000A500B800A5009700A500D800AD00F800CB
:102A5000B500D900A5009800A5009800AD00D900E8
:102A6000AD00F900A500F900A500F900A6001A00C4
:102A7000A6003A00AE005B00B6009B00BE00BC00A2
:102A8000C600DC00CF001D00D7005E00E700BF00DD
:102A9000F700BF00F700BF00F700BF00EF007E00A7
:102AA000E7003D00D7001C00CE00DC00C600BC00E3
:102AB000B6009C00B6009C00AE007C00AE005B003F
:102AC000B6003B00B6003A00BE003A00BE003A0035
:102AD0006C0011004B000D00BE007B00BE005A00D0
:102AE000C6003A00CE005A00C6001900CE003A00D7
:102AF000C6001900C6003900C6003A00C6003A00F8
:102B0000C6003A00C6003A00C6003A00CE003A00BD
:102B1000F700DF00EF00BF00CF005E009E005C000A
:102B20006D009A0055001A003C00D9002C00580096
:102B3000240017001B00D6001B0094001300530054
:102B4000130033000B0012000B0012000B001200E8
:102B50000A00D3001200D3000A0092000A0092007B
:102B60001200B20002000F004300B4008D00BB0051
:102B70008D009A007D001600850016008D0056001D
:102B8000850015008D0036008500160085001600B2
:102B9000850036007C00F600850036006C0073006E
:102BA0003B000E003200CC003A00ED0022004A004B
:102BB0000100470001002700090088001100A9005A
:102BC000110089001100AA0011008A0011008A007A
:102BD0000900CC000900CC001100EC001100CA0073
:102BE000090068008400D500C6005A00BD00D80066
:102BF000C6001800C6001800BE001800BE0018006D
:102C0000BE001900BE001900BE001900BD00F90089
:102C1000C6003900BE001900BE001900BE00390010
:102C2000C6007A00CE007A00C6005A00BE00390005
:102C30009D0015008400720063008F007400110075
:102C40009D005600B6001900AD00D800A500B800E0
:102C5000AD00B800AD00B800AD00B800A500B800E8
:102C6000A5009800A500B800AD00F900AD00F9007E
:102C7000A500FA00AE001A00AE005B00B6007B00B3
:102C8000B600BC00BE00FD00CF005E00D700BF0054
:102C9000EF00BF00F700DF00F700BF00EF009E006D
:102CA000EF005D00E7005D00DF001D00CE00FC00CE
:102CB000BE00BC00BE00BC00B6009C00B6007C009C
:102CC000B6005B00B6003A00BE003A00C6005A00EB
:102CD000B6001A004A00AC00AD00B800CE005B00A0
:102CE000C6001A00CE001A00CE001A00CE001A004C
:102CF000CE001900C6001900C6001900C6003A002F
:102D0000C6003A00C6003A00C6003A00C6003A00C3
:102D1000CF001E00B600BD008500DA005400B700E9
:102D20002C0016001B00F6001300B6000B00340048
:102D30000A00F3001200B2001200500012002F002F
:102D40001A000E0012000E0012000D0012000D00FD
:102D50000A000E0012000F001100EE0012000F001A
:102D60000900EE001100CD001A000D007400D7001C
:102D70008D0058008D0016008D0035008D00140068
:102D80008C00F400950076008D0035008400D4009E
:102D90007C00D6008D0038006300F3001900EA00C3
:102DA0001900A90022000B0009006800010027009B
:102DB00009008900090089001100CA001100AA0059
:102DC0001100AA001100AA001100AB001100CB00F5
:102DD00001008B000900CC001100CB000900490064
:102DE0007C007400BE003B00BE003900BE0019002C
:102DF000C6001800C6001800C500F800C500F8009D
:102E0000C6001900C6001900C6003A00BE003A000C
:102E1000C6003900C6003900C6003900C6003900B6
:102E2000C6005900C6003900C6003900BE001900AE
:102E3000CE007A00CE007A00BE0019008C00B300EC
:102E400063006F0074001100A5007600B600190041
:102E5000A500B800AD00F800AD00D800AD00B80086
:102E6000AD00D900AD00D900A5009800A5009800DC
:102E7000AD00D900AD00FA00AE003A00AE005B0034
:102E8000AE009B00B600DC00BF003E00C7007F0024
:102E9000E700BF00EF00DF00F700DF00F700BF0032
:102EA000F7009E00EF009E00E7005E00D7003D00A7
:102EB000CF001D00C600DC00B600BC00B6009C00C0
:102EC000B6009C00B6007B00B6003A00BE003A0097
:102ED000D6009C008C00530094007400D6007C0047
:102EE000C500DA00CE001A00CE001A00CE001A008B
:102EF000CE001A00C6001A00C6001A00C6003A002A
:102F0000C6003A00C6003A00C6003A00C6003A00C1
:102F10005D0019004C0097003300F4001B005200C4
:102F20001200F1000A00F1000A00B00002002E00B9
:102F30000900ED000900CC0011008B0011006A00AF
:102F400011006A0011006B0011006A0011006A0094
:102F50000900AA000900AA000900AB001100CB007B
:102F600009008B001100CB00090069004B002F0005
:102F70008D0036008D0035008D0035008400F40092
:102F80008D0034008400F4008400F4008D003600CD
:102F90008D0018006300B2002100CB002100CB009F
:102FA0002100AA000000E70009000800090028002D
:102FB00011006A001100490011006A0011006A0046
:102FC00011008A0011008A0011006A0011008A00B5
:102FD0001100CC0009008A00110029006B0092004A
:102FE000BD00FB00C6005B00B500B800BE001900C4
:102FF000BD00F800C6001800CE001900CE00190070
:10300000CE001900CE001900C6001900BE0039001C
:10301000C500F900C6001900CE003A00C60039000C
:10302000C6001900C6001900CE003900CE005A00B3
:10303000CE005A00C6001900C6003900D600BC00F8
:10304000C60019008400320063004E007C001100AD
:10305000AD00D800AD00D800AD00B800AD00B8009C
:10306000AD009700AD00B800B500D900B500D9009B
:10307000AD00D900AD00F900AE001900AE003A0075
:10308000AE005B00AE007B00B600DC00BE00FD00C1
:10309000D7005E00DF009F00EF00BF00EF00BF0021
:1030A000F700BF00F700DF00F700BF00E7009E0059
:1030B000DF007E00D7003D00C600DC00C600DC005B
:1030C000C600DC00BE00BC00BE009B00BE007B0052
:1030D000C6005B00C6003B007B00F200BD00FA00AA
:1030E000C6001A00CE003B00C500DA00CE001A0070
:1030F000C6001A00C6001900C6001A00C6003A0031
:10310000C6003A00C6003A00C6003A00C6003A00BF
:10311000130074000B0032000A00D0000A006E0099
:103120000A000C001100CB001100AA001100890058
:10313000110088001100880009006800090048009B
:10314000090069001100690011006A0011006A009D
:103150001100A8001100A900090088001100A900B1
:103160001100CA001100AA001100CA0022000A00C2
:103170008500360085001500850014008D0055007F
:1031800085001400850015008D005600850015008F
:103190004B001000190069002100CB00110049000C
:1031A00000008600110029001100290011002900EB
:1031B0000900090019006A0019008A00110049007D
:1031C0001100490019006A0011004900110029008E
:1031D0001100690032002C008C007500CE005C00EC
:1031E000C6001A00BD00B800BD00F900BE001900FD
:1031F000BE001900C6001900CE001900CD00F9006C
:10320000CD00F900CE001900C6001900C6003A0032
:10321000CE003A00CE003A00C6001900C6001900E0
:10322000CE003A00CE003A00C6001900C500F900F1
:10323000C500F900CE001900C6001900C500F9004C
:10324000CE003A00D600BC00BD00D8007B00F100E3
:103250005B004E009400F500B500F900B500F800E1
:10326000AD00D800AD00B800AD00B800B500F80062
:10327000AD00D800AD00D900AD00F900AE001A00D5
:10328000AE003A00AE005B00B6007B00B6009C00CA
:10329000BE00DC00CF001D00D7005E00DF007F0015
:1032A000E7009F00EF00BF00F700DF00F700DF003E
:1032B000EF00BF00E7009E00DF005D00D7001C00AC
:1032C000CE00FC00C600DC00C600BC00BE00BD0095
:1032D000BE005B00CE00DD00950016008C00D5001E
:1032E000D600DD00BE001A00BE001A00C6003B007A
:1032F000C6001A00C6003A00C6003A00C6003900EF
:10330000C6003A00C6003A00C6003A00C6003A00BD
:103310000A0050000A002E000900ED0011008B0089
:10332000110049001100280019002700190027008A
:10333000110047001100470009004700090047003D
:103340000900480009006800110089001100890087
:103350001100870011008800090068000900890039
:103360001100AA00090089001100AA0009008900C3
:103370005B00D1008D0057008D00560085003500A0
:103380007C00F400950098007C00F60043000E00DD
:103390001900CA0022000B0001000700010007000D
:1033A0001100690001000700110028000900080051
:1033B00009000800190049001900690011000800FF
:1033C0001000E700190048003A002C006B00920042
:1033D000A5001600C6001A00C500FA00B500B80026
:1033E000BD00F800BD00D800C6001900C6001900D5
:1033F000C6001900C6001900C6001900BE00190059
:10340000C6001900C6001900C6001A00CE00190037
:10341000C500F900C6001900CE003A00CE003A00FF
:10342000CE003A00CE003A00CE003A00CE005A005C
:10343000C6003900CE003A00CE003A00C6003A007D
:10344000C6001A00BD00F900C6001900D6009C0095
:10345000AD00980063002E006B008F00AD00970058
:10346000B6001900AD00B700AD00F800AD00D800FF
:10347000AD00F800AD00F800AD00F900B60019008D
:10348000B6003A00B6003A00B6003B00BE005B0052
:10349000B6009B00B6009B00BE00DC00CF001E0003
:1034A000D7003E00DF005F00EF009F00F700DF0065
:1034B000F700BF00F700DE00EF009D00E7007D0091
:1034C000D7003D00CF003E00C7001E00C600FE0032
:1034D000BE00DC00B600BC00B6009C007C00D5003D
:1034E000BE009C00BE005B00BE005B00BE005B0037
:1034F000C6003A00C6003A00C6003A00C6003900CD
:10350000C6003A00C6001A00C6003A00C6003A00DB
:1035100019002B0019002A00190009001000E8000A
:103520001000E70011000700190027001000E70055
:1035300019000700190028001100280011002800B8
:103540001100480011008800110087000900870061
:1035500019008800110068001100890011008A001C
:1035600011008A001900CB0009006A001100AA00AE
:103570002A006C00950098007C00D500850036007C
:103580008D0078007C00D60032008D001100AA006A
:103590001A00090001004700010047000100270050
:1035A000010007000900270009002700110048005A
:1035B000110028000800C6000800E6002900CA0023
:1035C0006B00B1009D003700B500DA00C6007C003A
:1035D000CD00F900C500B800BD00D800BD00F8005E
:1035E000C6001800C6001900C500D800C500D900E3
:1035F000C500F900C500F900BE003A00BE005A003F
:10360000C6007A00C6005A00CE001A00CD00F900AC
:10361000C6001A00C6003A00C6003A00C6001A00EA
:10362000C6001A00C6001900C6001A00C6003A00FB
:10363000C6003A00C6001A00C6003A00C6001A00CA
:10364000C6001900C6001A00C6001A00BE00190004
:10365000C6003A00D6009C008C0073005B000D0091
:103660008C00D400B6001900AD00D700AE001800E1
:10367000AE001800AE001800AD00F800B60019004A
:10368000B6001900B6001A00BE001A00BE003A00CB
:10369000B6009B00B6009B00B6009C00BE00BD00BB
:1036A000C600BD00CE00DD00DF003E00EF007E0062
:1036B000F7009E00F700BE00F700BE00EF00BE005E
:1036C000E700BF00E700BF00D7009F00C7003F0032
:1036D000BF003D00BF001D00BF001D009D00D900C0
:1036E0008D005700CF001E00BE007B00BE005B00B7
:1036F000C6005A00C6003A00C6003A00C6003900AB
:10370000C6001A00C6001A00C6001A00C6001A0039
:103710001100270019004700190088001100060059
:103720000800E60011002700110006001100070044
:103730001100270011002700110048001100480067
:103740001100680011006800110089001100890053
:103750001100690011006900110089001100890041
:10376000110089001100A9001100A9001100A90091
:103770001100C9007C00F600850037008500580064
:103780006C0095002A006D0009008A0022002C00C0
:10379000190067000800E60011000700110007008B
:1037A00011000700110007000800C6000800C6004D
:1037B000190006005200CD008C007300B500B8005F
:1037C000CE005A00C6003A00C500F900BD00D8007E
:1037D000BD00F900BD00F900BD00F900B500B8005A
:1037E000BD00F900C6001900C500F800C500F800CA
:1037F000C6001800C500F800C6001800CE00390049
:10380000AD003500AD005600C6001900D6007B00A3
:10381000CE005A00C6001900BE001900C6003A00CA
:10382000BE001900C6001900C6003A00C600190003
:10383000C6001900C6003A00C6001900CE003A00C2
:10384000CE003900CD00F900CE003900CE0039009D
:10385000C6001A00BD00F900CE007B00BE003A0091
:103860005200ED0074001100BE005A00B500D800EF
:10387000B6001900B500F800B6001900BE00190026
:10388000B500F900B500F900BE001A00BD00F9004E
:10389000AE007A00AE007A00AE009B00B600BB001E
:1038A000B600BB00B600DC00BE00FC00C7001D0077
:1038B000D7007F00DF009F00EF00DF00F700DF0090
:1038C000F700BF00F700BF00F7009F00F7007E0081
:1038D000EF007F00DE00FE00DF003F00CE00FF00B3
:1038E00085003800A6005C00C7001E00BE007B00FB
:1038F000C6003B00CE001B00CE003C00C6003C00D2
:10390000BE003B00BE005B00C6005A00C6001900A6
:103910000900060011000600110027001100060032
:103920000800C6001000E60011002700190047003B
:103930001100270011002700110048001100480065
:103940001100680011006800110068001100690092
:10395000110069001100690011006900110089005F
:10396000110089001100A9001100A9001100C9006F
:103970001100A9003200CE009500B9005C001300D0
:103980001900EB001100CA001A000C0022000C0004
:10399000110027000800E600110007001900480088
:1039A000110027001000E7002100890053000F00DC
:1039B000A5009800BE003B00C6005B00BE001A00D8
:1039C000B500D800BD00D800C500F900BD00D90081
:1039D000B500F900C6005B00C6005B00D600BC0065
:1039E000C6001900BD00F800C6003900C500F90086
:1039F000C6001800CE005A00CE003900BD00F80005
:103A000052006A007B00D000840032008C007300FA
:103A1000B500B800D6009B00D6009B00CE005A002F
:103A2000D6009B00CE007B00C6003A00D6009B006B
:103A3000CE005A00CE005B00C6001900CE0019006F
:103A4000C500F900BD00B800C500F800C500F800C9
:103A5000C6003A00C6003A00C6005A00C6003A0046
:103A6000CE009B006B008F009400F400B60019009C
:103A7000B6001900B500F800B6001900B500F9004D
:103A8000BE003A00B500F900B500F900BE0019000B
:103A9000B6003A00AE003A00B6005A00B6007A000E
:103AA000B6007B00B6009B00BE00BC00BE00DC0080
:103AB000C600FC00CF001D00D7005E00DF007F00C5
:103AC000EF009F00F700BF00F700DF00F700BF0026
:103AD000F700BF00F700BF00F700DF00DF005F0066
:103AE000D7005F0095009700AE003900CE00FC00C3
:103AF000CE00DC00C6005B00C6003B00C6003B00F9
:103B0000BE003A00BE003900C6003900C6001800E9
:103B100011002700110006001000E6001100060049
:103B20001000E6001000E600190027000800E6007B
:103B30001100270011002700110027001100480084
:103B400011004800110068001100680011006900B0
:103B5000110069001100690011006900110089005D
:103B6000110089001100A9001100A9001100A9008D
:103B70001100A9001900EA00430050001100CA001A
:103B80001100CA001900EB001900EB001900EB004E
:103B90000800E60011000700190048001100280085
:103BA00011000700190028005B003000BE003B0038
:103BB000B500DA00B500D900B500FA00C6005B0018
:103BC000CE005B00C6003A00C6003A00C6003A00CC
:103BD000CE009C009400D5007300D1005B000E0065
:103BE000AD007700CE007B00BD00F900C6003900B3
:103BF000C6001900BD00F800BD00F900CE007A0033
:103C0000A50036007B00F100CE007B00A500560029
:103C100084001100840032009400B3009C00F40082
:103C20009C00B4009C00D4009C00F5009400B300FC
:103C30009400B3009400B400940093009C00B4007E
:103C40009C00F400AD003600BD00B800C500F900CE
:103C5000C6001900C500F900C6001900C6003A00E8
:103C6000C6003A008C00B3004A00AB00C6007A00E0
:103C7000B500F800B6001900B500F900BE00390023
:103C8000B6001900B6001900BE003A00B500F900F0
:103C9000B6001A00B6001A00B6001A00B6003A00C4
:103CA000B6003A00B6005B00B6007B00BE009B0089
:103CB000B6007B00BE00BC00C600DC00CF001D00CB
:103CC000D7003D00DF007E00E7009F00E700BF0057
:103CD000EF00FF00EF00DE00F700BF00FF00DF0095
:103CE000F700DF00DF005D00A500D700A500D700CA
:103CF000BE007A00C6009C00CE00BC00C6005B007F
:103D0000BE001A00C6003900C6005900C6003800BF
:103D100011000600190027001900270019002700CC
:103D20001000E6001000E6001900670019002700E7
:103D30001100270011002700110027001100480082
:103D400011004800110068001100680011006900AE
:103D500011008900110089001100890011008900FB
:103D6000110089001100A9001100A9001100A9008B
:103D70001100AA001100CA000900690009008900A9
:103D80001A000B001A000B0022000C001900CB00D7
:103D900011000600110007001100070011002800A3
:103DA00019004900110008000800C7001900480068
:103DB0002100690032000A0042008C0063004F00BD
:103DC00084003300A5005700B500B8009D00160020
:103DD0004A00AD00190027001000C5000000430094
:103DE00042004B00CE007C00C6001A00BD00D90086
:103DF000C6005A00BE001900BE001900C6003A00F5
:103E0000CE007B007C00120084005300D600DD0051
:103E1000C6001900B5009700A5003500A5003600C2
:103E2000AD005600AD005600AD005600BD00D800F4
:103E3000BD00F800C6001900C6003900CE005A00C7
:103E4000CE005A00C6003A00C6003A00C6001A006A
:103E5000CE001A00CE001A00C6001A00CE005A008A
:103E6000BD00F900C6003A007C00320084007200F8
:103E7000C6007A00AD00D800BE005A00AD00D800E0
:103E8000B6001900B6003A00B6001900B6001900D5
:103E9000BD00FA00BD00F900BD00FA00BD00FA0047
:103EA000BE001A00B6003A00BE005B00BE005B0018
:103EB000BE007B00BE009B00BE00BC00BE00BC007C
:103EC000C600DC00C600FD00CF003D00D7005E004C
:103ED000DF007E00EF009E00F7007E00FF009F00E5
:103EE000FF007F00F7009F00EF00BF00BE007B00D7
:103EF00095009800A500FA00BE007C00C6007D0079
:103F0000C6005C00C6005B00C6003A00BE00190097
:103F100019002600190006001000E600190026000E
:103F20001000E6000800C500190027001100060077
:103F30001900270019004700110027001100480050
:103F400011004800110048001100680011006800CD
:103F50001100690011008900110089001100890019
:103F60001100890011008900110089001100AA00C8
:103F70001100AA001100AA001900EB001900EB00C3
:103F80001100AA0022000C001A000B001900CA0040
:103F90000000A500110007001900480011002800CA
:103FA000110007001100080011002800110007008F
:103FB0000800E6001000E7000800C5000800A500A2
:103FC0000800C50021004700210068001000C6005D
:103FD000000085001000E6001100070021004800E5
:103FE00021006800B500B900C6003B00C6003B00D8
:103FF000BD00FA00BE001A00C6007B00B500D90063
:104000009D001600AD009800630070009D00160032
:10401000D6009B00CE007B00C6003A00C6003900E7
:10402000CE005A00CE005A00CE005A00CE005A00F0
:10403000CE003A00C6003900C6001900C6001900BB
:10404000C6001900C6001A00C6003A00C6003A00B1
:10405000CE001900C500F900CE003A00C500F900F5
:10406000CE005A00CE005A00C6005A005B000D0078
:10407000AD009700C6007A00AD00B700B600390069
:10408000B6001900AE001900AD00F800B600390006
:10409000BD00D900BD00D900BD00FA00BD00FA0086
:1040A000BD00FA00BD00FA00BE001A00B6001A00FA
:1040B000B6003A00B6005B00B6007B00B6007B009D
:1040C000B6009B00BE00BC00BE00FC00C7001D0087
:1040D000CF003D00D600FD00F7009F00F7005F0015
:1040E000FF009F00FF007F00EF009F00F700FF0030
:1040F000CF003F009D00BA008D001800AD00FB000E
:10410000C6009D00C6005C00C6001B00CE005B0020
:104110001000E5000800C5001000E50019002600A9
:10412000190026000800A5001000E500190047004E
:104130001900470019004700190047001100470007
:1041400011004800110048001100480011006800EB
:104150001100680011006800110069001100890059
:10416000110089001100AA001100AA001100AA0084
:104170001100AA001900CB001900EB001100AA00E1
:104180001A000B001A000C001900EB001900CA00FD
:104190000800C60011000700110007001000E7002A
:1041A0000000A7000800E700110028001000E80048
:1041B000110028000800E7000800E60011002700B1
:1041C000110007000000A5000800C6001000E7006D
:1041D00019002800190068001900280011000700C4
:1041E00021006900AD00B900BE003B00C6007C00A4
:1041F000C6009C00B500DA00740012002900C90056
:10420000190048002100A9002100A9002100A900EF
:1042100084005200BD00D900CE009B00C6003A00C9
:10422000C6003A00C6001900C500F900C600190012
:10423000CE003900CE003A00CE005A00CE003A003F
:10424000CE005A00CE007B00C6003A00C6003A00FD
:10425000D6003A00CE001A00D6005B00CE003A002D
:10426000C6001900CE005A00D6009B00AD007600B3
:1042700063006E00BE003900B500F800BE005A00B1
:10428000AD00F800AE001900A500B700AD00F900C0
:10429000BD00F900BD00FA00BE001A00BD00FA0022
:1042A000BD00FA00BD00FA00B500FA00B500FA0042
:1042B000B6001A00B6001A00B6003A00B6005B005D
:1042C000B6007B00B6009B00BE00BC00BE00DC0058
:1042D000C600DC00D7003D00CE009B00EF007E0052
:1042E000F7007F00FF00DF00EF009F00E7009F0066
:1042F000E7009F00D7005F00B6009C008D007800AB
:1043000085003700A500DA00BD00FB00B50079008C
:104310006B00B00042008C00190047000800A400A8
:104320001000E500110006000800C500110006009D
:10433000110026001100270011002700110027009E
:1043400011004700110048001100680011006800CA
:104350001100680011006800110089001100890037
:104360001100AA001100AA001100AA001100AB0060
:104370001100CB001100AB001100AB001900EC00E4
:104380001A000C001100AA002A004D001100CA00FA
:104390000000A5001100070011000700110029000E
:1043A000190049001100280011002900110008001F
:1043B00011000800190049001900480011004800C8
:1043C00011002800110028001900480019004800B9
:1043D00011002800110008001900280019006900C8
:1043E00011002800AD00FB00AD00FB009D0038006F
:1043F00063009100210089000800E60019006800B0
:1044000021008900190089002900EB0019006900CA
:104410001000C50042006C009C00F600C6005B0066
:10442000C6001A00C6003A00CE007B00C6003A0063
:10443000D6007B00CE003A00CE003A00C60019003C
:10444000C6003A00CE007B00CE005A00CE005A00D3
:10445000CE003A00CE003A00C500F900CE005A0066
:10446000CE005A00CE003A00CE007A00CE009B006B
:104470007C0011007C003100CE009B00AD00B70035
:10448000B6001900B60019009D009700A500B700FE
:10449000B500F900B6001A00BE003A00BE001A00CE
:1044A000B500F900B500F900B500F900BD00FA004B
:1044B000BD00FA00B6001A00B6001A00B6003A00B5
:1044C000B6003A00B6005B00B6005B00BE009C0080
:1044D000BE00BB00C600DC00CF001D00C600FC0013
:1044E000CF003D00EF00FF00F700FF00F700BF0026
:1044F000EF009F00E7009F00D7009F00BF005E0015
:10450000A600FD009500FA007C0054005A00CF0080
:104510004200AC00630090007400110053002E00B4
:104520003A004A00210087000800E5001900470012
:1045300011000600110006001100260011002700DE
:10454000110047001100680011008800190089005F
:1045500011008800110088001100890011008900F5
:104560001100AA001100AA001100AB001100AB005D
:104570001100CB001900EC001100CB001900EB007A
:1045800022002C001A000C0022002C001100AA00AE
:104590000800C60019006900110028001100080079
:1045A0001100290011000800110008001100490045
:1045B0001100280011004800090007001100280020
:1045C00019004900110028001100280011002900DD
:1045D00011002800190049001100080019004900C5
:1045E000110028002900EB002100AA00110028007A
:1045F0000800E70019006900190069002100AA00FD
:104600001900890019008A001900AA002100CA00B7
:104610002100890011002700210088006B00900014
:10462000B500FA00CE007B00BE001A00C6003A00BA
:10463000C6003A00C6001900CE005A00CE005A004B
:10464000D6007B00D600BC00CE005A00C600390060
:10465000CE003A00CE005A00CE005A00CE005A00DA
:10466000C6003900CE007A00C6003900CE005A00DC
:10467000CE009B007300AF008C00B400C6005A004F
:10468000B500F900AD00F800AD00D8009500360087
:10469000A500D800AE001900B6003900B600190018
:1046A000B500F900B500F900B500F900BD00F9004A
:1046B000BD00F900BD00F900BD00FA00BE001A00FF
:1046C000B6001A00B6001A00B6003B00BE005B0040
:1046D000B6009B00BE00DD00C7003F00BF005F00CA
:1046E000B7007F00B7003D00CF007E00F700BF009D
:1046F000FF009F00F7009F00C600FD008500D80066
:104700005400D5004C005400530093004A00B00000
:104710000800E500110005001900460032002900DC
:1047200053002D005B004E003A004B0011002600A4
:104730005B006F006300900032002A002100E90056
:104740002900E9001100470011006700110047002F
:104750001100880011008800110089001100A900D3
:104760001100AA001100AA001100AB001100CB003B
:104770001100AB001100CB001900EC001A000C0076
:104780001100CB0022002C0022002C00090069003F
:104790000800E60011002800190048001100280058
:1047A0001100080011000800110029001100280064
:1047B00011002800110028001100490011004900D3
:1047C00011004800110028001100290011004900C3
:1047D00011002900110049001100290011002800D2
:1047E00011002800110028001100280011004900C4
:1047F00019006900190069001100690011006900C1
:1048000019008A001900AA001900AA001900AB00BB
:104810002100EB0019006900190069001900690006
:104820003A004C0095001600C6007B00C6005B00F5
:10483000C6003A00C6003A00CE005A00C600190071
:10484000CE005A00CE003A00C6001900CE005A0031
:10485000CE005A00CE005A00CE005A00CE005A00B8
:10486000CE005A00CE005A00CE005A00CE005A00A8
:10487000CE007A00C6005A0063004E009D0035004D
:10488000C6005A00AD00B800B60019009D00360001
:104890009D009600A500D800AE001900B6003900B2
:1048A000AD00D800B6001900B500F900BD00F90050
:1048B000BE001A00BE001900BD00F900B500F900E5
:1048C000B500D900B500FA00BE005B00C6009D002F
:1048D000B6009D009E001C0075003A005400970031
:1048E00044009700550017008500D900D7001D002F
:1048F000FF003E00FF005E00DF001E007500770035
:10490000230091000A00CF001100EE0011006D009D
:104910002900E800320029002900E900190066009A
:104920001100260019006600110046000800C400AE
:104930002900E900740052008D0015008400B400C5
:104940006C00120053004E004200ED002A002A00C5
:104950001900C9001900A9001100680011006800C1
:10496000110089001900CA001900CB001100AB002A
:104970001900EC0009006A001A000C0022002C004B
:104980001A000C001A000C001A000C00010048006C
:104990001100270011002700110028001100280035
:1049A000110029001100290011002900110029001F
:1049B00011004900110028001100480011004800B2
:1049C00011002800090028001100490011004900C9
:1049D00011002900110029001100290011002900EF
:1049E0001100280011002900110049001100690080
:1049F00011006900110069001100690011006A00CE
:104A000011008A001900AB001900CB001900CB007F
:104A10001900AA002A002C0019008A001900690058
:104A200032002C002900EA0074001300BE001A00B6
:104A3000C6007B00C6003A00C6001900DE00FD007B
:104A4000CE003900CE005A00CE005900D6005A00E0
:104A5000CE007A00C6005A00CE005A00CE007A007E
:104A6000CE005A00CE005A00CE005A00CE005A00A6
:104A7000C6001900CE007B00C600190063004E007E
:104A8000A5003600BE001A00A5007700AD00980012
:104A900095005500AE001800AD00F800AD00F8001C
:104AA000BE005A00B500F800BE001900B500F900BC
:104AB000B500D800B500D800B500F900BE005B0015
:104AC000C6009C00B6003B00950016006B00F2008B
:104AD0002A00CF002A00B0002200D2001B003400C0
:104AE0001B00D6002C0077006D009900C600FD0069
:104AF000FF005F00FF003E00EF007F00A6007C008B
:104B0000440095002300B3001A00F20012001000C8
:104B10002900E9003200290032002A003200090091
:104B20002900E8002100C8002100C8002100C800B9
:104B30000000A4000800E4000800E50009000500EA
:104B4000110006000800C5001100260019008700AA
:104B50002A000A003A006C003A008D002A002B005F
:104B60001900A900110069001100AA001900AA008B
:104B700022000B003200AE001A000B001100AA0048
:104B80001100CB0022004C001100AA000000C70059
:104B90001100280011002800110028001100280031
:104BA0001100280011000800090008001100080089
:104BB00011002800110028001100280011004800F1
:104BC000110029001100490011004900110049009D
:104BD00011002900110029001100290011002900ED
:104BE000110049001100490011006900110069001D
:104BF000110049001100690011006A0011008A00CB
:104C000011008A001900AA001900CB001900CB007E
:104C10001100CB001900CB0022002C001900AA00C3
:104C20001100690032004C002A000B006300910063
:104C3000AD00D900D600FD00BE001A00C6005A0023
:104C4000CE005A00CE003900CE005900CE00390007
:104C5000C6007A00C6005A00C6005A00CE007A008C
:104C6000CE005A00CE005A00CE005A00CE005A00A4
:104C7000CE005A00C6003A00CE007B00B500D80036
:104C80005A00ED009400F500C6005A00B500D900A6
:104C9000A500B700A5009600AD00B700B500D8008C
:104CA000B6001800AD00B700B500F800B500F80078
:104CB000C6007A00C6005A00B6001A0095003600F9
:104CC000630090002A002A001900A9002A000A00A7
:104CD00033004F0033003100330074002B00B60066
:104CE000240017002400970055007900A600DC007E
:104CF000EF007E00FF001D00F7003D00BE00BC007D
:104D00005C00F6002B00D3001B0053000A0091004A
:104D10003A008B0032002A002A0009003200090004
:104D2000320009002900E8002100A7002100A700A7
:104D30002100A70011002500110005001900460000
:104D4000190046000800E500000084000000A400EF
:104D50000000A400090006002100880032004B007A
:104D60004200ED004A00EE0032006C002100CA0053
:104D70001900A9007C00B600850017004B00500008
:104D80002100EB0022000B00090069000100070070
:104D900011004800110048001100480011004800AF
:104DA000110049001100290011000800110008003D
:104DB000110008001100280011002800110048000F
:104DC00011004900110049001100290011002900BB
:104DD000110049001100490011004900110049006B
:104DE000110049001100490011004900110069003B
:104DF0001100690011006A0011006A0011008A00A8
:104E000011008A001100AB001900AB001900CB00A3
:104E10001900EC001900EC001900CB0022002D0055
:104E20002100EC001900AA003A008E0032006D004B
:104E300053002F00A5007800CE009C00C6007B0028
:104E4000C6003A00C6003900CE005900CE005A0014
:104E5000C6007A00C6005A00C6007A00CE007A006A
:104E6000CE007A00CE005A00CE005A00CE005A0082
:104E7000CE005A00CE005A00C6003A00C6005A00C2
:104E8000C6003A005200ED0084007300BE001A0014
:104E9000B500D800B500D800B500D800B500D800DE
:104EA000B500F800CE009B00BE001900BE0019003E
:104EB0009400F4006B00F00032004A000900050085
:104EC0000000E5002100E90043000E005300B1009E
:104ED00033009000330071003B0093003300B500B5
:104EE0002300D6001C0036003C00F7007E001A00AC
:104EF000CF003D00F7009E00FF009E00DF007D0018
:104F00009E005A004C0095002300B30013003200AD
:104F1000320009002A0009002100C80019006700BA
:104F2000190087002900C8002900E8002900C800EE
:104F30001900660019004600210087002100A70023
:104F4000210066001900460011000500110005004F
:104F50001000E5000800C4000800A4000800A40038
:104F6000110006002900C9004200AC0053006F0088
:104F70004B002F0053004F00950098008400F6006E
:104F8000640013002A002B002100EB000900070039
:104F900009000700090027000900070009000700B1
:104FA00011002800190069001900490011000800CB
:104FB000110008001100070011000700110028006F
:104FC00011002800110029001100290011002900FA
:104FD0001100490011004900110049001100490069
:104FE0001100490011006900110049001100690019
:104FF0001100690011006A0011008A0011008A0086
:1050000011008A001100AA001900AB001900CB00A2
:105010001900CB001900CB0022000C0022000C006C
:105020002A004D0022000C0022002C00430010003A
:105030003A00AE004B000F009D007800CE00BC008F
:10504000BE001900CE009B00CE003900CE005A00F1
:10505000C6007A00CE007A00CE007A00CE007A0038
:10506000CE007A00CE005A00CE005A00CE005A0080
:10507000CE005A00C6003A00C6001900BE003A0031
:10508000BE003A00BE003A005B004F00840073008F
:10509000BD00F900AD00B800B500D800B500D900DA
:1050A0007C0011005200EC003A004A002100870009
:1050B00011000500000083000000830009002600A5
:1050C0001900C9001900E90022000A002A004B005B
:1050D0002B000F0033003100430093003B007500AC
:1050E0002B0095001B00D6002C00770055003900DE
:1050F0009E009D00E700BF00F7009F00E7005E00F4
:10510000C600FD006D0017002B00930023009400E3
:1051100019006700190067001900460019002600F1
:1051200011000500110005001100250011002500E7
:10513000190046001000C4000800C4001000E4007C
:105140001000E4001000C4000800C4001000C400F7
:105150001000A4001000A4000800830008008300D1
:105160000800830000006300000083000800E400E2
:105170002900E9003A008B006C0032007400330013
:105180004B002F007C00940032004C00110068009E
:105190000900060009002700110048000900070067
:1051A0000800E7000900080011002800110028008D
:1051B0001100070011000700110007000900070097
:1051C0000900070011000800110029001100290042
:1051D00011002800110028001100480011004900AA
:1051E00011004900110069001100690011006900F7
:1051F0001100690011006A0011008A0011008A0084
:1052000011008A001100AA001900AB001900CB00A0
:1052100019008A0022002C001900CB0022000C008B
:105220002A004E003200AF0022002D003A00CF00CD
:105230004B0030004B0050004200EE00950037005C
:10524000CE00DD00C6005A00CE009B00C60039002B
:10525000CE005A00CE007A00CE007A00CE005A006E
:10526000CE005A00CE005A00CE005A00CE003A00BE
:10527000C6001900CE005A00CE007B00CE009B0075
:10528000C6007B00A500B8008400940053004E00C7
:10529000B500FA00B500D900BD00FA0042006B006D
:1052A000000063001000E5000800C40011000500C4
:1052B000110005001100260011002600090026003B
:1052C00009002700110068001900CA001900EA004F
:1052D00022008E003200CF003B0011003200F200AD
:1052E0002200F300230055002B00F8003C009A0038
:1052F0007E003E00CF00BF00E700BF00E7003E0099
:10530000DF001D00950079003B00B40023009400ED
:10531000210087001900460011000500110005005A
:105320001000E4000800A4000800A3001000C4005E
:105330000800A3001000C4000800C3000800A30078
:105340000800A3001000A4001000A40008008300BF
:1053500010008300100083001000A3001000C300A1
:105360001000C3000800A3000800A3000800C30049
:1053700000004200000083000000A300110047006D
:105380000800E50032004B007C0094003A008C00DD
:10539000110088001900890019008900190089008E
:1053A000110028000900070011000800190028005A
:1053B0001100070011002700110007000800E70096
:1053C0000800E7001100080011002800190049003A
:1053D00011002800090028001100480011004900B0
:1053E00011004900110069001100690011006900F5
:1053F0001100690011006A0019008A0019008A0072
:105400001100AA001900AA001900AB001900CB0076
:1054100022000B002100CB002100EC0022000C0038
:105420002A006E0022000D003200CF003200D000B2
:105430003A00CF0043001000530050005B007000A2
:10544000AD00D900CE00BC00B500F900D600BC000C
:10545000CE005A00CE005A00CE005A00CE003A00CC
:10546000CE003A00CE005A00CE005A00CE003A00DC
:10547000D6009B00D6009B00BE001A008C00B40032
:105480006B00D00074003200740052008400D4001D
:10549000BE003B00B500FA0042008C000800A400EA
:1054A0001900470019002600190046000800E50011
:1054B000110026000800E500090006001100470061
:1054C000190088002100CA0032008D0053005100ED
:1054D0005300D3004B00510043000F0032008E00F8
:1054E00022006F002200D300230076002C00180059
:1054F0004C00FA0096009E00D700BF00EF007E002F
:10550000EF005D00BE005B00640096002B0073009E
:105510001100050019002600110005000800A40074
:105520000000A3000800A4000800C4000800A300B5
:105530001000C4001000C400080083001000A30085
:105540001000A300080083001000A3001000A300B7
:10555000100063001000830010008300100083001F
:105560001000A3001000A3000800C3000800A3005F
:105570001000E40011000400110025000800E500FF
:10558000090005000000A500190068004200CD00D8
:105590002100EA00110068000900270019006900D5
:1055A00019008900110028000800C6000000A600AC
:1055B0001100070011002700110007000800E70094
:1055C0000800E70011000700110028001100290061
:1055D00011002800090028000900280011004800D7
:1055E0001100490011006900110069001100490013
:1055F0001100690011006A0019008A0019008A0070
:105600001900AA001900AB001900AB001900CB006B
:105610002100CB002100CB0022000C002A002D002D
:1056200022000D002A008E003200AF003200AF00D1
:10563000430011004300100053007100530050005C
:105640005B007000BE003A00CE009C00C6005A000D
:10565000CE005A00CE005A00CE005A00CE005A00AA
:10566000CE005A00D6007B00D6007B00CE007B0027
:10567000A50016005A00ED003100C8001000E5003A
:105680001900670032004B004200CC004200ED00E0
:105690004A00CD0021008800000084001900470066
:1056A0001100060011000500110026000900050088
:1056B000110006000800E50009000600110047007F
:1056C0002100A90032006D00530050006300F30078
:1056D0006300F2004200EE0022002A001100C9001F
:1056E0001100AB0012002F001200B3001300550090
:1056F0002300F60065007800C7005D00EF009D0004
:10570000F7007C00EF009E00A6005C005C00B60085
:1057100063000C004A0029004A0049003900E800F3
:105720003900C7003100A700100083001000A3005B
:105730001000A3001000A3001000A3001000A3009D
:105740000800A3001000A3001000C3000800A3007D
:105750001000A300080083000800A3001000A300AD
:105760001000A30008008300080083000800A300C5
:105770001000C4001000C4001000E4001000E50098
:105780001000E5001000C4000800A4000800830019
:105790000800A3000800A3000800A3000800A4005C
:1057A0000800A4000800C4000800C4000800A40009
:1057B0000800C4000800A4001000E5001000E60086
:1057C0000800E60011000700190048001100280039
:1057D0000800E700110028001100490011004900ED
:1057E0001100480011004900110049001100490052
:1057F0001100690011006A0011008A001900AB0055
:1058000011008B0011008B0011008B001100AB0008
:105810002100CB002100CB0022000C002A002D002B
:105820002A006E002A008F002A00CF003200D0002C
:105830003200F0004300720043005000530091001A
:10584000530071007C007400C6007C00C6007C0020
:10585000CE005A00CE007B00CE005A00C6003A00AF
:10586000D600DC00B500F9007300D1002900C900A2
:105870000800C4000800C500110006001100260041
:10588000110006000800E6000800C5000800E50059
:105890000000C5000800E5001100260011002600E8
:1058A000110006000800E5000800E60009000600F7
:1058B0000900060009002700110088001900CA002D
:1058C0002A006C003B000E00430050004B0091008A
:1058D0004200AE00190089001100270011004700A6
:1058E000090029000900AD00120051001200F40067
:1058F0002300B5004C005500A6003A00E7009E00CA
:10590000EF007E00EF00BF00BF001F0075003900F0
:10591000420008002000E400290086003100A700B2
:105920004A00490019000400080062001000C3008A
:105930001000A3001000A3001000A3001000A3009B
:105940000800A3001000A3001000C4001000C30052
:105950001000C3000800A300080083000800A30093
:105960000800A3000800A3000800A3001000A40082
:105970000800A3000800A3000800A4001000C40051
:105980001000C4001000C4000800A4000800A40017
:105990001000C4000800C4001000C4000800C400C7
:1059A0000800E5001000E5001000E5001000E5002B
:1059B0001000E5001000C4001000C5000800C5007C
:1059C0000800A50011000700110048001100280080
:1059D0000800E700110028001100480011004900EC
:1059E00011004900190069001100690011006900E7
:1059F00011006900110069001100690011004900DF
:105A000009004900090028000900280009002900B0
:105A1000110049002100AB002A000C002A000D00F3
:105A200022002D0022004D002A008F003200CF00FE
:105A30003B003000430051004B0051005300B200C6
:105A4000530091006300B10095003700C6009D002F
:105A5000CE005A00C6003A00CE007B00C6005A00B5
:105A60006B006F0019002600080083001000E5009D
:105A7000110005001100060011002600110026008B
:105A80001100260011000600110026001100270059
:105A90001900470011002600110006001100060041
:105AA0001100060011002600190088002900E900F5
:105AB00032004B002A000A0022000A002100EA00FE
:105AC00022002B003200AD0043002F0043005000A5
:105AD0002900EB00090007000800E600110026007D
