:020000040800F2
:1000000000000120C5020008CB020008CF02000852
:1000100041030008450300088D03000800000000AC
:10002000000000000000000000000000D5030008F0
:10003000D903000800000000DD030008ED060008F9
:10004000F1030008F1030008F1030008F1030008C0
:10005000F1030008F1030008550A0008750A0008BA
:10006000950A0008B50A0008D50A0008F10300083F
:10007000F1030008F1030008F1030008F103000890
:10008000F1030008F1030008F1030008000000007C
:10009000000000000000000000000000F50A000859
:1000A000F1030008F1030008F1030008F103000860
:1000B000F1030008F1030008F1030008F103000850
:1000C000F1030008F1030008F1030008F103000840
:1000D000F1030008F1030008F1030008000000002C
:1000E000350B0008F1030008F103000800000000D0
:1000F000000000000000000000000000F103000804
:1001000000000000F1030008F1030008F1030008FB
:1001100000000000000000000000000000000000DF
:10012000F1030008F1030008F1030008F1030008DF
:10013000F1030008000000000000000000000000C3
:10014000000000000000000000000000F1030008B3
:10015000F1030008F1030008F1030008F1030008AF
:10016000F1030008F1030008000000000000000097
:10017000000000000000000000000000000000007F
:1001800000000000F1030008000000000000000073
:10019000F103000800B583B000F0BAF9384B394AD2
:1001A0001360394A1360394900E02146384B9942BF
:1001B0000BD20A684B6801F10C0488689842F4D9A4
:1001C0001168196004330432F8E72E4B1A68314B7A
:1001D0009A4200D0FEE72C4B1A682F4B9A42F9D175
:1001E000274B2E4A13602E4A13602E4B05E0002049
:1001F000106004329342FAD80B462B4A934204D241
:10020000194651F8082B5B68F4E7244B1B6813B9B7
:10021000234B1B6803B1FEE700F034FD694601A8DB
:1002200000F022F9214C224BE41AA4100025AC4224
:1002300014DC204C204BE41AA4100025AC4213DC43
:100240000099019800F020FD05461C4C1C4BE41A57
:10025000A410002C0EDC284600F0E2F8144B53F8F2
:10026000253098470135E2E7134B53F8253098477E
:100270000135E3E7013C124B53F824309847E8E797
:10028000BABADECA0000002070000020F4030008A3
:100290000C0400087856341232547698740000200A
:1002A000580100200C0400081C0400081C0400086D
:1002B0001C0400081C0400081C0400081C0400089E
:1002C0001C04000808B5FFF765FF00BEFEE71EF03E
:1002D000040F0CBFEFF30880EFF309807146414A29
:1002E00010472DE9F04182B004468846124B5E6B00
:1002F0009F6B9D6A1B6B13F0020F03D00E4BDB6AE2
:10030000002B0CDB0D4800F0B7F8CDF800803B4621
:1003100032462946204600F007F900BEFEE74BF6BC
:10032000AB6100F07BF90028ECD0034B4FF00042AA
:10033000DA6202B0BDE8F08100ED00E0E4160008EA
:1003400000BEFEE71EF0040F0CBFEFF30880EFF3D2
:1003500009807146244A10472DE9F04182B00446D5
:100360008846084B5E6B9F6B9D6A074800F084F8D7
:10037000CDF800803B4632462946204600F0D4F8AE
:1003800000BEFEE700ED00E0F41600081EF0040FCA
:100390000CBFEFF30880EFF309807146134A104752
:1003A0002DE9F04182B004468846084B5E6B9F6B96
:1003B0009D6A074800F060F8CDF800803B46324661
:1003C0002946204600F0B0F800BEFEE700ED00E050
:1003D0000017000800BEFEE700BEFEE700BEFEE715
:1003E00070470000E302000859030008A103000859
:0403F00000BEFEE766
:1003F40044B70008000000207400002044B700083F
:100404000000001000000010740000205C010020B7
:080414000000001000000010C0
:10042000FEE7000008B503460C4A12685AB10B4AB1
:100430001068033323F003030344094A934206D8A8
:10044000064A136008BD054A06491160EFE700F04F
:1004500047FC0C2303604FF0FF30F3E778000020E7
:1004600000FC00205C01002001230360014B0B60B5
:10047000704700BF040000200FB400B583B004AB88
:1004800053F8042B01938021064800F05BFC002800
:1004900003DD0146034800F037F803B05DF804EBD4
:1004A00004B07047800000202DE9F04385B0044679
:1004B0000F4643560BB10E461EE004252846214642
:1004C000ABBE0446384605B0BDE8F08314F9011B05
:1004D00004AA1A4402F8101C0133AB42F6D304AA52
:1004E0001344002203F8102C4FF00408E94640465C
:1004F0004946ABBE8046761B002EE3D03546102E13
:1005000028BF10250023E8E708B5FFF7CDFF08BD99
:1005100008B500F093F8024A024B9A6008BD00BF8C
:100520000000000800ED00E0F8B504460D4617464F
:100530001E462748FFF7A0FF21682648FFF79CFFCB
:1005400061682548FFF798FFA1682448FFF794FFEA
:10055000E1682348FFF790FF21692248FFF78CFFED
:1005600061692148FFF788FFA1692048FFF784FFF0
:10057000E1691F48FFF780FF1E48FFF77DFF29460E
:100580001D48FFF779FF1D4CE16A1D48FFF774FF16
:10059000216B1C48FFF770FFE16B1B48FFF76CFFF6
:1005A00015F0800F0AD115F4004F0CD11748FFF752
:1005B00063FF06991648FFF75FFFF8BD39461548F7
:1005C000FFF75AFFEFE731461348FFF755FFEDE716
:1005D000C8150008D8150008E8150008F815000827
:1005E0000816000818160008281600083816000813
:1005F00048160008581600086416000800ED00E0D0
:10060000741600088416000894160008C416000822
:10061000CC160008A4160008B416000883691A88CE
:100620008A4201D0002070470268033A012A03D8A9
:100630000233836101207047002070470C4B1A6819
:1006400042F001021A60002199601A6822F0847257
:1006500022F480321A60074A5A601A6822F4802213
:100660001A60D960044B4FF000629A60704700BF77
:10067000003802401030002400ED00E0064B1A68FC
:1006800022F004021A60054A054911601A6842F016
:1006900002021A60704700BF10E000E05401002021
:1006A00008AF2F00024A136843F00103136070473C
:1006B00010E000E0024A136823F001031360704762
:1006C00010E000E008B500EB4000074B5860002246
:1006D0009A60FFF7E7FF044B1B6813F4803FFAD0E2
:1006E000FFF7E8FF08BD00BF10E000E008B5084BC9
:1006F0001B6803B19847074B1B783BB1054B0022A1
:100700001A70054A136823F00103136008BD00BF87
:10071000000100200401002010E000E008B50222E2
:100720000421002000F08AF802220521002000F0B8
:1007300085F802220621002000F080F8022207211D
:10074000002000F07BF801220021084600F076F836
:10075000074A136A9BB21362136A43F0AA4343F435
:10076000AA031362034B40F247321A6008BD00BF70
:10077000000002400030014010B50446002211463E
:10078000104600F02BF9054BDC60044B9B6813F01E
:10079000800FFAD1014BD86880B210BD0030014003
:1007A0000E4B1A6842F400221A601A6822F4802262
:1007B0001A609A6842F001029A609A6822F0020276
:1007C0009A601A6822F001021A601A6842F48032B4
:1007D0001A601A6822F080721A607047003802406E
:1007E000042827D81F2925D80138032822D8DFE874
:1007F00000F0020A121A1048036C012202FA01F1F9
:100800001943016470470C48436C012202FA01F15C
:100810001943416470470848036B012202FA01F151
:100820001943016370470448436B012202FA01F146
:1008300019434163704700BF0038024010B44900BB
:10084000C9B2032A08D8DFE802F00236659401280D
:1008500013D018B102281FD010BC70475C4B186829
:10086000012202FA01F420EA040018601868114419
:100870008A4020EA02021A60EEE7564B186801220D
:1008800002FA01F420EA04001860186811448A4052
:1008900020EA02021A60DFE74F4B1868012202FAD1
:1008A00001F420EA04001860186811448A4020EA24
:1008B00002021A60D0E701281ED078B10228CBD1FD
:1008C000454B1868012202FA01F4204318601868A9
:1008D00011448A4020EA02021A60BDE73C4B1868C6
:1008E000012202FA01F420431860186811448A407A
:1008F00020EA02021A60AFE7364B1868012202FABA
:1009000001F420431860186811448A4020EA02026A
:100910001A60A1E701281ED078B102289CD12E4B85
:100920001868012202FA01F420EA0400186018682D
:1009300011448A4002431A608EE7254B1868012251
:1009400002FA01F420EA04001860186811448A4091
:1009500002431A6080E71F4B1868012202FA01F473
:1009600020EA04001860186811448A4002431A60A3
:1009700072E701281ED080B102287FF46DAF164BBC
:100980001868012202FA01F4204318601868114423
:1009900002FA01F1014319605EE70D4B186801226C
:1009A00002FA01F420431860186811448A40024397
:1009B0001A6051E7074B1868012202FA01F420433C
:1009C0001860186811448A4002431A6044E700BF67
:1009D000000002400004024000080240CAB1012A9F
:1009E00031D1012809D010B102280CD07047012361
:1009F00003FA01F1144B99617047012303FA01F1E5
:100A0000124B99617047012303FA01F1104B996170
:100A1000704701280AD010B102280ED0704710315B
:100A2000012303FA01F1084B99617047103101234A
:100A300003FA01F1054B996170471031012303FA64
:100A400001F1034B9961704700000240000402402D
:100A50000008024008B5054B1B682BB19847044AB3
:100A6000536943F00103536108BD00BF0801002032
:100A7000003C014008B5054B5B682BB19847044A20
:100A8000536943F00203536108BD00BF0801002011
:100A9000003C014008B5054B9B682BB19847044AC0
:100AA000536943F00403536108BD00BF08010020EF
:100AB000003C014008B5054BDB682BB19847044A60
:100AC000536943F00803536108BD00BF08010020CB
:100AD000003C014008B5054B1B692BB19847044AFF
:100AE000536943F01003536108BD00BF08010020A3
:100AF000003C014038B5052401E00134E4B2092C82
:100B000012D80A4B53F82420002AF6D0084B5B6910
:100B1000E34013F0010FF0D0904705494B690122E3
:100B2000A24013434B61E8E738BD00BF0801002035
:100B3000003C014038B50A2401E00134E4B20F2C36
:100B400012D80A4B53F82420002AF6D0084B5B69D0
:100B5000E34013F0010FF0D0904705494B690122A3
:100B6000A24013434B61E8E738BD00BF08010020F5
:100B7000003C014010B50446012202210020FFF78D
:100B80002DFF2046FFF7F8FD10BD10B504460022EA
:100B900002211046FFF722FF2046FFF7EDFD10BDB2
:100BA00008B5012211460020FFF718FF6420FFF767
:100BB00089FD002201211046FFF710FF0A20FFF7F0
:100BC00081FD012211460020FFF708FF6420FFF796
:100BD00079FD002201211046FFF700FF6420FFF796
:100BE00071FD012211460020FFF7F8FE0948FFF7CA
:100BF00069FD1120FFF7C9FF0748FFF763FD3A20A1
:100C0000FFF7C3FF0520FFF7B5FF2920FFF7BDFF62
:100C100008BD00BFC0D40100F049020038B5054648
:100C20002A20FFF7B2FF0020FFF7A4FF0020FFF704
:100C3000A1FF0020FFF79EFF7F20FFF79BFF2B20E7
:100C4000FFF7A3FF0020FFF795FF0020FFF792FFBB
:100C50000020FFF78FFF9F20FFF78CFF2C20FFF76E
:100C600094FF00240AE035F81400000AFFF782FF21
:100C700015F81400FFF77EFF0134A4B2B4F5A04FBD
:100C8000F1D338BD7047000008B5FFF789FDFFF7C5
:100C9000F5FC00210320FFF7A3FD0C210220FFF744
:100CA0009FFD012205210020FFF7C8FD0122072139
:100CB0000020FFF7C3FD012202210020FFF7BEFD47
:100CC000012211460020FFF7B9FDFFF727FDFFF7CE
:100CD00067FF0248FFF7A2FF002008BD10170008B9
:100CE000014B1868704700BF0C00002030B5141E7F
:100CF00005469BB0184605DA8B232B604FF0FF307A
:100D00001BB030BD4FF40273ADF80C3014BF04F1CA
:100D1000FF332346029305934FF6FF73009104912E
:100D2000ADF80E3002461E9B6946284600F072F868
:100D3000431CBCBF8B232B60002CE1D0009B002206
:100D40001A70DDE707B5009313460A4601460348CB
:100D50000068FFF7CBFF03B05DF804FB0C00002038
:100D60002DE9F0478E689E4282460C469046994691
:100D700037D88A8912F4906F31D0256809696F1AC3
:100D80006569022305EB450595FBF3F509F10103C0
:100D90003B449D4238BF1D46530530D5294600F0DF
:100DA00079FB064650B90C23CAF80030A38943F0FA
:100DB0004003A3814FF0FF30BDE8F0873A46216938
:100DC00000F0F6FAA38923F4906343F08003A38133
:100DD000266165613E44ED1B2660A5604E464E458A
:100DE00000D94E4632464146206800F0ECFAA3682E
:100DF0009B1BA36023681E4426600020DCE72A4674
:100E000000F0A2FB06460028E2D12169504600F01E
:100E1000F3FAC8E72DE9F04F9DB0804603938B8924
:100E20001D060C4616460FD50B696BB9402100F024
:100E300031FB2060206128B90C23C8F800304FF046
:100E4000FF30C7E0402363610023099320238DF81E
:100E5000293030238DF82A304FF0010B37463D46BC
:100E600015F8013B0BB1252B3ED1B7EB060A0BD091
:100E70005346324621464046FFF772FF013000F0EC
:100E8000A480099B534409933B78002B00F09D807C
:100E900000234FF0FF32CDE90523049307938DF82B
:100EA00053301A932F46052217F8011B4F4800F0C4
:100EB0002FFA049BD0B9D90644BF20228DF85320C5
:100EC0001A0744BF2B228DF853202A782A2A15D0DE
:100ED000079A2F4600200A25394611F8013B303B7E
:100EE000092B4DD9B8B10FE02F46B8E73F4A801A19
:100EF0000BFA00F0184304903D46D3E7039A111D06
:100F000012680391002A01DB079204E0524243F089
:100F10000203079204933B782E2B0CD17B782A2B6B
:100F200033D1039B1A1D1B680392002BB8BF4FF0EF
:100F3000FF33023705932E4D39780322284600F0FF
:100F4000E7F938B14023401B03FA00F0049B034348
:100F500001370493397827488DF8281006227E1C23
:100F600000F0D6F9002838D0234B13BB039B07337E
:100F700023F0070308330393099B4B4409936DE760
:100F800005FB023201200F46A6E700230137059337
:100F900019460A25384610F8012B303A092A03D998
:100FA000002BC8D00591C6E705FB012101230746A8
:100FB000F0E703AB00932246104B04A94046AFF381
:100FC0000080B0F1FF3F8146D6D1A3895B063FF593
:100FD00036AF09981DB0BDE8F08F03AB00932246F1
:100FE000064B04A9404600F081F8EAE710B7000874
:100FF00016B700081AB7000800000000610D0008CD
:101000002DE9F04791461F468A680B69DDF820807C
:101010009342B8BF1346C9F8003091F84320064602
:101020000C4612B10133C9F800302368990642BF5B
:10103000D9F800300233C9F80030256815F00605EC
:1010400007D104F1190AE368D9F800209B1AAB42D2
:1010500028DC94F843302268003318BF012392063D
:101060002DD404F1430239463046C047013020D028
:101070002368E568D9F8002003F00603042B08BFB5
:10108000AD1AA36822690CBF25EAE57500259342D5
:10109000C4BF9B1AED184FF000091A344D451AD100
:1010A000002008E00123524639463046C04701304F
:1010B00003D14FF0FF30BDE8F0870135C3E7E118F9
:1010C0005A1C302081F84300224494F8451082F8DD
:1010D00043100233C5E70123224639463046C04754
:1010E0000130E6D009F10109D8E700002DE9F0430D
:1010F00001F1430C0C46097E85B06E291746064661
:1011000098460C9A00F0B38022D8632936D00AD8CA
:10111000002900F0B980582900F0838004F14205CD
:1011200084F8421032E0642901D06929F6D12068A0
:101130001368050603F104012AD51B681160002B12
:1011400003DA2D225B4284F843206F480A2239E0FB
:10115000732900F09D8008D86F2920D07029DDD137
:10116000236843F02003236003E0752917D0782912
:10117000D4D1782384F84530644855E01368191DAC
:101180001B68116004F1420584F8423001238CE0B1
:101190001B68116010F0400F18BF1BB2CFE7136837
:1011A0002568181D1060280601D51B6802E0680636
:1011B000FBD51B8854486F2914BF0A22082200213E
:1011C00084F843106568A560002DC0F29580216801
:1011D00021F004012160002B3DD1002D40F08E80D4
:1011E0006546082A0BD12368DB0708D523696268A6
:1011F0009A42DEBF302305F8013C05F1FF35ACEB28
:1012000005032361CDF800803B4603AA2146304602
:10121000FFF7F6FE01304DD14FF0FF3005B0BDE8CD
:10122000F083394884F84510136821681D1D1B6838
:1012300015600A060BD5CA0744BF41F020012160A2
:101240001BB9226822F0200222601022B7E74D0667
:1012500048BF9BB2EFE76546B3FBF2F102FB1133E7
:10126000C35C05F8013D0B460029F5D1B9E71368C9
:1012700025686169181D106028061B6801D5196072
:1012800002E06A06FBD51980002323616546B9E7B1
:101290001368191D11601D6862680021284600F05E
:1012A00037F808B1401B606063682361002384F84D
:1012B0004330A7E723692A4639463046C047013004
:1012C000AAD023689B0713D4E068039B9842B8BF59
:1012D0001846A3E701234A4639463046C047013045
:1012E0009AD00135E368039A9B1AAB42F2DCEBE734
:1012F000002504F11909F5E7002BACD1037884F837
:10130000423004F142056CE721B7000832B700080B
:1013100001F0FF01102A2BDB10F0070F08D010F8A6
:10132000013B013A8B422DD010F0070F42B3F6D1AA
:10133000F0B441EA012141EA014122F007047FF0C3
:1013400000070023F0E80256083C85EA010586EA1A
:10135000010685FA47F5A3FA87F586FA47F6A5FA56
:1013600087F68EB9EED1F0BC01F0FF0102F0070262
:1013700032B110F8013B013A83EA010313B1F8D10D
:101380000020704701387047002D06BF35460338EE
:10139000073815F0010F07D1013015F4807F02BF27
:1013A000013015F4C03F0130F0BC0138704700BF78
:1013B00010B5431E0A44914200D110BD11F8014BF3
:1013C00003F8014FF7E7884210B501EB020307D895
:1013D000421E99420AD011F8014B02F8014FF8E77A
:1013E0008342F5D98118D21AD34200D110BD13F827
:1013F000014D01F8014DF7E738B50546002945D004
:1014000051F8043C0C1F002BB8BFE41800F0D2F8D0
:101410001F4A1368104633B9636014602846BDE85C
:10142000384000F0C8B8A3420CD921686218934232
:1014300004BF1A685B68636004BF521822600460CE
:10144000ECE713465A680AB1A242FAD9196858184B
:10145000A0420BD120680144581882421960DDD1A6
:10146000106852685A6001441960D7E702D90C230A
:101470002B60D3E7206821188A4204BF11685268A4
:10148000626004BF091821605C60C7E738BD00BF17
:101490004801002070B5CD1C25F0030508350C2D42
:1014A00038BF0C25002D064601DBA94203D90C23C9
:1014B0003360002070BD00F07DF8214A1468214699
:1014C00091B9204C23681BB9304600F063F82060C6
:1014D0002946304600F05EF8431C24D10C233360CB
:1014E000304600F068F8E4E70B685B1B18D40B2B60
:1014F0000FD90B60CD50CC18304600F05CF804F1E9
:101500000B00231D20F00700C31AD3D05A42E2502B
:10151000D0E78C424B6816BF636013600C46EBE764
:101520000C464968CCE7C41C24F00304A04205D053
:10153000211A304600F02EF80130CFD02560DBE7CD
:10154000480100204C010020F8B5074614460E461D
:1015500021B91146BDE8F840FFF79CBF22B9FFF75B
:101560004BFF25462846F8BD00F026F8A0420FD2D2
:1015700021463846FFF78EFF05460028F2D0314657
:101580002246FFF715FF31463846FFF735FFE9E7FA
:101590003546E7E738B5064C002305460846236084
:1015A000FEF740FF431C02D1236803B12B6038BD16
:1015B000500100207047704751F8043C181F002B61
:1015C000BCBF0B58C0187047537461636B206672C0
:1015D000616D653A0A000000205230203D20202530
:1015E0003038580A00000000205231203D202025CC
:1015F0003038580A00000000205232203D202025BB
:101600003038580A00000000205233203D202025A9
:101610003038580A0000000020523132203D202589
:101620003038580A00000000204C52203D20202570
:101630003038580A00000000205043203D2020256B
:101640003038580A0000000020505352203D202519
:101650003038580A000000004653522F4641523A93
:101660000A0000002043465352203D2020253038F8
:10167000580A00002048465352203D20202530388B
:10168000580A00002044465352203D20202530387F
:10169000580A00002041465352203D202025303872
:1016A000580A0000204D4D464152203D202530383B
:1016B000580A00002042464152203D202025303863
:1016C000580A00004D6973630A000000204C522F35
:1016D0004558435F52455455524E3D2025303858A9
:1016E0000A0000005B486172644661756C745D0AB3
:1016F000000000005B4275734661756C745D0A0002
:101700005B55736167654661756C745D0A00000026
:1017100000000000000000000000000000000000C9
:1017200000000000000000000000000000000000B9
:1017300000000000000000000000000000000000A9
:101740000000000000000000000000000000000099
:103780000000000000000000000001000100010036
:103790000000000000000000000000000000000029
:1037A0000000000000000000000000000000000019
:1037B0000000000000000000000000000000000009
:1037C00000000000000000000000000000000000F9
:1037D00000000000000000000000000000000000E9
:1037E00000000000000000000000000000000000D9
:1037F00000000000000000000000000000000000C9
:1038000000000000000000000000000000000000B8
:1038100000000000000000000000000000000000A8
:103820000000000000000000000000000000000098
:103830000000000000000000000000000000000088
:103840000000000000000000000000000000000078
:103850000000000000000000000000000000000068
:103860000000000000000000000000000000000058
:103870000000000000000000000000000000000048
:103880000000000000000000000000000000010037
:103890000000000000000000000000000000000028
:1038A0000000000000000000000000000000000018
:1038B0000000000000000000000000000000000008
:1038C00000000000000000000000000000000000F8
:103B80000000000001000000000000000000000034
:103B90000000000000000000000000000000000025
:103BA0000000000000000000000000000000000015
:103BB0000000000000000000000000000000000005
:103BC00000000000000000000000000000000000F5
:103BD00000000000000000000000000000000000E5
:103BE00000000000000000000000000000000000D5
:103BF00000000000000000000000000000000000C5
:103C000000000000000000000000000000000000B4
:103C100000000000000000000000000000000000A4
:103C20000000000000000000000000000000000094
:103C30000000000000000000000000000000000084
:103C40000000000000000000000000000000000074
:103C50000000000000000000000000000000000064
:103C60000000000000000000000000000000000054
:103C70000000000000000000000000000000000044
:103C80000000000000000000000000000000000034
:103C90000000000000000000000000000000000024
:103CA0000000000000000000000000000000000014
:103CB0000000000000000000000000000000000004
:103CC00000000000000000000000000000000000F4
:103CD00000000000000000000000000000000000E4
:103CE00000000000000000000000000000000000D4
:103CF00000000000000000000000000000000000C4
:103D000000000000000000000000000000000000B3
:103D100000000000000000000000000000000000A3
:103D20000000000000000000000000000000000093
:103D30000000000000000000000000000000000083
:103D40000000000000000000000000000000000073
:103D50000000000000000000000000000000000063
:103D60000000000000000000000000000000000053
:103D70000000000000000000000000000000000043
:103D800000000000000000000100220823080200DB
:103D90000000000000000000000000000000000023
:103DA0000000000000000000000000000000000013
:103DB0000000000000000000000000000000000003
:103DC00000000000000000000000000000000000F3
:103DD00000000000000000000000000000000000E3
:103DE00000000000000000000000000000000000D3
:103DF00000000000000000000000000000000000C3
:103E000000000000000000000000000000000000B2
:103E100000000000000000000000000000000000A2
:103E20000000000000000000000000000000000092
:103E30000000000000000000000000000000000082
:103E40000000000000000000000000000000000072
:103E50000000000000000000000000000000000062
:103E60000000000000000000000000000000000052
:103E70000000000000000000000000000000000042
:103E80000000200000000000030046102608050086
:103E90000000000000000000000000000000000022
:103EA0000000000000000000000000000000000012
:103EB0000000000000000000000000000000000002
:103EC00000000000000000000000000000000000F2
:103ED00000000000000000000000000000000000E2
:103EE00000000000000000000000000000000000D2
:103EF00000000000000000000000000000000000C2
:103F000000000000000000000000000000000000B1
:103F100000000000000000000000000000000000A1
:103F20000000000000000000000000000000000091
:103F30000000000000000000000000000000000081
:103F40000000000000000000000000000000000071
:103F50000000000000000000000000000000000061
:103F60000000000000000000000000000000000051
:103F7000000000000100010000000000000000003F
:103F8000000000000000010005002A102A100800AF
:103F900000002000000000000000000020000000E1
:103FA00000000000000000000000000020000000F1
:103FB0000000000000000000000000000000000001
:103FC00000000000000000000000000000000000F1
:103FD00000000000000000000000000000000000E1
:103FE00000000000000000000000000000000000D1
:103FF00000000000000000000000000000000000C1
:1040000000000000000000000000000000000000B0
:1040100000000000000000000000000000000000A0
:104020000000000000000000000000000000000090
:104030000000000000000000000000000000000080
:104040000000000000000000000000000000000070
:104050000000000000000000000000000000000060
:104060000000000000000000000000000000000050
:10407000200000000100010000000000000000001E
:10408000000000000000010007082C100D180B08AC
:1040900000000000000020002000000000000000E0
:1040A00000002000000000002100000000000000CF
:1040B0000000000000000000000000000000000000
:1040C00000000000000000000000000000000000F0
:1040D00000000000000000000000000000000000E0
:1040E00000000000000000000000000000000000D0
:1040F00000000000000000000000000000000000C0
:1041000000000000000000000000000000000000AF
:10411000000000000000000000000000000000009F
:10412000000000000000000000000000000000008F
:10413000000000000000000000000000000000007F
:10414000000000000000000000000000000000006F
:10415000000000000000000000000000000000005F
:10416000000000000000000000000000000000004F
:10417000200000000100010000000000000000001D
:10418000000000000000020029100D180E180D108C
:1041900000000000000000000000000020002000DF
:1041A00000002421010000000000000020000000A9
:1041B00000000000000000000000000000000000FF
:1041C00000000000000000000000000000000000EF
:1041D00000000000000000000000000000000000DF
:1041E00000000000000000000000000000000000CF
:1041F00000000000000000000000000000000000BF
:1042000000000000000000000000000000000000AE
:10421000000000000000000000000000000000009E
:10422000000000000000000000000000000000008E
:10423000000000000000000000000000000000007E
:10424000000000000000000000000000000000006E
:10425000000000000000000000000000000000005E
:10426000000000000000000000000000000000004E
:10427000000000000100000000000000000000003D
:1042800000000000000003004A180C100E100E1071
:1042900002000100000000000000000040000000DB
:1042A0004000D39C452901000000000000000000F0
:1042B00000000000000000000000000000000000FE
:1042C00000000000000000000000000000000000EE
:1042D00000000000000000000000000000000000DE
:1042E00000000000000000000000000000000000CE
:1042F00000000000000000000000000000000000BE
:1043000000000000000000000000000000000000AD
:10431000000000000000000000000000000000009D
:10432000000000000000000000000000000000008D
:10433000000000000000000000000000000000007D
:10434000000000000000000000000000000000006D
:10435000000000000000000000000000000000005D
:10436000000000000000000000000000000000004D
:10437000000000000000000000000000000000003D
:10438000000001000200050849180A100C102D1841
:104390002408020002000000000020000000A531F7
:1043A000484AB6B50C630000000041080000000058
:1043B00000000000000000000000000000000000FD
:1043C00000000000000000000000000000000000ED
:1043D00000000000000000000000000000000000DD
:1043E00000000000000000000000000000000000CD
:1043F00000000000000000000000000000000000BD
:1044000000000000000000000000000000000000AC
:10441000000000000000000000000000000000009C
:10442000000000000000000000000000000000008C
:10443000000000000000000000000000000000007C
:10444000000000000000000000000000000000006C
:10445000000000000000000000000000000000005C
:10446000000000000000000000000000000000004C
:10447000010000000000000000000000000000003B
:1044800000000200040026104710281009102B1805
:104490006710040002000100000040000000F29CD0
:1044A00058CEBEF7B29400004108000000000000A2
:1044B00000000000000000000000000000000000FC
:1044C00000000000000000000000000000000000EC
:1044D00000000000000000000000000000000000DC
:1044E00000000000000000000000000000000000CC
:1044F00000000000000000000000000000000000BC
:1045000000000000000000000000000000000000AB
:10451000000000000000000000000000000000009B
:10452000000000000000000000000000000000008B
:10453000000000000000000000000000000000007B
:10454000000000000000000000000000000000006B
:10455000000000000000000000000000000000005B
:10456000000000000000000000000000000000004B
:104570000200000000000000000000000000000039
:10458000000002000500481005080508050808108D
:10459000271005000400020001000000C21899D68F
:1045A000FFFFBEF796B500000000000000002000ED
:1045B00000000000000000000000000000000000FB
:1045C00000000000000000000000000000000000EB
:1045D00000000000000000000000000000000000DB
:1045E00000000000000000000000000000000000CB
:1045F00000000000000000000000000000000000BB
:1046000000000000000000000000000000000000AA
:10461000000000000000000000000000000000009A
:10462000000000000000000000000000000000008A
:10463000000000000000000000000000000000007A
:10464000000000000000000000000000000000006A
:10465000000000000000000000000000000000005A
:10466000000000000000000000000000000000004A
:104670000300000000000000000000000000000037
:10468000000003000600681804000308030005008A
:104690000808481004000300010000004C6BDEFF16
:1046A0005CEFFFFFB6B50000000000000000000056
:1046B00000000000000000000000000000000000FA
:1046C00000000000000000000000000000000000EA
:1046D00000000000000000000000000000000000DA
:1046E00000000000000000000000000000000000CA
:1046F00000000000000000000000000000000000BA
:1047000000000000000000000000000000000000A9
:104710000000000000000000000000000000000099
:104720000000000000000000000000000000000089
:104730000000000000000000000000000000000079
:104740000000000000000000000000000000000069
:104750000000000000000000000000000000000059
:104760000000000000000000000000000000000049
:104770000000000000000000000000000000000039
:1047800000000308050827100500030002080000C8
:104790000300651002000200220000001084FFFFE9
:1047A000BDF7DEFFF6BD00000000000000000000C5
:1047B00000000000000000000000000000000000F9
:1047C00000000000000000000000000000000000E9
:1047D00000000000000000000000000000000000D9
:1047E00000000000000000000000000000000000C9
:1047F00000000000000000000000000000000000B9
:1048000000000000000000000000000000000000A8
:104810000000000000000000000000000000000098
:104820000000000000000000000000000000000088
:104830000000000000000000000000000000000078
:104840000000000000000000000000000000000068
:104850000000000000000000000000000000000058
:104860000000000000000000000000000000000048
:104870000000000000000000000000000000000038
:1048800000000200261006080400E728C420B29C9D
:10489000030003002308010001000100518CFEFF0A
:1048A0003BE7FFFF13A50000000000000000000030
:1048B00000000000000000000000000000000000F8
:1048C00000000000000000000000000000000000E8
:1048D00000000000000000000000000000000000D8
:1048E00000000000000000000000000000000000C8
:1048F00000000000000000000000000000000000B8
:1049000000000000000000000000000000000000A7
:104910000000000000000000000000000000000097
:104920000000000000000000000000000000000087
:104930000000000000000000000000000000000077
:104940000000000000000000000000000000000067
:104950000000000000000000000000000000000057
:104960000000000000000000000000000000000047
:104970000000000000000000000000000000000037
:104980000000020026100500A820A6200000919437
:1049900017A503004308010021006E73D7BDFFFF78
:1049A000DEF7DEFFEB5A00002000000000000000F0
:1049B00000000000000000000000000000000000F7
:1049C00000000000000000000000000000000000E7
:1049D00000000000000000000000000000000000D7
:1049E00000000000000000000000000000000000C7
:1049F00000000000000000000000000000000000B7
:104A000000000000000000000000000000000000A6
:104A10000000000000000000000000000000000096
:104A20000000000000000000000000000000000086
:104A30000000000000000000000000000000000076
:104A40000000000000000000000000000000000066
:104A50000000000000000000000000000000000056
:104A60000000000000000000000000000000000046
:104A70000000000000000000000000000000000036
:104A8000000002000408C92087180200000061101D
:104A9000FFFF1284020002004A4ABFFFBFF71CE773
:104AA000DEFFBAD620000000000000002000000059
:104AB00000000000000000000000000000000000F6
:104AC00000000000000000000000000000000000E6
:104AD00000000000000000000000000000000000D6
:104AE00000000000000000000000000000000000C6
:104AF00000000000000000000000000000000000B6
:104B000000000000000000000000000000000000A5
:104B10000000000000000000000000000000000095
:104B20000000000000000000000000000000000085
:104B30000000000000000000000000000000000075
:104B40000000000000000000000000000000000065
:104B50000000000000000000000000000000000055
:104B60000000000000000000000000000000000045
:104B70000000000000000000000000000000000035
:104B800000000200082925080300030800000000B7
:104B90003284FFFFAC5A01005ACEFFFF7EEFFFFFC9
:104BA000FFFFE739000000000000000000000000E7
:104BB00000000000000000000000000000000000F5
:104BC00000000000000000000000000000000000E5
:104BD00000000000000000000000000000000000D5
:104BE00000000000000000000000000000000000C5
:104BF00000000000000000000000000000000000B5
:104C000000000000000000000000000000000000A4
:104C10000000000000000000000000000000000094
:104C20000000000000000000000000000000000084
:104C30000000000000000000000000000000000074
:104C40000000000000000000000000000000000064
:104C50000000000000000000000000000000000054
:104C60000000000000000000000000000000000044
:104C70000000000000000000000000000000000034
:104C800000002208C61803000300010000002008ED
:104C9000C4189FF75EEFE839FCDE9FF7FFFFBBD635
:104CA0004529000000002000000000000000200056
:104CB00000000000000000000000000000000000F4
:104CC00000000000000000000000000000000000E4
:104CD00000000000000000000000000000000000D4
:104CE00000000000000000000000000000000000C4
:104CF00000000000000000000000000000000000B4
:104D000000000000000000000000000000000000A3
:104D10000000000000000000000000000000000093
:104D20000000000000000000000000000000000083
:104D30000000000000000000000000000000000073
:104D40000000000000000000000000000000000063
:104D50000000000000000000000000000000000053
:104D60000000000000000000000000000000000043
:104D70000000000000000000000000000000000033
:104D800000004208020003000200010000000000D1
:104D900030849EF7DFFFFCDE7EF7FFFF96B58210C2
:104DA00020000000000000000000200000000000C3
:104DB00000000000000000000000000000000000F3
:104DC00000000000000000000000000000000000E3
:104DD00000000000000000000000000000000000D3
:104DE00000000000000000000000000000000000C3
:104DF00000000000000000000000000000000000B3
:104E000000000000000000000000000000000000A2
:104E10000000000000000000000000000000000092
:104E20000000000000000000000000000000000082
:104E30000000000000000000000000000000000072
:104E40000000000000000000000000000000000062
:104E50000000000000000000000000000000000052
:104E60000000000000000000000000000000000042
:104E70000000000000000000000000000000000032
:104E8000000021082208020001000000494A4008F1
:104E90002421FFFF5DEFBEF7FFFF75AD00000000AE
:104EA00000000000210000000000000020000000C1
:104EB00000000000000000000000000000000000F2
:104EC00000000000000000000000000000000000E2
:104ED00000000000000000000000000000000000D2
:104EE00000000000000000000000000000000000C2
:104EF00000000000000000000000000000000000B2
:104F000000000000000000000000000000000000A1
:104F10000000000000000000000000000000000091
:104F20000000000000000000000000000000000081
:104F30000000000000000000000000000000000071
:104F40000000000000000000000000000000000061
:104F50000000000000000000000000000000000051
:104F60000000000000000000000000000000000041
:104F70000000000000000000000000000000000031
:104F8000000000002629CD5A010035ADFFFF17C6ED
:104F900000000F84FFFFFFFF79CE0000000000003B
:104FA0000000000000000000000000000000000001
:104FB00000000000000000000000000000000000F1
:104FC00000000000000000000000000000000000E1
:104FD00000000000000000000000000000000000D1
:104FE00000000000000000000000000000000000C1
:104FF00000000000000000000000000000000000B1
:1050000000000000000000000000000000000000A0
:105010000000000000000000000000000000000090
:105020000000000000000000000000000000000080
:105030000000000000000000000000000000000070
:105040000000000000000000000000000000000060
:105050000000000000000000000000000000000050
:105060000000000000000000000000000000000040
:105070000000000000000000000000000000000030
:105080000000000046292E6BA739FFFFFFFFFFFF3E
:10509000919400009DF77DEFA210000041080000F0
:1050A0000000000000000000000000000000000000
:1050B00000000000000000000000000000000000F0
:1050C00000000000000000000000000000000000E0
:1050D00000000000000000000000000000000000D0
:1050E00000000000000000000000000000000000C0
:1050F00000000000000000000000000000000000B0
:10510000000000000000000000000000000000009F
:10511000000000000000000000000000000000008F
:10512000000000000000000000000000000000007F
:10513000000000000000000000000000000000006F
:10514000000000000000000000000000000000005F
:10515000000000000000000000000000000000004F
:10516000000000000000000000000000000000003F
:10517000000000000000000000000000000000002F
:10518000000000008B52CC5A39CEFFFFDFFF5CEFEE
:10519000FEFF0321EA5A0F84000000000000000017
:1051A00000000000000000000000000000000000FF
:1051B00000000000000000000000000000000000EF
:1051C00000000000000000000000000000000000DF
:1051D00000000000000000000000000000000000CF
:1051E00000000000000000000000000000000000BF
:1051F00000000000000000000000000000000000AF
:10520000000000000000000000000000000000009E
:10521000000000000000000000000000000000008E
:10522000000000000000000000000000000000007E
:10523000000000000000000000000000000000006E
:10524000000000000000000000000000000000005E
:10525000000000000000000000000000000000004E
:10526000000000000000000000000000000000003E
:10527000000000000000000000000000000000002E
:1052800020000000AF73EC5AFFFF7DEF8D73494A99
:10529000D29C3CE700002C632000000000000000CE
:1052A00000000000000000000000000000000000FE
:1052B00000000000000000000000000000000000EE
:1052C00000000000000000000000000000000000DE
:1052D00000000000000000000000000000000000CE
:1052E00000000000000000000000000000000000BE
:1052F00000000000000000000000000000000000AE
:10530000000000000000000000000000000000009D
:10531000000000000000000000000000000000008D
:10532000000000000000000000000000000000007D
:10533000000000000000000000000000000000006D
:10534000000000000000000000000000000000005D
:10535000000000000000000000000000000000004D
:10536000000000000000000000000000000000003D
:10537000000000000000000000000000000000002D
:105380000000C318E73918C65DEF0421EB5A34A5B5
:1053900024213CE7B294A210A210200000000000DB
:1053A00000000000000000000000000000000000FD
:1053B00000000000000000000000000000000000ED
:1053C00000000000000000000000000000000000DD
:1053D00000000000000000000000000000000000CD
:1053E00000000000000000000000000000000000BD
:1053F00000000000000000000000000000000000AD
:10540000000000000000000000000000000000009C
:10541000000000000000000000000000000000008C
:10542000000000000000000000000000000000007C
:10543000000000000000000000000000000000006C
:10544000000000000000000000000000000000005C
:10545000000000000000000000000000000000004C
:10546000000000000000000000000000000000003C
:10547000000000000000000000000000000000002C
:1054800000000000CB5AFFFF24212000210041082A
:1054900038C6AE739EF7518C410800000000200012
:1054A00000000000000000000000000000000000FC
:1054B00000000000000000000000000000000000EC
:1054C00000000000000000000000000000000000DC
:1054D00000000000000000000000000000000000CC
:1054E00000000000000000000000000000000000BC
:1054F00000000000000000000000000000000000AC
:10550000000000000000000000000000000000009B
:10551000000000000000000000000000000000008B
:10552000000000000000000000000000000000007B
:10553000000000000000000000000000000000006B
:10554000000000000000000000000000000000005B
:10555000000000000000000000000000000000004B
:10556000000000000000000000000000000000003B
:10557000000000000000000000000000000000002B
:105580000000C31838C6718C000020000000210004
:10559000A731728C8A529EF700000000410800007B
:1055A00000000000000000000000000000000000FB
:1055B00000000000000000000000000000000000EB
:1055C00000000000000000000000000000000000DB
:1055D00000000000000000000000000000000000CB
:1055E00000000000000000000000000000000000BB
:1055F00000000000000000000000000000000000AB
:10560000000000000000000000000000000000009A
:10561000000000000000000000000000000000008A
:10562000000000000000000000000000000000007A
:10563000000000000000000000000000000000006A
:10564000000000000000000000000000000000005A
:10565000000000000000000000000000000000004A
:10566000000000000000000000000000000000003A
:10567000000000000000000000000000000000002A
:1056800000002D63DFFFA2100000000020000000DA
:1056900000000C633084494AC31800000000000079
:1056A00000000000000000000000000000000000FA
:1056B00000000000000000000000000000000000EA
:1056C00000000000000000000000000000000000DA
:1056D00000000000000000000000000000000000CA
:1056E00000000000000000000000000000000000BA
:1056F00000000000000000000000000000000000AA
:105700000000000000000000000000000000000099
:105710000000000000000000000000000000000089
:105720000000000000000000000000000000000079
:105730000000000000000000000000000000000069
:105740000000000000000000000000000000000059
:105750000000000000000000000000000000000049
:105760000000000000000000000000000000000039
:105770002000000000000000000000000000000009
:10578000000055AD14A5000000002000000000003E
:1057900000000000EF7B75AD3084000000000000C9
:1057A00000000000000000000000000000000000F9
:1057B00000000000000000000000000000000000E9
:1057C00000000000000000000000000000000000D9
:1057D00000000000000000000000000000000000C9
:1057E00000000000000000000000000000000000B9
:1057F00000000000000000000000000000000000A9
:105800000000000000000000000000000000000098
:105810000000000000000000000000000000000088
:105820000000000000000000000000000000000078
:105830000000000000000000000000000000000068
:105840000000000000000000000000000000000058
:105850000000000000000000000000000000000048
:105860000000000000000000000000000000000038
:105870000000000020000000000000000000000008
:10588000C3188E73410800002000000000002000B3
:1058900000002000410855AD0C63610800000000C5
:1058A00000000000000000000000000000000000F8
:1058B00000000000000000000000000000000000E8
:1058C00000000000000000000000000000000000D8
:1058D00000000000000000000000000000000000C8
:1058E00000000000000000000000000000000000B8
:1058F00000000000000000000000000000000000A8
:105900000000000000000000000000000000000097
:105910000000000000000000000000000000000087
:105920000000000000000000000000000000000077
:105930000000000000000000000000000000000067
:105940000000000000000000000000000000000057
:105950000000000000000000000000000000000047
:105960000000000000000000000000000000000037
:105970000000000000000000000041080000410895
:105980002C63C73900002000000000004108863168
:10599000C318000000002842518CD39C0000200056
:1059A00000000000000000000000000000000000F7
:1059B00000000000000000000000000000000000E7
:1059C00000000000000000000000000000000000D7
:1059D00000000000000000000000000000000000C7
:1059E00000000000000000000000000000000000B7
:1059F00000000000000000000000000000000000A7
:105A00000000000000000000000000000000000096
:105A10000000000000000000000000000000000086
:105A20000000000000000000000000000000000076
:105A30000000000000000000000000000000000066
:105A40000000000000000000000000000000000056
:105A50000000000000000000000000000000000046
:105A60000000000000000000000000000000000036
:105A70000000000000000000000000000000694A73
:105A8000FBDE000000000000410800000000452986
:105A90002000000020000000718CDBDE41080000C7
:105AA00000000000000000000000000000000000F6
:105AB00000000000000000000000000000000000E6
:105AC00000000000000000000000000000000000D6
:105AD00000000000000000000000000000000000C6
:105AE00000000000000000000000000000000000B6
:105AF00000000000000000000000000000000000A6
:105B00000000000000000000000000000000000095
:105B10000000000000000000000000000000000085
:105B20000000000000000000000000000000000075
:105B30000000000000000000000000000000000065
:105B40000000000000000000000000000000000055
:105B50000000000000000000000000000000000045
:105B60000000000000000000000000000000000035
:105B70000000000000002000000000000000CB5AE0
:105B80008E730000200000000000200000000000D4
:105B900000002000000000006D6BCF7BC318EB5AA3
:105BA00000000000000000000000000000000000F5
:105BB00000000000000000000000000000000000E5
:105BC00000000000000000000000000000000000D5
:105BD00000000000000000000000000000000000C5
:105BE00000000000000000000000000000000000B5
:105BF00000000000000000000000000000000000A5
:105C00000000000000000000000000000000000094
:105C10000000000000000000000000000000000084
:105C20000000000000000000000000000000000074
:105C30000000000000000000000000000000000064
:105C40000000000000000000000000000000000054
:105C50000000000000000000000000000000000044
:105C60000000000000000000000000000000000034
:105C70000000000000000000000000000000A6314D
:105C800000000000000041080000000000000000CB
:105C90000000000020000000494A2C63694A718C12
:105CA00000000000000000000000000000000000F4
:105CB00000000000000000000000000000000000E4
:105CC00000000000000000000000000000000000D4
:105CD00000000000000000000000000000000000C4
:105CE00000000000000000000000000000000000B4
:105CF00000000000000000000000000000000000A4
:105D00000000000000000000000000000000000093
:105D10000000000000000000000000000000000083
:105D20000000000000000000000000000000000073
:105D30000000000000000000000000000000000063
:105D40000000000000000000000000000000000053
:105D50000000000000000000000000000000000043
:105D60000000000000000000000000000000000033
:105D700000002000000000000000000061088631E3
:105D80000000000000000000000000000000000013
:105D900000000000000000004529929414A5694A03
:105DA0008210410800000000000000000000000018
:105DB00000000000000000000000000000000000E3
:105DC00000000000000000000000000000000000D3
:105DD00000000000000000000000000000000000C3
:105DE00000000000000000000000000000000000B3
:105DF00000000000000000000000000000000000A3
:105E00000000000000000000000000000000000092
:105E10000000000000000000000000000000000082
:105E20000000000000000000000000000000000072
:105E30000000000000000000000000000000000062
:105E40000000000000000000000000000000000052
:105E50000000000000000000000000000000000042
:105E60000000000000000000000000000000000032
:105E70000000000000000000200000000000000002
:105E800000002000000000000000200000000000D2
:105E9000000020000000200082100842518CCB5AE4
:105EA0004529C31841080000000000000000000060
:105EB00000000000000000000000000000000000E2
:105EC00000000000000000000000000000000000D2
:105ED00000000000000000000000000000000000C2
:105EE00000000000000000000000000000000000B2
:105EF00000000000000000000000000000000000A2
:105F00000000000000000000000000000000000091
:105F10000000000000000000000000000000000081
:105F20000000000000000000000000000000000071
:105F30000000000000000000000000000000000061
:105F40000000000000000000000000000000000051
:105F50000000000000000000000000000000000041
:105F60000000000000000000000000000000000031
:105F70000000000000000000200000000000000001
:105F800000000000000000000000000020000000F1
:105F9000000020000000000000000C630C6355AD01
:105FA000494A494A000000000000200000000000AB
:105FB00000000000000000000000000000000000E1
:105FC00000000000000000000000000000000000D1
:105FD00000000000000000000000000000000000C1
:105FE00000000000000000000000000000000000B1
:105FF00000000000000000000000000000000000A1
:106000000000000000000000000000000000000090
:106010000000000000000000000000000000000080
:106020000000000000000000000000000000000070
:106030000000000000000000000000000000000060
:106040000000000000000000000000000000000050
:106050000000000000000000000000000000000040
:106060000000000000000000000000000000000030
:1060700000002000000000000000000020000000E0
:1060800020000000000000000000410800000000A7
:1060900000000000000020000000694AA631694AA3
:1060A00096B5CF7B0000000000000000000000005B
:1060B00000000000000000000000000000000000E0
:1060C00000000000000000000000000000000000D0
:1060D00000000000000000000000000000000000C0
:1060E00000000000000000000000000000000000B0
:1060F00000000000000000000000000000000000A0
:10610000000000000000000000000000000000008F
:10611000000000000000000000000000000000007F
:10612000000000000000000000000000000000006F
:10613000000000000000000000000000000000005F
:10614000000000000000000000000000000000004F
:10615000000000000000000000000000000000003F
:10616000000000000000000000000000000000002F
:1061700000000000000000000000200000000000FF
:1061800000000000000000000000200000002000CF
:1061900000000000200045290000084208420421B8
:1061A0003CE7D39C0000000020000000000000003D
:1061B00000000000000000000000000000000000DF
:1061C00000000000000000000000000000000000CF
:1061D00000000000000000000000000000000000BF
:1061E00000000000000000000000000000000000AF
:1061F000000000000000000000000000000000009F
:10620000000000000000000000000000000000008E
:10621000000000000000000000000000000000007E
:10622000000000000000000000000000000000006E
:10623000000000000000000000000000000000005E
:10624000000000000000000000000000000000004E
:10625000000000000000000000000000000000003E
:10626000000000000000000000000000000000002E
:1062700000000000000000000000200000002000DE
:1062800000000000000000000000000020000000EE
:106290000000821075AD14A56108A2100842042107
:1062A0007DEF96B520000000000000000000000017
:1062B00000000000000000000000000000000000DE
:1062C00000000000000000000000000000000000CE
:1062D00000000000000000000000000000000000BE
:1062E00000000000000000000000000000000000AE
:1062F000000000000000000000000000000000009E
:10630000000000000000000000000000000000008D
:10631000000000000000000000000000000000007D
:10632000000000000000000000000000000000006D
:10633000000000000000000000000000000000005D
:10634000000000000000000000000000000000004D
:10635000000000000000000000000000000000003D
:10636000000000000000000000000000000000002D
:10637000000000000000610824210000000000006F
:10638000000000000000000000000000000000000D
:1063900000006529B29434A50C6300002842242132
:1063A000FFFFD39C00000000000000004108000037
:1063B00000000000000000000000000000000000DD
:1063C00000000000000000000000000000000000CD
:1063D00000000000000000000000000000000000BD
:1063E00000000000000000000000000000000000AD
:1063F000000000000000000000000000000000009D
:10640000000000000000000000000000000000008C
:10641000000000000000000000000000000000007C
:10642000000000000000000000000000000000006C
:10643000000000000000000000000000000000005C
:10644000000000000000000000000000000000004C
:10645000000000000000000000000000000000003C
:10646000000000000000000000000000000000002C
:10647000000000006529C739EF7B000000006108BB
:106480000000000000000000000000002000C31811
:1064900000004529EF7B8A529294E31886318631B9
:1064A000FFFFB6B5E739AA52E3180000000000006C
:1064B00000000000000000000000000000000000DC
:1064C00000000000000000000000000000000000CC
:1064D00000000000000000000000000000000000BC
:1064E00000000000000000000000000000000000AC
:1064F000000000000000000000000000000000009C
:10650000000000000000000000000000000000008B
:10651000000000000000000000000000000000007B
:10652000000000000000000000000000000000006B
:10653000000000000000000000000000000000005B
:10654000000000000000000000000000000000004B
:10655000000000000000000000000000000000003B
:10656000000000000000000000000000000000002B
:10657000E318A631EB5A8E7338C6410865290842E4
:10658000200000000000000000000000C73965295D
:1065900000002000E739EB5A8A5208426529AA52C6
:1065A000BEF7DFFFFFFFBEF7718C000000000000A8
:1065B00000000000000000000000000000000000DB
:1065C00000000000000000000000000000000000CB
:1065D00000000000000000000000000000000000BB
:1065E00000000000000000000000000000000000AB
:1065F000000000000000000000000000000000009B
:10660000000000000000000000000000000000008A
:10661000000000000000000000000000000000007A
:10662000000000000000000000000000000000006A
:10663000000000000000000000000000000000005A
:10664000000000000000000000000000000000004A
:10665000000000000000000000000000000000003A
:10666000000000000000000000000000000000002A
:1066700065296D6B494A9294FFFF8210EB5AE73906
:1066800004212000000000002000000010842421CC
:106690000000E73920002000A210494A55ADCF7B09
:1066A0009AD6FFFFFFFFFFFFE73900000000000060
:1066B00000000000000000000000000000000000DA
:1066C00000000000000000000000000000000000CA
:1066D00000000000000000000000000000000000BA
:1066E00000000000000000000000000000000000AA
:1066F000000000000000000000000000000000009A
:106700000000000000000000000000000000000089
:106710000000000000000000000000000000000079
:106720000000000000000000000000000000000069
:106730000000000000000000000000000000000059
:106740000000000000000000000000000000000049
:106750000000000000000000000000000000000039
:1067600000002000000000000000000041080000C0
:1067700024219294284218C6FFFF2421F39CC73994
:10678000E7392000000000000000410859CE6108F0
:106790000000AE736108200000008A52DFFFE73975
:1067A000D39CFFFFFFFFFBDE0000000000000000A5
:1067B00000000000000000000000000000000000D9
:1067C00000000000000000000000000000000000C9
:1067D00000000000000000000000000000000000B9
:1067E00000000000000000000000000000000000A9
:1067F0000000000000000000000000000000000099
:106800000000000000000000000000000000000088
:106810000000000000000000000000000000000078
:106820000000000000000000000000000000000068
:106830000000000000000000000000000000000058
:106840000000000000000000000000000000000048
:106850000000000000000000000000000000000038
:10686000200000000000000041080000000020009F
:10687000C31879CECB5A5DEFDFFF284259CE86315F
:10688000494A000000000000000028425DEF20009F
:10689000000055AD10844529CF7BEB5ADBDE3084F8
:1068A0003084FFFFFFFF518C00000000000020003B
:1068B00000000000000000000000000000000000D8
:1068C00000000000000000000000000000000000C8
:1068D00000000000000000000000000000000000B8
:1068E00000000000000000000000000000000000A8
:1068F0000000000000000000000000000000000098
:106900000000000000000000000000000000000087
:106910000000000000000000000000000000000077
:106920000000000000000000000000000000000067
:106930000000000000000000000000000000000057
:106940000000000000000000000000000000000047
:106950000000000000000000000000000000000037
:1069600000000000000020000000000041080000BE
:106970006108BEF71084FFFFFFFF0C6338C6284292
:106980008A52C318610820000000518C3CE70000C7
:10699000084255AD2842D39C0C63A6319EF74D6B3F
:1069A000B6B5DFFFFFFF4529000020000000000012
:1069B00000000000000000000000000000000000D7
:1069C00000000000000000000000000000000000C7
:1069D00000000000000000000000000000000000B7
:1069E00000000000000000000000000000000000A7
:1069F0000000000000000000000000000000000097
:106A00000000000000000000000000000000000086
:106A10000000000000000000000000000000000076
:106A20000000000000000000000000000000000066
:106A30000000000000000000000000000000000056
:106A40000000000000000000000000000000000046
:106A50000000000000000000000000000000000036
:106A60000000000000000000000000000000000026
:106A70000000DFFF9AD69EF7FFFF1084D7BD2C637E
:106A8000694A2C63C318A631000059CE18C66108A4
:106A90004D6B18C620008A528A52AE73BEF73084FE
:106AA000DBDEFFFF3CE70000A210821020000000A8
:106AB00000000000000000000000000000000000D6
:106AC00000000000000000000000000000000000C6
:106AD00000000000000000000000000000000000B6
:106AE00000000000000000000000000000000000A6
:106AF0000000000000000000000000000000000096
:106B00000000000000000000000000000000000085
:106B10000000000000000000000000000000000075
:106B20000000000000000000000000000000000065
:106B30000000000000000000000000000000000055
:106B40000000000000000000000000000000000045
:106B50000000000000000000000000000000000035
:106B6000000000000000000000000000C739000025
:106B70000000BAD6FFFFBEF7FFFF108455AD30848A
:106B8000AA5296B5A2108E736108BEF755ADE739CB
:106B9000F39CF7BD000075AD4D6B55AD1CE7518CF6
:106BA000FFFFFFFFD39C000059CE452900002000C5
:106BB00000000000000000000000000000000000D5
:106BC00000000000000000000000000000000000C5
:106BD00000000000000000000000000000000000B5
:106BE00000000000000000000000000000000000A5
:106BF0000000000000000000000000000000000095
:106C00000000000000000000000000000000000084
:106C10000000000000000000000000000000000074
:106C20000000000000000000000000000000000064
:106C30000000000000000000000000000000000054
:106C40000000000000000000000000000000000044
:106C50000000000000000000000000000000000034
:106C6000000000000000000000000000F39C28422B
:106C70000000B6B5FFFFFFFFFFFFCF7B308414A5F8
:106C8000EF7BBAD6E318D39CE318FFFF55AD4D6BED
:106C9000F7BDB29461087DEF8E731CE7BAD696B546
:106CA000FFFFFFFF518C34A55DEF000000000000E6
:106CB00000000000000000000000000000000000D4
:106CC00000000000000000000000000000000000C4
:106CD00000000000000000000000000000000000B4
:106CE00000000000000000000000000000000000A4
:106CF0000000000000000000000000000000000094
:106D00000000000000000000000000000000000083
:106D10000000000000000000000000000000000073
:106D20000000000000000000000000000000000063
:106D30000000000000000000000000000000000053
:106D40000000000000000000000000000000000043
:106D50000000000000000000000000000000000033
:106D6000000000002000000020000000CF7B79CE52
:106D7000000034A5FFFFFFFFFFFFF39C8E7318C6D2
:106D8000F39CDBDE284255ADE739FFFFB6B5B29480
:106D90009AD62C63EB5A9EF73084FFFF59CED7BDAD
:106DA000FFFFFFFFDFFFFFFF308420000000000037
:106DB00000000000000000000000000000000000D3
:106DC00000000000000000000000000000000000C3
:106DD00000000000000000000000000000000000B3
:106DE00000000000000000000000000000000000A3
:106DF0000000000000000000000000000000000093
:106E00000000000000000000000000000000000082
:106E10000000000000000000000000000000000072
:106E20000000000000000000000000000000000062
:106E30000000000000000000000000000000000052
:106E40000000000000000000000000000000000042
:106E50000000000000000000000000000000000032
:106E6000000000000000000000000000E739FFFF04
:106E700061088E73DFFFFFFFFFFFD7BD2C633CE788
:106E800014A59AD68E7375AD0C63FFFF59CEF7BD6E
:106E9000BAD6084238C696B5D39CDFFF96B575AD15
:106EA000FFFFFFFFDFFFFFFFA63100002000000013
:106EB00000000000000000000000000000000000D2
:106EC00000000000000000000000000000000000C2
:106ED00000000000000000000000000000000000B2
:106EE00000000000000000000000000000000000A2
:106EF0000000000000000000000000000000000092
:106F00000000000000000000000000000000000081
:106F10000000000000000000000000000000000071
:106F20000000000000000000000000000000000061
:106F30000000000000000000000000000000000051
:106F40000000000000000000000000000000000041
:106F50000000000000000000000000000000000031
:106F60002000000000000000000000004108D7BD24
:106F700018C66D6BFFFFDFFFFFFF18C6E739BEF7CE
:106F800075AD38C6F39C96B5CF7BFFFFDBDE7DEF9A
:106F9000D7BD494AFFFFEB5AD7BDFFFF718C75ADD6
:106FA000FFFFFFFFFFFFBEF728422421610800001A
:106FB00000000000000000000000000000000000D1
:106FC00000000000000000000000000000000000C1
:106FD00000000000000000000000000000000000B1
:106FE00000000000000000000000000000000000A1
:106FF0000000000000000000000000000000000091
:107000000000000000000000000000000000000080
:107010000000000000000000000000000000000070
:107020000000000000000000000000000000000060
:107030000000000000000000000000000000000050
:107040000000000000000000000000000000000040
:107050000000000000000000000000000000000030
:107060000000000000000000000000000000E73900
:107070009EF77DEFBEF7FFFFFFFF79CE24217DEF66
:1070800096B5D7BDD7BD18C6F39CDBDE3CE7FFFF46
:10709000518C2C63FFFFE3187DEFDFFF6D6B34A590
:1070A000BEF7DFFFFFFFDFFFFFFFFFFF5DEFB294E3
:1070B0000000000020002000000000000000000090
:1070C00000000000000000000000000000000000C0
:1070D00000000000000000000000000000000000B0
:1070E00000000000000000000000000000000000A0
:1070F0000000000000000000000000000000000090
:10710000000000000000000000000000000000007F
:10711000000000000000000000000000000000006F
:10712000000000000000000000000000000000005F
:10713000000000000000000000000000000000004F
:10714000000000000000000000000000000000003F
:10715000000000000000000000000000000000002F
:1071600000000000000000000000000041080421B1
:10717000EB5ADFFFFFFFDFFFFFFF3CE7A210BAD6AD
:10718000F7BD14A51CE718C6B6B534A59EF7FFFFDA
:107190002842F39C96B50421FFFFFFFFAA5275AD6C
:1071A0007DEFFFFFFFFFFFFFFFFFFFFFFFFF718C82
:1071B00000000000000000000000000000000000CF
:1071C00000000000000000000000000000000000BF
:1071D00000000000000000000000000000000000AF
:1071E000000000000000000000000000000000009F
:1071F000000000000000000000000000000000008F
:10720000000000000000000000000000000000007E
:10721000000000000000000000000000000000006E
:10722000000000000000000000000000000000005E
:10723000000000000000000000000000000000004E
:10724000000000000000000000000000000000003E
:10725000000000000000000000000000000000002E
:107260000000000000000000200000000000284294
:1072700000009AD6FFFFFFFFFFFF3CE74108308484
:10728000FBDEEF7BFFFFBAD659CEAE73DFFFBEF752
:107290006108DBDE8631494A9EF7FFFF242134A5D1
:1072A000DFFFFFFFDFFFDFFFFFFFFFFF7DEF084294
:1072B00020000000000000000000000000000000AE
:1072C00000000000000000000000000000000000BE
:1072D00000000000000000000000000000000000AE
:1072E000000000000000000000000000000000009E
:1072F000000000000000000000000000000000008E
:10730000000000000000000000000000000000007D
:10731000000000000000000000000000000000006D
:10732000000000000000000000000000000000005D
:10733000000000000000000000000000000000004D
:10734000000000000000000000000000000000003D
:10735000000000000000000000000000000000002D
:1073600000000000000000000000200000000842B3
:10737000A210A631FFFFDFFFFFFFFBDE6529A21091
:10738000BAD62C63BEF7BEF7FBDE2842FFFF79CEEC
:10739000410818C60000EB5A18C638C6E318B6B53F
:1073A000FFFFFFFF59CE4D6BE7392842EB5A8210A1
:1073B00000000000000020000000000000000000AD
:1073C00000000000000000000000000000000000BD
:1073D00000000000000000000000000000000000AD
:1073E000000000000000000000000000000000009D
:1073F000000000000000000000000000000000008D
:10740000000000000000000000000000000000007C
:10741000000000000000000000000000000000006C
:10742000000000000000000000000000000000005C
:10743000000000000000000000000000000000004C
:10744000000000000000000000000000000000003C
:10745000000000000000000000000000000000002C
:107460000000000000000000000020002000E318E1
:107470002842200055ADFFFFFFFF59CE65290000CF
:10748000B2942C6359CEBEF79AD6E318DFFF9294DC
:107490006108AA520000E739B6B5718C821096B522
:1074A000DFFF518C0000000000000000CB5A0000FC
:1074B00020000000000000000000000000000000AC
:1074C00000000000000000000000000000000000BC
:1074D00000000000000000000000000000000000AC
:1074E000000000000000000000000000000000009C
:1074F000000000000000000000000000000000008C
:10750000000000000000000000000000000000007B
:10751000000000000000000000000000000000006B
:10752000000000000000000000000000000000005B
:10753000000000000000000000000000000000004B
:10754000000000000000000000000000000000003B
:10755000000000000000000000000000000000002B
:1075600000000000000020000000000000000000FB
:10757000694A0000C318FFFF9AD638C60000000011
:1075800008422C63D39C3CE779CE41083CE7EB5A98
:10759000000000006108C318B6B528428210DBDE87
:1075A000B6B50000610800000000452986312C6353
:1075B000E318610800000000000000000000000067
:1075C00000000000000000000000000000000000BB
:1075D00000000000000000000000000000000000AB
:1075E000000000000000000000000000000000009B
:1075F000000000000000000000000000000000008B
:10760000000000000000000000000000000000007A
:10761000000000000000000000000000000000006A
:10762000000000000000000000000000000000005A
:10763000000000000000000000000000000000004A
:10764000000000000000000000000000000000003A
:10765000000000000000000000000000000000002A
:1076600000000000000000002000000000000000FA
:107670000842C3180000B294D7BDCF7B6529000033
:107680006108AA528E73DBDEDBDE0000D7BD084244
:1076900096B5C3180421C318F39C6108A63118C617
:1076A000200020000000200000008631694A1CE70D
:1076B0004108000000000000000000000000000081
:1076C00000000000000000000000000000000000BA
:1076D00000000000000000000000000000000000AA
:1076E000000000000000000000000000000000009A
:1076F000000000000000000000000000000000008A
:107700000000000000000000000000000000000079
:107710000000000000000000000000000000000069
:107720000000000000000000000000000000000059
:107730000000000000000000000000000000000049
:107740000000000000000000000000000000000039
:107750000000000000000000000000000000000029
:1077600000000000200000000000000000000000F9
:1077700045298A520000821059CEC739694A000053
:1077800000006529CB5AB6B518C600000C631CE78B
:1077900014A5000061082000694A2000CB5A6D6BD7
:1077A00000000000200000000000494A75AD718C07
:1077B00000000000000000000000000000000000C9
:1077C00000000000000000000000000000000000B9
:1077D00000000000000000000000000000000000A9
:1077E0000000000000000000000000000000000099
:1077F0000000000000000000000000000000000089
:107800000000000000000000000000000000000078
:107810000000000000000000000000000000000068
:107820000000000000000000000000000000000058
:107830000000000000000000000000000000000048
:107840000000000000000000000000000000000038
:107850000000000000000000000000000000000028
:1078600000000000000000002000000000000000F8
:107870000000EF7B61080000A631C31828422000F9
:10788000000024210421718CB6B50000EF7BFFFFBE
:107890000000000000002000000000002C63C3185E
:1078A0000000000000002000C739929414A5242194
:1078B00000000000000000000000000000000000C8
:1078C00000000000000000000000000000000000B8
:1078D00000000000000000000000000000000000A8
:1078E0000000000000000000000000000000000098
:1078F0000000000000000000000000000000000088
:107900000000000000000000000000000000000077
:107910000000000000000000000000000000000067
:107920000000000000000000000000000000000057
:107930000000000000000000000000000000000047
:107940000000000000000000000000000000000037
:107950000000000000000000000000000000000027
:107960000000000000000000000000008210E3188A
:1079700020008E73E739000000000000AA52610861
:10798000000000004108AA52518C8210FFFF6D6B6D
:1079900000000000000000004108610828420000CB
:1079A0000000000020000000452938C610840000B7
:1079B00000000000000000000000000000000000C7
:1079C00000000000000000000000000000000000B7
:1079D00000000000000000000000000000000000A7
:1079E0000000000000000000000000000000000097
:1079F0000000000000000000000000000000000087
:107A00000000000000000000000000000000000076
:107A10000000000000000000000000000000000066
:107A20000000000000000000000000000000000056
:107A30000000000000000000000000000000000046
:107A40000000000000000000000000000000000036
:107A50000000000000000000000000000000000026
:107A60000000200000000000000000006108518CB0
:107A70008210E318EF7B2000000000000842652917
:107A800000000000000008428E73B294BAD60000D5
:107A9000000000000000000000002842C3180000A1
:107AA0000000000000002000518C929400000000B3
:107AB00000000000000000000000000000000000C6
:107AC00000000000000000000000000000000000B6
:107AD00000000000000000000000000000000000A6
:107AE0000000000000000000000000000000000096
:107AF0000000000000000000000000000000000086
:107B00000000000000000000000000000000000075
:107B10000000000000000000000000000000000065
:107B20000000000000000000000000000000000055
:107B30000000000000000000000000000000000045
:107B40000000000000000000000000000000000035
:107B50000000000000000000000000000000000025
:107B600000000000000000000000200000000842AB
:107B70002C634529929465290000000004218A5253
:107B8000000000000000A210518C3CE7AA52000047
:107B900000000000200000000000C31800000000EA
:107BA000000041080000000059CE04210000000040
:107BB00000000000000000000000000000000000C5
:107BC00000000000000000000000000000000000B5
:107BD00000000000000000000000000000000000A5
:107BE0000000000000000000000000000000000095
:107BF0000000000000000000000000000000000085
:107C00000000000000000000000000000000000074
:107C10000000000000000000000000000000000064
:107C20000000000000000000000000000000000054
:107C30000000000000000000000000000000000044
:107C40000000000000000000000000000000000034
:107C50000000000000000000000000000000000024
:107C60000000200000000000200000000000652946
:107C7000694A8A52B294A6312000000000000C63C9
:107C800041082000000020008E73F7BD6529000028
:107C9000000000000000000000000000000041089B
:107CA0000000000000002000042196B545290000D6
:107CB00000000000000000000000000000000000C4
:107CC00000000000000000000000000000000000B4
:107CD00000000000000000000000000000000000A4
:107CE0000000000000000000000000000000000094
:107CF0000000000000000000000000000000000084
:107D00000000000000000000000000000000000073
:107D10000000000000000000000000000000000063
:107D20000000000000000000000000000000000053
:107D30000000000000000000000000000000000043
:107D40000000000000000000000000000000000033
:107D50000000000000000000000000000000000023
:107D600000000000000000000000000041080000CA
:107D70002C63200020000000000041080000863134
:107D8000E31800002000000010841084E3180000B5
:107D900000002000000000000000200000000000A3
:107DA00000004108000000000000242175AD200003
:107DB00000000000000000000000000000000000C3
