:020000040800F2
:1000000000000120C5020008CB020008CF02000852
:1000100041030008450300088D03000800000000AC
:10002000000000000000000000000000D5030008F0
:10003000D903000800000000DD030008ED060008F9
:10004000F1030008F1030008F1030008F1030008C0
:10005000F1030008F1030008550A0008750A0008BA
:10006000950A0008B50A0008D50A0008F10300083F
:10007000F1030008F1030008F1030008F103000890
:10008000F1030008F1030008F1030008000000007C
:10009000000000000000000000000000F50A000859
:1000A000F1030008F1030008F1030008F103000860
:1000B000F1030008F1030008F1030008F103000850
:1000C000F1030008F1030008F1030008F103000840
:1000D000F1030008F1030008F1030008000000002C
:1000E000350B0008F1030008F103000800000000D0
:1000F000000000000000000000000000F103000804
:1001000000000000F1030008F1030008F1030008FB
:1001100000000000000000000000000000000000DF
:10012000F1030008F1030008F1030008F1030008DF
:10013000F1030008000000000000000000000000C3
:10014000000000000000000000000000F1030008B3
:10015000F1030008F1030008F1030008F1030008AF
:10016000F1030008F1030008000000000000000097
:10017000000000000000000000000000000000007F
:1001800000000000F1030008000000000000000073
:10019000F103000800B583B000F0BAF9384B394AD2
:1001A0001360394A1360394900E02146384B9942BF
:1001B0000BD20A684B6801F10C0488689842F4D9A4
:1001C0001168196004330432F8E72E4B1A68314B7A
:1001D0009A4200D0FEE72C4B1A682F4B9A42F9D175
:1001E000274B2E4A13602E4A13602E4B05E0002049
:1001F000106004329342FAD80B462B4A934204D241
:10020000194651F8082B5B68F4E7244B1B6813B9B7
:10021000234B1B6803B1FEE700F034FD694601A8DB
:1002200000F022F9214C224BE41AA4100025AC4224
:1002300014DC204C204BE41AA4100025AC4213DC43
:100240000099019800F020FD05461C4C1C4BE41A57
:10025000A410002C0EDC284600F0E2F8144B53F8F2
:10026000253098470135E2E7134B53F8253098477E
:100270000135E3E7013C124B53F824309847E8E797
:10028000BABADECA0000002070000020F4030008A3
:100290000C0400087856341232547698740000200A
:1002A000580100200C0400081C0400081C0400086D
:1002B0001C0400081C0400081C0400081C0400089E
:1002C0001C04000808B5FFF765FF00BEFEE71EF03E
:1002D000040F0CBFEFF30880EFF309807146414A29
:1002E00010472DE9F04182B004468846124B5E6B00
:1002F0009F6B9D6A1B6B13F0020F03D00E4BDB6AE2
:10030000002B0CDB0D4800F0B7F8CDF800803B4621
:1003100032462946204600F007F900BEFEE74BF6BC
:10032000AB6100F07BF90028ECD0034B4FF00042AA
:10033000DA6202B0BDE8F08100ED00E0D4160008FA
:1003400000BEFEE71EF0040F0CBFEFF30880EFF3D2
:1003500009807146244A10472DE9F04182B00446D5
:100360008846084B5E6B9F6B9D6A074800F084F8D7
:10037000CDF800803B4632462946204600F0D4F8AE
:1003800000BEFEE700ED00E0E41600081EF0040FDA
:100390000CBFEFF30880EFF309807146134A104752
:1003A0002DE9F04182B004468846084B5E6B9F6B96
:1003B0009D6A074800F060F8CDF800803B46324661
:1003C0002946204600F0B0F800BEFEE700ED00E050
:1003D000F016000800BEFEE700BEFEE700BEFEE726
:1003E00070470000E302000859030008A103000859
:0403F00000BEFEE766
:1003F40034B70008000000207400002034B700085F
:100404000000001000000010740000205C010020B7
:080414000000001000000010C0
:10042000FEE7000008B503460C4A12685AB10B4AB1
:100430001068033323F003030344094A934206D8A8
:10044000064A136008BD054A06491160EFE700F04F
:100450003DFC0C2303604FF0FF30F3E778000020F1
:1004600000FC00205C01002001230360014B0B60B5
:10047000704700BF040000200FB400B583B004AB88
:1004800053F8042B01938021064800F051FC00280A
:1004900003DD0146034800F037F803B05DF804EBD4
:1004A00004B07047800000202DE9F04385B0044679
:1004B0000F4643560BB10E461EE004252846214642
:1004C000ABBE0446384605B0BDE8F08314F9011B05
:1004D00004AA1A4402F8101C0133AB42F6D304AA52
:1004E0001344002203F8102C4FF00408E94640465C
:1004F0004946ABBE8046761B002EE3D03546102E13
:1005000028BF10250023E8E708B5FFF7CDFF08BD99
:1005100008B500F093F8024A024B9A6008BD00BF8C
:100520000000000800ED00E0F8B504460D4617464F
:100530001E462748FFF7A0FF21682648FFF79CFFCB
:1005400061682548FFF798FFA1682448FFF794FFEA
:10055000E1682348FFF790FF21692248FFF78CFFED
:1005600061692148FFF788FFA1692048FFF784FFF0
:10057000E1691F48FFF780FF1E48FFF77DFF29460E
:100580001D48FFF779FF1D4CE16A1D48FFF774FF16
:10059000216B1C48FFF770FFE16B1B48FFF76CFFF6
:1005A00015F0800F0AD115F4004F0CD11748FFF752
:1005B00063FF06991648FFF75FFFF8BD39461548F7
:1005C000FFF75AFFEFE731461348FFF755FFEDE716
:1005D000B8150008C8150008D8150008E815000867
:1005E000F815000808160008181600082816000854
:1005F00038160008481600085416000800ED00E000
:10060000641600087416000884160008B416000862
:10061000BC16000894160008A416000883691A88FE
:100620008A4201D0002070470268033A012A03D8A9
:100630000233836101207047002070470C4B1A6819
:1006400042F001021A60002199601A6822F0847257
:1006500022F480321A60074A5A601A6822F4802213
:100660001A60D960044B4FF000629A60704700BF77
:10067000003802401030002400ED00E0064B1A68FC
:1006800022F004021A60054A054911601A6842F016
:1006900002021A60704700BF10E000E05401002021
:1006A00008AF2F00024A136843F00103136070473C
:1006B00010E000E0024A136823F001031360704762
:1006C00010E000E008B500EB4000074B5860002246
:1006D0009A60FFF7E7FF044B1B6813F4803FFAD0E2
:1006E000FFF7E8FF08BD00BF10E000E008B5084BC9
:1006F0001B6803B19847074B1B783BB1054B0022A1
:100700001A70054A136823F00103136008BD00BF87
:10071000000100200401002010E000E008B50222E2
:100720000421002000F08AF802220521002000F0B8
:1007300085F802220621002000F080F8022207211D
:10074000002000F07BF801220021084600F076F836
:10075000074A136A9BB21362136A43F0AA4343F435
:10076000AA031362034B40F247321A6008BD00BF70
:10077000000002400030014010B50446002211463E
:10078000104600F02BF9054BDC60044B9B6813F01E
:10079000800FFAD1014BD86880B210BD0030014003
:1007A0000E4B1A6842F400221A601A6822F4802262
:1007B0001A609A6842F001029A609A6822F0020276
:1007C0009A601A6822F001021A601A6842F48032B4
:1007D0001A601A6822F080721A607047003802406E
:1007E000042827D81F2925D80138032822D8DFE874
:1007F00000F0020A121A1048036C012202FA01F1F9
:100800001943016470470C48436C012202FA01F15C
:100810001943416470470848036B012202FA01F151
:100820001943016370470448436B012202FA01F146
:1008300019434163704700BF0038024010B44900BB
:10084000C9B2032A08D8DFE802F00236659401280D
:1008500013D018B102281FD010BC70475C4B186829
:10086000012202FA01F420EA040018601868114419
:100870008A4020EA02021A60EEE7564B186801220D
:1008800002FA01F420EA04001860186811448A4052
:1008900020EA02021A60DFE74F4B1868012202FAD1
:1008A00001F420EA04001860186811448A4020EA24
:1008B00002021A60D0E701281ED078B10228CBD1FD
:1008C000454B1868012202FA01F4204318601868A9
:1008D00011448A4020EA02021A60BDE73C4B1868C6
:1008E000012202FA01F420431860186811448A407A
:1008F00020EA02021A60AFE7364B1868012202FABA
:1009000001F420431860186811448A4020EA02026A
:100910001A60A1E701281ED078B102289CD12E4B85
:100920001868012202FA01F420EA0400186018682D
:1009300011448A4002431A608EE7254B1868012251
:1009400002FA01F420EA04001860186811448A4091
:1009500002431A6080E71F4B1868012202FA01F473
:1009600020EA04001860186811448A4002431A60A3
:1009700072E701281ED080B102287FF46DAF164BBC
:100980001868012202FA01F4204318601868114423
:1009900002FA01F1014319605EE70D4B186801226C
:1009A00002FA01F420431860186811448A40024397
:1009B0001A6051E7074B1868012202FA01F420433C
:1009C0001860186811448A4002431A6044E700BF67
:1009D000000002400004024000080240CAB1012A9F
:1009E00031D1012809D010B102280CD07047012361
:1009F00003FA01F1144B99617047012303FA01F1E5
:100A0000124B99617047012303FA01F1104B996170
:100A1000704701280AD010B102280ED0704710315B
:100A2000012303FA01F1084B99617047103101234A
:100A300003FA01F1054B996170471031012303FA64
:100A400001F1034B9961704700000240000402402D
:100A50000008024008B5054B1B682BB19847044AB3
:100A6000536943F00103536108BD00BF0801002032
:100A7000003C014008B5054B5B682BB19847044A20
:100A8000536943F00203536108BD00BF0801002011
:100A9000003C014008B5054B9B682BB19847044AC0
:100AA000536943F00403536108BD00BF08010020EF
:100AB000003C014008B5054BDB682BB19847044A60
:100AC000536943F00803536108BD00BF08010020CB
:100AD000003C014008B5054B1B692BB19847044AFF
:100AE000536943F01003536108BD00BF08010020A3
:100AF000003C014038B5052401E00134E4B2092C82
:100B000012D80A4B53F82420002AF6D0084B5B6910
:100B1000E34013F0010FF0D0904705494B690122E3
:100B2000A24013434B61E8E738BD00BF0801002035
:100B3000003C014038B50A2401E00134E4B20F2C36
:100B400012D80A4B53F82420002AF6D0084B5B69D0
:100B5000E34013F0010FF0D0904705494B690122A3
:100B6000A24013434B61E8E738BD00BF08010020F5
:100B7000003C014010B50446012202210020FFF78D
:100B80002DFF2046FFF7F8FD10BD10B504460022EA
:100B900002211046FFF722FF2046FFF7EDFD10BDB2
:100BA00008B5012211460020FFF718FF6420FFF767
:100BB00089FD002201211046FFF710FF0A20FFF7F0
:100BC00081FD012211460020FFF708FF6420FFF796
:100BD00079FD002201211046FFF700FF6420FFF796
:100BE00071FD012211460020FFF7F8FE0948FFF7CA
:100BF00069FD1120FFF7C9FF0748FFF763FD3A20A1
:100C0000FFF7C3FF0520FFF7B5FF2920FFF7BDFF62
:100C100008BD00BFC0D40100F049020038B5054648
:100C20002A20FFF7B2FF0020FFF7A4FF0020FFF704
:100C3000A1FF0020FFF79EFF7F20FFF79BFF2B20E7
:100C4000FFF7A3FF0020FFF795FF0020FFF792FFBB
:100C50000020FFF78FFF9F20FFF78CFF2C20FFF76E
:100C600094FF00240AE035F81400000AFFF782FF21
:100C700015F81400FFF77EFF0134A4B2B4F5A04FBD
:100C8000F1D338BD7047000008B5FFF789FDFFF7C5
:100C9000F5FC00210320FFF7A3FD0C210220FFF744
:100CA0009FFD012202210020FFF7C8FD012211460D
:100CB0000020FFF7C3FDFFF731FDFFF771FF02488A
:100CC000FFF7ACFF002008BD00170008014B1868B3
:100CD000704700BF0C00002030B5141E05469BB0C5
:100CE000184605DA8B232B604FF0FF301BB030BD68
:100CF0004FF40273ADF80C3014BF04F1FF332346F8
:100D0000029305934FF6FF7300910491ADF80E30F6
:100D100002461E9B6946284600F072F8431CBCBF81
:100D20008B232B60002CE1D0009B00221A70DDE7A2
:100D300007B5009313460A46014603480068FFF7CB
:100D4000CBFF03B05DF804FB0C0000202DE9F04759
:100D50008E689E4282460C469046994637D88A89CC
:100D600012F4906F31D0256809696F1A6569022302
:100D700005EB450595FBF3F509F101033B449D4265
:100D800038BF1D46530530D5294600F07BFB06468B
:100D900050B90C23CAF80030A38943F04003A38163
:100DA0004FF0FF30BDE8F0873A46216900F0F8FACD
:100DB000A38923F4906343F08003A38126616561D6
:100DC0003E44ED1B2660A5604E464E4500D94E467A
:100DD00032464146206800F0EEFAA3689B1BA360F0
:100DE00023681E4426600020DCE72A4600F0A4FBAE
:100DF00006460028E2D12169504600F0F5FAC8E71E
:100E00002DE9F04F9DB0804603938B891D060C465B
:100E100016460FD50B696BB9402100F033FB2060FB
:100E2000206128B90C23C8F800304FF0FF30C7E02C
:100E3000402363610023099320238DF82930302358
:100E40008DF82A304FF0010B37463D4615F8013B2F
:100E50000BB1252B3ED1B7EB060A0BD053463246D9
:100E600021464046FFF772FF013000F0A480099B45
:100E7000534409933B78002B00F09D8000234FF0F2
:100E8000FF32CDE90523049307938DF853301A936D
:100E90002F46052217F8011B4F4800F031FA049B3A
:100EA000D0B9D90644BF20228DF853201A0744BF79
:100EB0002B228DF853202A782A2A15D0079A2F46FC
:100EC00000200A25394611F8013B303B092B4DD94A
:100ED000B8B10FE02F46B8E73F4A801A0BFA00F08E
:100EE000184304903D46D3E7039A111D12680391FD
:100EF000002A01DB079204E0524243F0020307920A
:100F000004933B782E2B0CD17B782A2B33D1039B77
:100F10001A1D1B680392002BB8BF4FF0FF33023736
:100F200005932E4D39780322284600F0E9F938B1AF
:100F30004023401B03FA00F0049B03430137049352
:100F4000397827488DF8281006227E1C00F0D8F941
:100F5000002838D0234B13BB039B073323F0070330
:100F600008330393099B4B4409936DE705FB023259
:100F700001200F46A6E700230137059319460A25ED
:100F8000384610F8012B303A092A03D9002BC8D073
:100F90000591C6E705FB012101230746F0E703ABF6
:100FA00000932246104B04A94046AFF30080B0F1F5
:100FB000FF3F8146D6D1A3895B063FF536AF09983E
:100FC0001DB0BDE8F08F03AB00932246064B04A989
:100FD000404600F081F8EAE700B7000806B70008CD
:100FE0000AB70008000000004D0D00082DE9F04789
:100FF00091461F468A680B69DDF820809342B8BF8E
:101000001346C9F8003091F8432006460C4612B149
:101010000133C9F800302368990642BFD9F800307F
:101020000233C9F80030256815F0060507D104F130
:10103000190AE368D9F800209B1AAB4228DC94F81F
:1010400043302268003318BF012392062DD404F1E7
:10105000430239463046C047013020D02368E56856
:10106000D9F8002003F00603042B08BFAD1AA368CB
:1010700022690CBF25EAE57500259342C4BF9B1A7F
:10108000ED184FF000091A344D451AD1002008E040
:101090000123524639463046C047013003D14FF054
:1010A000FF30BDE8F0870135C3E7E1185A1C302056
:1010B00081F84300224494F8451082F8431002332B
:1010C000C5E70123224639463046C0470130E6D005
:1010D00009F10109D8E700002DE9F04301F1430CC3
:1010E0000C46097E85B06E291746064698460C9A2E
:1010F00000F0B38022D8632936D00AD8002900F046
:10110000B980582900F0838004F1420584F8421028
:1011100032E0642901D06929F6D1206813680506F8
:1011200003F104012AD51B681160002B03DA2D227C
:101130005B4284F843206F480A2239E0732900F0AB
:101140009D8008D86F2920D07029DDD1236843F015
:101150002003236003E0752917D07829D4D17823A0
:1011600084F84530644855E01368191D1B68116008
:1011700004F1420584F8423001238CE01B681160C1
:1011800010F0400F18BF1BB2CFE713682568181D79
:101190001060280601D51B6802E06806FBD51B8895
:1011A00054486F2914BF0A220822002184F84310F2
:1011B0006568A560002DC0F29580216821F00401CA
:1011C0002160002B3DD1002D40F08E806546082A1D
:1011D0000BD12368DB0708D5236962689A42DEBF1A
:1011E000302305F8013C05F1FF35ACEB0503236125
:1011F000CDF800803B4603AA21463046FFF7F6FEB5
:1012000001304DD14FF0FF3005B0BDE8F0833948D3
:1012100084F84510136821681D1D1B6815600A06B7
:101220000BD5CA0744BF41F0200121601BB92268D9
:1012300022F0200222601022B7E74D0648BF9BB281
:10124000EFE76546B3FBF2F102FB1133C35C05F82F
:10125000013D0B460029F5D1B9E71368256861699E
:10126000181D106028061B6801D5196002E06A0687
:10127000FBD51980002323616546B9E71368191D62
:1012800011601D6862680021284600F039F808B135
:10129000401B606063682361002384F84330A7E744
:1012A00023692A4639463046C0470130AAD0236810
:1012B0009B0713D4E068039B9842B8BF1846A3E786
:1012C00001234A4639463046C04701309AD001359D
:1012D000E368039A9B1AAB42F2DCEBE7002504F1CA
:1012E0001909F5E7002BACD1037884F8423004F1FA
:1012F00042056CE711B7000822B7000800000000A3
:1013000001F0FF01102A2BDB10F0070F08D010F8B6
:10131000013B013A8B422DD010F0070F42B3F6D1BA
:10132000F0B441EA012141EA014122F007047FF0D3
:1013300000070023F0E80256083C85EA010586EA2A
:10134000010685FA47F5A3FA87F586FA47F6A5FA66
:1013500087F68EB9EED1F0BC01F0FF0102F0070272
:1013600032B110F8013B013A83EA010313B1F8D11D
:101370000020704701387047002D06BF35460338FE
:10138000073815F0010F07D1013015F4807F02BF37
:10139000013015F4C03F0130F0BC0138704700BF88
:1013A00010B5431E0A44914200D110BD11F8014B03
:1013B00003F8014FF7E7884210B501EB020307D8A5
:1013C000421E99420AD011F8014B02F8014FF8E78A
:1013D0008342F5D98118D21AD34200D110BD13F837
:1013E000014D01F8014DF7E738B50546002945D014
:1013F00051F8043C0C1F002BB8BFE41800F0D2F8E1
:101400001F4A1368104633B9636014602846BDE86C
:10141000384000F0C8B8A3420CD921686218934242
:1014200004BF1A685B68636004BF521822600460DE
:10143000ECE713465A680AB1A242FAD9196858185B
:10144000A0420BD120680144581882421960DDD1B6
:10145000106852685A6001441960D7E702D90C231A
:101460002B60D3E7206821188A4204BF11685268B4
:10147000626004BF091821605C60C7E738BD00BF27
:101480004801002070B5CD1C25F0030508350C2D52
:1014900038BF0C25002D064601DBA94203D90C23D9
:1014A0003360002070BD00F07DF8214A14682146A9
:1014B00091B9204C23681BB9304600F063F82060D6
:1014C0002946304600F05EF8431C24D10C233360DB
:1014D000304600F068F8E4E70B685B1B18D40B2B70
:1014E0000FD90B60CD50CC18304600F05CF804F1F9
:1014F0000B00231D20F00700C31AD3D05A42E2503C
:10150000D0E78C424B6816BF636013600C46EBE774
:101510000C464968CCE7C41C24F00304A04205D063
:10152000211A304600F02EF80130CFD02560DBE7DD
:10153000480100204C010020F8B5074614460E462D
:1015400021B91146BDE8F840FFF79CBF22B9FFF76B
:101550004BFF25462846F8BD00F026F8A0420FD2E2
:1015600021463846FFF78EFF05460028F2D0314667
:101570002246FFF715FF31463846FFF735FFE9E70A
:101580003546E7E738B5064C002305460846236094
:10159000FEF748FF431C02D1236803B12B6038BD1E
:1015A000500100207047704751F8043C181F002B71
:1015B000BCBF0B58C0187047537461636B206672D0
:1015C000616D653A0A000000205230203D20202540
:1015D0003038580A00000000205231203D202025DC
:1015E0003038580A00000000205232203D202025CB
:1015F0003038580A00000000205233203D202025BA
:101600003038580A0000000020523132203D202599
:101610003038580A00000000204C52203D20202580
:101620003038580A00000000205043203D2020257B
:101630003038580A0000000020505352203D202529
:101640003038580A000000004653522F4641523AA3
:101650000A0000002043465352203D202025303808
:10166000580A00002048465352203D20202530389B
:10167000580A00002044465352203D20202530388F
:10168000580A00002041465352203D202025303882
:10169000580A0000204D4D464152203D202530384B
:1016A000580A00002042464152203D202025303873
:1016B000580A00004D6973630A000000204C522F45
:1016C0004558435F52455455524E3D2025303858B9
:1016D0000A0000005B486172644661756C745D0AC3
:1016E000000000005B4275734661756C745D0A0012
:1016F0005B55736167654661756C745D0A00000037
:10170000470127012709E708C710081908192719F1
:1017100027110922D474B464B564D664B65C975CAE
:1017200075747474946CB56CD56CF664166D36650E
:10173000586D78759975B97DDA851A867B8EBC9659
:1017400079BEDBC63DD79EE7BFE7BFE7BFE7BFE790
:101750009FE71DDFDCD6FCDEFCD6BBD61CDF9EEF90
:101760009DFF7CFF7DFF9EFF7EFF7FF7BFF7DFEFD2
:10177000DFEF7EEF5EE73EE7DDCEFEC63FBF3FAF69
:10178000FDC6FDC6FDC61ECF5ED77FDFBFE7DFEF1C
:10179000BFEFBFE79FE77FE75FDF5FDF5FE77FE7E1
:1017A0007FF79FF79FF7BFF7BFF7BFEF5DDFFBCE78
:1017B000DBC6BBBE9BB65BAE3BAE3BA61BA61BA669
:1017C0001AA6F99DD8A5D8A5D7ADB7B5B7B5B7B501
:1017D00098AD99AD715B3043513B2C0AB333922BDA
:1017E000D32BD333B23B2F3B0E43937C19BE7AC627
:1017F0005AC67AC67BC67BC67ACE5ACE5AD67AD617
:10180000461926112711280929098B098B098B01F3
:101810008B014D1AD664F66CF66CF66CF66C176D8F
:10182000176D376D376D576D576D776D9875987566
:10183000B97DDA8D1A965BA67CAE9CAEBCB6DCB6E2
:101840001CDF5DE79EEFBFF7BFF7BFF7BFF7BFF73E
:101850009FEF5EE79FEF7EEF5DE7BFF7BFF79EEF7D
:101860009EEFFFFFDFF7BFE7BFE77FDF3ED75FDF1A
:101870001DCF5ED7DCC67BBEDDBEDDB69CA6FEAE50
:10188000DCBEDCB6BCB6BCB6DCBEFDC63DCF5ECFB2
:101890003ECF3ECF3ECF1ECF1ECF1ECF3ED73FD72F
:1018A0003EDF7FE79FEFDFEFDFF7DFEF9EE75DDFF4
:1018B0001CCFFCCEDCC6BCBE9CB67CAE3BA61BA639
:1018C0001AA6FAA5F9A5F8ADD8ADD7ADB7ADB8B59C
:1018D000B8B5FAB5D68CCF4271436E1ACF1AF43B25
:1018E000B233712BB243B574989D39BE7ACE39C6E6
:1018F0005AC65AC67BC67BC67ACE5ACE5AD67AD636
:101900004719471189118A09AC012F0A700AB10AD7
:10191000D20AB00A56449A75FA85987D767DB785C5
:10192000FA75FA75FA7519763A7E3A863A8E5A96AB
:101930005A9E7BAEBCBE1DCF5EDF7FE77EEF7EEFA3
:101940007EF79EFFBFFFBFFF9FF77EF79FF7BFF7B2
:10195000DFFF9EF79EEFDFF7BFF77EEFBFF7DFF702
:10196000DFDFFFDF7FC79C9EFA855C96DEAEDEB6CA
:10197000BDB63AA6399E9BA69AA67A9E7BA67BA662
:101980005A9E5A9E7AA67AA67AA67AA67AAE7BAE96
:101990009BAEBBAEBBB6BCB6DCB6DCB6FDBEFDBE18
:1019A000FDCE3ED77FDF9FE7BFEFDFEFBFEF9EEFBC
:1019B0007EE75EE75EDF3ED71DCFFDC6BCBE7BB6D1
:1019C0003AB61AAE19AE19AEF9ADF8ADD8ADB8AD9C
:1019D000B8ADD9B5D9AD54743043EF2A4D12D33BCD
:1019E000523B966C9A953BB65BC61AC619C619C689
:1019F0003AC63AC65BC65BC65AC65ACE5ACE7AD6E5
:101A00002C022C026D126E128F1AF1223223531BFC
:101A1000B423B31B342CD64C986D5A969BA659A66A
:101A20007C967C969C9E9B9E9B9EBBA6BBAEDCBE82
:101A30001DCF3DD75EE79FF7BFFFBFFFBFFFBEFFD4
:101A4000BFF7BFF7BFF77EEF5EE75DE75EE77EE7D4
:101A50005DDF7EE75EDF7EDF9FDF9FDFBFDF5ED77C
:101A6000BFC77D96D754553C5534F42BD433965488
:101A7000BA857C9E9CA61996F88D1996199E19A672
:101A80005A9E5A9E5A9E399E399E399E399E399E3B
:101A9000399E599E5A9E7AA67BA69BA6BCAEBCAE2A
:101AA000DCB6FCBE1DC75ED79FE7DFEFDFF7BFF7F1
:101AB000DFF7BFF7BFEFBFEF9FE77EDF3DD71DCF5B
:101AC0009BC67BBE5AB63AAE1AAE1AA6F9ADD9ADD0
:101AD000D9B598ADF9B5F9ADD2630F3B4D1A713355
:101AE000724BBB9D9DBE3BBEFAC5D9C519CE19CE62
:101AF00019CE3AC65AC65AC65AC65ACE5ACE5ACE27
:101B000051037113D32B344C9664387D9985B98574
:101B10009875F975D86DF975198EDCB65ED71CCF3E
:101B20001EDF1EDF3EDF3EDF3DD73DDF7EE79EE767
:101B30007EEF9EEFBFF7BFF7BFF79EF79EEF7EEFFA
:101B4000BFDF9FDF7ED73ECF1DCF1DC7FCC6FCBECB
:101B50009BAE7AA6DCB6BBAEDCAE1EBF9CA6DDB6E5
:101B6000F85C732B73231634B523741B331BB0122C
:101B70008E120F337464B89539A619A6D89D979D17
:101B8000D895D895F995F99DF99DF99D199E199EBD
:101B9000F99D199E199E1A9E3A9E3AA65BA65BA6CF
:101BA0009BAE9BAEBCB6FDBE5ED79FE7BFEFDFF737
:101BB000DFF7BFF7BFF7BFF7DFF7BFEF9EEF9EE797
:101BC0001DDFFDD6BCC67CB65BAE3BA61BAE1AAE17
:101BD000F9B5D8B5D8B5F9B5779DB15B4C22CE2A09
:101BE000925BBBA53CBEDABD1ACE1ACE19D619CE71
:101BF00019CE1AC63AC65AC65AC65AC65ACE5ACE6E
:101C0000353CF85C5D961FBF5FD79FE77FE77EDFBF
:101C10007ED79FD77ED7DFDFBFE75EE79EF79FFFC8
:101C20005EFF7EFF7FFF9EFF7EFF9EF79EF7BEF763
:101C3000BEF7DFF7DFF7BFEF9EDF5ED73DCF3DCFCB
:101C40003EB71EB7DDAEDCAEBCA6BCA69BA67B9E97
:101C5000B8857B9E5B967C9EFA8D3B963C96913B2D
:101C6000D01A1223F222911A500A9112B11A8F122D
:101C70004D12CB114C320E536F63B48CF8B5B7A52F
:101C8000989DB89DD8A5D8A5B8A5B89DB89DB89D74
:101C9000D8A5D9A5D9A5D9A5D9A5F9A5FAA51AA6D2
:101CA0003A9E5AA67BAE9BB6BCBEFDC65ED77FDF12
:101CB0007FE77FE79EE79FEFBFF7BFF7BFF7BFF76D
:101CC000BFF79FEF5EDFFDC69CB65CAE3BAE3BAEA2
:101CD000F9AD19B6B7ADF8B51AB6168DCE3A0B1ADE
:101CE0007153FBA57CBE1ABE3ACEF9CDF9CD19CE03
:101CF00019CE1AC63AC63AC65AC65AC65ACE5ACE8D
:101D00009EC6FFD6BFEFBFEF7FEF7EEF9EF7BFF718
:101D10007EF79FF77FF77FF77FF77FF79FFF5EF7ED
:101D20009FF79FF7BFF7DFF7DFF7FFF7DFEFDFE79B
:101D3000BEE79EDF7ED73EC7FDB6BCA67B9E5B9608
:101D40005B963B963B8E3A8E3A963A961A961A8E48
:101D5000F98DFA8D1B96DA8D5D9E597D8E22ED11DF
:101D60006F1A2E1A2F1A50222F1A0E1A0E120D1237
:101D70002D225474DAB5D9BD959C4F734E6B728485
:101D800098A598AD98AD98AD98A578A598AD98AD63
:101D900098A598A598A598A598A5B9A5B9A5B9A5F8
:101DA000F9A51AA61AA63AA65AAE7BAEBBB6DCBEF9
:101DB0001DCF1DCF3DD75EE77EEF9EF79FF7BFFF9C
:101DC000BFFFDFF79FEF5ED7DDC69CB67CAE5BAE94
:101DD00019AE19B6B8AD39BEF9AD1AAE747C2B2A5E
:101DE000CD32D99D9CBE19B63AC639C639CE19C670
:101DF00039C639C63AC63AC63AC63AC63ACE3ACED5
:101E00005FF75FF77FFF7EF75EEF7EF77EEF5EE7BF
:101E10009FEF7FE79FE79FE79FDFFECEDEC6DEC630
:101E20001EB71EB71EB75EBF9FC79FC75EBF1DB759
:101E3000FCB6BCAE9BA65B9E3B963B8E1B86FB8591
:101E4000DA8DD985B985D985B88DB88DB88D988D3D
:101E5000D99558859995DB9DD35B8B19AC190E22CA
:101E6000ED190D22CC19AC190D22CC21AB194D3234
:101E7000589D1BBE1AC6B9BD1ACE1ACE36AD1284F5
:101E80004F6BF17BD49477ADD9B5D9B5B8B597ADD3
:101E900077AD77AD98AD98AD98A598A598A598A57C
:101EA000D9A5B9A5D9A5F9A53AA65AA67BAE7BAE08
:101EB000BCB6DCBEFCCE1DD73DDF5EE75EEF7EF735
:101EC0009EF7BFF7BFF75EDFFDCEBDBE9CB67CB60A
:101ED0003AAE5AB6F9ADF9ADF9ADF9AD3AB60E5321
:101EE0002A1A778D7BB65AB65AC619BE39C639C674
:101EF00039C639C63AC63AC63AC63AC63ACE3ACED4
:101F00007EF75DEF7EF79FF73EE7FDD6BCC6BCB619
:101F1000BCAE9C9E7B8E3B7EFB759A653A5D1955E7
:101F2000394DD744384D184D9644585DBE963B8E7A
:101F30003A8E1A8EF98DFA8DD98D9985BA85597D8B
:101F4000577D77857785367D568557853685778D9C
:101F5000778D9995F684AE4229116A19AC218B19B7
:101F6000CC19AB11EC19EB19EB19AA19EB3158A5E7
:101F7000FABDF9BDF9BDF9BDF9BDF9BD3AC65BCEF3
:101F8000D8B5159D117C8F6BB073738C369DB8AD31
:101F9000F9B5F9B5B8AD97A5B8A5B8A5B8A598A5F0
:101FA00098A5B8ADB9A5D9A5F9A51AA63AA65AA675
:101FB0007BAE9BB6DCBEFDCE1DCF1DDF5EE79FEF87
:101FC000BFF7BFF7BFF77EE73DDFFDCEBCBE9CBECF
:101FD0007BB65BAE1AAE1AAE1AB61AB6D9ADB8ADAC
:101FE000E919526CDCBE5AB639BE39C639C639C693
:101FF00039C639C63AC63AC63AC63AC63ACE3ACED3
:102000009DEFBEEFBFEF5FD7BDB65C9EFB85DB7576
:10201000795D384DF73CD734972C5724171C171C83
:10202000F61BD61BB51B951B952373237A65FC8580
:10203000BA7DB98D988577853785378537855785FA
:10204000367DF57C157D778D568535855685D47C16
:10205000536CAC32891968118A19AA198A19AB19FB
:10206000AC11EC19AB09EB11EA19EA2977A53AC6CC
:10207000D8C5F8C518BE39BE39BE19BE19BEF9C5D6
:1020800019BE5AC69BCE39BE76A5938CD0738E638B
:10209000F073B38CB7A519B6B8A597A5D8A5F8ADB8
:1020A000D9B598A598A5D9ADF9ADF9A5F9A51AA600
:1020B0003AA65BAE9BB6BCBEDCC61DCF5ED7BFE703
:1020C000BFF7BFF7BFF77EEF3DE71CD7DCCEBCC63E
:1020D0009CB69CB67CAE5BAE3BB63AB63ABE3ABE58
:1020E000116C0D4B7BBE5ABE3AC65ACE19C63ACEBB
:1020F00019C639C63AC63AC63AC63AC63AC63ACEFA
:10210000DFF7BFEF5ECF5C9E9A6D1A55D93C582C15
:102110001724D61B941B53133313120B120B120BE1
:10212000D30AD312920A920AB2120F02B443BB8DA1
:102130009A8D167D1685568D1585368D16851685D4
:102140003685F67C3685736C0E3BCC32ED3A4A22EE
:10215000470127018809A9118911AA118A118A1139
:10216000CC09CC09EC11CA116809D5845AC6D8BD6E
:1021700018C618C618BE18BE19BE19BE19BEF9BDBC
:1021800039C619BE19BE39BE7AC67ACE5AC639BE0C
:10219000159D72848F631174569D19B6D8ADB8A57C
:1021A000B8ADB8ADB8ADB8A598A5B8A5F9ADF9ADBD
:1021B000FAA51AAE5BAE7BB6BCB6FDBE5ECFBFD78E
:1021C000BFEFDFF7BFF79EEF5DEF5DE71DDFFCCEF2
:1021D000BCBEBCBE9CB67CB65BB63AB63ABE5AC66E
:1021E0001AB6AC4AB8AD5BCE1AC61ACE1ACE1ACE03
:1021F00019CE19C619C63AC63AC63AC63AC63AC63A
:102200001ECFBDB6DA85B754162CF61BB613340BA9
:10221000F30AB21250122F120E1A0E120D120D12D4
:102220000E0A0F12EE110F12EE09CD110D1AD7740E
:10223000588D168D358D148DF48C7695358DD4840E
:10224000D67C388DF363EA19A9190B226809270196
:1022500089098909CA11AA11AA11AA11AB11CB11B6
:102260008B01CC09CB114909747C3BBE39BE19BE28
:1022700018C618C6F8C5F8C519C619C63AC63ABE72
:1022800039C639C639C639C659C639C639C619BE5E
:102290007ACE7ACE19BEB38C6F63117476A519B657
:1022A000B8A5F8ADD8ADB8ADD9ADD9AD98A598A5BC
:1022B000D9ADFAAD3AAE5BAE9BAEDCB63EBF7FC7E2
:1022C000BFE7DFEFDFF7BFF79EF79EEF5EE73DD793
:1022D0001DCFDCC6BCB69CB69CB67BB63AB63ABE41
:1022E0009CD6538C74947CD6DAC51ACE1ACE1ACEEC
:1022F0001ACE1AC61AC63AC63AC63AC63AC63AC636
:10230000195D974CF433521BF112F10AB00A2E02F8
:10231000ED09CC098B116A116A116B116A116A11EE
:10232000AA09AA09AB09CB118B09CB1169092F4B5B
:10233000368D358D358DF484348DF484F484368D6A
:10234000188DB263CB21CB21AA21E7000809280907
:102350006A1149116A116A118A118A116A118A1166
:10236000CC118A092911926BFBBD5BC6B8B519BEA9
:10237000F8BD18C619CE19CE19CE19CE19C639BE58
:10238000F9C519C63ACE39C619C619C639CE5ACEBC
:102390005ACE19C639C6BCD619C632844E63117CD2
:1023A000D8ADD8ADB8ADB8AD97ADB8ADD9B5D9B594
:1023B000D9ADF9AD19AE3AAE5BAE7BAEDCB6FDBEC3
:1023C0005ED79FDFBFEFBFEFBFF7DFF7BFF79EE737
:1023D0007EDF3DD7DCC6DCC6DCC6BCBE9BBE7BBE9A
:1023E0005BC63BC6F27BFABD1AC63BCEDAC51ACE37
:1023F0001AC619C61AC63AC63AC63AC63AC63AC63E
:102400007413320BD00A6E0A0C0ACB11AA1189116F
:102410008811881168094809690969116A116A11E6
:10242000A811A9118809A911CA11AA11CA110A2251
:10243000368515851485558D14851585568D15851C
:10244000104B6919CB214911860029112911291135
:1024500009096A198A19491149116A194911291179
:1024600069112C32758C5CCE1AC6B8BDF9BD19BE87
:1024700019BE19C619CEF9CDF9CD19CE19C63AC66D
:102480003ACE3ACE19C619C63ACE3ACE19C6F9C5D1
:10249000F9C519CE19C6F9C53ACEBCD6D8BDF17B5F
:1024A0004E5BF594F9B5F8B5D8ADB8ADB8ADF8B5A3
:1024B000D8ADD9ADF9AD1AAE3AAE5BAE7BB69CB62F
:1024C000DCBE1DCF5ED77FDF9FE7BFEFDFF7DFF713
:1024D000BFEF9EE75DDF1CD7FCCEDCC6BCC6BDBE31
:1024E0005BBEDDCE1695D58CDDD61ABE1ABE3BC6B8
:1024F0001AC63AC63AC639C63AC63AC63AC63AC6FD
:10250000500A2E0AED098B11491128112719271994
:102510004711471147094709480968098911891175
:102520008711881168098909AA118909AA118909DD
:10253000D15B578D568D3585F47C9895F67C0E438E
:10254000CA190B220701070169110701281108099F
:102550000809491969190811E71048192C3A926BB2
:1025600016A51AC6FAC5B8B5F8BDD8BD19C619C69C
:1025700019C619C619C619BE19C619C61AC619CE62
:10258000F9C519C63ACE3ACE3ACE3ACE3ACE5ACE5E
:1025900039C63ACE3ACE3AC61AC6F9BD19C69CD645
:1025A00098AD2E638F6B97AD19B6B7ADF8ADD8ADBA
:1025B000F8ADF8ADF9AD19B63AB63AB63BB65BBE72
:1025C0009BB69BB6DCBE1ECF3ED75FDF9FEFDFF72B
:1025D000BFF7DEF79DEF7DE73DD73ECF1EC7FEC6B6
:1025E000DCBEBCB69CB6D57C9CBE5BBE5BBE5BBE97
:1025F0003AC63AC63AC639C63AC61AC63AC63AC6FC
:102600002B192A190919E810E71007112719E710E3
:1026100007192819281128114811881187118709CD
:102620008819681189118A118A11CB196A09AA11AE
:102630006C2A9895D57C3685788DD67C8D32AA11FA
:10264000091A4701470127010701270927094811EE
:102650002811C608E608CA29B16B379DDAB57CC6D1
:10266000F9CDB8C5D8BDF8BD18C619C6D8C5D9C5E5
:10267000F9C5F9C53ABE5ABE7AC65AC61ACEF9CDC0
:102680001AC63AC63AC61AC61AC619C61AC63AC6EB
:102690003AC61AC63AC61AC619C61AC61AC619BE04
:1026A0003AC69CD6738C0D5BD48C19B6D7AD18AED8
:1026B00018AE18AEF8AD19B619B61AB61ABE3ABEAB
:1026C0009BB69BB69CB6BDBEBDC6DDCE3EDF7EEFE3
:1026D0009EF7BEF7BEF7BEEFBFE7BFE79FD73FC786
:1026E0003DBF1DBF1DBFD99D578D1ECF7BBE5BBE9D
:1026F0005AC63AC63AC639C61AC61AC61AC61AC63B
:102700002711471988190611E60827110611071124
:102710002711271148114811681168118911891171
:1027200069116911891189118911A911A911A911B9
:10273000C911F67C37855885956C6D2A8A092C223B
:102740006719E6080711071107110711C608C6081F
:102750000619CD52738CB8B55ACE3AC6F9C5D8BD54
:10276000F9BDF9BDF9BDB8B5F9BD19C6F8C5F8C5CB
:1027700018C6F8C518C639CE35AD56AD19C67BD6C4
:102780005ACE19C619BE3AC619BE19C63AC619C6D6
:1027900019C63AC619C63ACE39CEF9CD39CE39CE98
:1027A0001AC6F9BD7BCE3ABEED5211745ABED8B5E9
:1027B00019B6F8B519B619BEF9B5F9B51ABEF9BD0D
:1027C0007AAE7AAE9BAEBBB6BBB6DCB6FCBE1DC75E
:1027D0007FD79FDFDFEFDFF7BFF7BFF79FF77EF70A
:1027E0007FEFFEDE3FDFFFCE38855CA61EC77BBED7
:1027F0003BC61BCE3CCE3CC63BBE5BBE5AC619C6D2
:102800000609061127110611C608E61027114719F7
:1028100027112711481148116811681168116911B1
:1028200069116911691189118911A911A911C911B8
:10283000A911CE32B995135CEB19CA110C1A0C22EE
:102840002711E608071148192711E71089210F53AE
:1028500098A53BBE5BC61ABED8B5D8BDF9C5D9BDD3
:10286000F9B55BC65BC6BCD619C6F8BD39C6F9C595
:1028700018C65ACE39CEF8BD6A52D07B3284738CDA
:10288000B8B59BD69BD65ACE9BD67BCE3AC69BD6A6
:102890005ACE5BCE19C619CEF9C5B8BDF8C5F8C574
:1028A0003AC63AC65AC63AC69BCE8F6BF49419B64E
:1028B00019B6F8B519B6F9B53ABEF9B5F9B519BEF4
:1028C0003AB63AAE5AB67AB67BB69BB6BCBEDCBE5A
:1028D000FCC61DCF5ED77FDF9FEFBFF7DFF7BFF7E7
:1028E000BFF7BFF7DFF75FDF5FD7979539AEFCCE55
:1028F000DCCE5BC63BC63BC63ABE39BE39C618C63F
:1029000027110611E6100611E610E6102719E60851
:1029100027112711271148114811681168116911F1
:1029200069116911691189118911A911A911A911D7
:10293000A911EA195043CA11CA11EB19EB19EB1985
:10294000E60807114819281107112819305B3BBE0A
:10295000DAB5D9B5FAB55BC65BCE3AC63AC63AC661
:102960009CCED594D1730E5B77AD7BCEF9BD39C6C5
:1029700019C6F8BDF9BD7ACE36A5F17B7BCE56A53A
:1029800011843284B394F49CB49CD49CF59CB3948D
:10299000B394B4949394B49CF49C36ADB8BDF9C58B
:1029A00019C6F9C519C63AC63AC6B38CAB4A7AC637
:1029B000F8B519B6F9B539BE19B619B63ABEF9B5B2
:1029C0001AB61AB61AB63AB63AB65BB67BB69BBE1C
:1029D0007BB6BCBEDCC61DCF3DD77EDF9FE7BFE721
:1029E000FFEFDEEFBFF7DFFFDFF75DDFD7A5D7A58E
:1029F0007ABE9CC6BCCE5BC61ABE39C659C638C69E
:102A00000611271927192719E610E6106719271943
:102A100027112711271148114811681168116911F0
:102A200089118911891189118911A911A911A91176
:102A3000AA11CA11690989090B1A0B1A0C22CB19A0
:102A4000061107110711281149190811C70848195B
:102A500069210A328C424F63338457A5B8B5169D5D
:102A6000AD4A2719C51043004B427CCE1AC6D9BDCA
:102A70005AC619BE19BE3AC67BCE127C5384DDD627
:102A800019C697B535A536A556AD56AD56ADD8BDC8
:102A9000F8BD19C639C65ACE5ACE3AC63AC61AC673
:102AA0001ACE1ACE1AC65ACEF9BD3AC6327C7284F4
:102AB0007AC6D8AD5ABED8AD19B63AB619B619B657
:102AC000FABDF9BDFABDFABD1ABE3AB65BBE5BBE31
:102AD0007BBE9BBEBCBEBCBEDCC6FDC63DCF5ED7CA
:102AE0007EDF9EEF7EF79FFF7FFF9FF7BFEF7BBEEE
:102AF0009895FAA57CBE7DC65CC65BC63AC619BE73
:102B000026190619E6102619E610C5082719061118
:102B100027194719271148114811481168116811E0
:102B20006911891189118911891189118911AA11D4
:102B3000AA11AA11EB19EB19AA110C220B1ACA1926
:102B4000A5000711481928110711081128110711AC
:102B5000E608E710C508A508C50847216821C61082
:102B60008500E610071148216821B9B53BC63BC670
:102B7000FABD1ABE7BC6D9B5169D98AD7063169D79
:102B80009BD67BCE3AC639C65ACE5ACE5ACE5ACEEC
:102B90003ACE39C619C619C619C61AC63AC63AC6B1
:102BA00019CEF9C53ACEF9C55ACE5ACE5AC60D5BE2
:102BB00097AD7AC6B7AD39B619B619AEF8AD39B614
:102BC000D9BDD9BDFABDFABDFABDFABD1ABE1AB655
:102BD0003AB65BB67BB67BB69BB6BCBEFCBE1DC729
:102BE0003DCFFDD69FF75FF79FFF7FFF9FEFFFF77A
:102BF0003FCFBA9D188DFBAD9DC65CC61BC65BCE94
:102C0000E510C508E51026192619A508E51047198D
:102C100047194719471947114811481148116811B8
:102C200068116811691189118911AA11AA11AA11D3
:102C3000AA11CB19EB19AA110B1A0C1AEB19CA1904
:102C4000C60807110711E710A700E7082811E810C8
:102C50002811E708E60827110711A500C608E710A4
:102C600028196819281907116921B9AD3BBE7CC61E
:102C70009CC6DAB51274C9294819A921A921A9212C
:102C80005284D9BD9BCE3AC63AC619C6F9C519C6F3
:102C900039CE3ACE5ACE3ACE5ACE7BCE3AC63AC684
:102CA0003AD61ACE5BD63ACE19C65ACE9BD676AD58
:102CB0006E6339BEF8B55ABEF8AD19AEB7A5F9AD19
:102CC000F9BDFABD1ABEFABDFABDFABDFAB5FAB53C
:102CD0001AB61AB63AB65BB67BB69BB6BCBEDCBEBD
:102CE000DCC63DD79BCE7EEF7FF7DFFF9FEF9FE7F0
:102CF0009FE75FD79CB6788D3785DAA5FBBD79B5A0
:102D0000B06B8C424719A408E5100611C5080611DE
:102D10002611271127112711471148116811681131
:102D20006811681189118911AA11AA11AA11AB1190
:102D3000CB11AB11AB11EC190C1AAA114D2ACA1107
:102D4000A500071107112911491928112911081186
:102D5000081149194819481128112811481948190A
:102D600028110811281969192811FBADFBAD389DF0
:102D700091638921E608681989218919EB29691964
:102D8000C5106C42F69C5BC61AC63AC67BCE3AC6E4
:102D90007BD63ACE3ACE19C63AC67BCE5ACE5ACE5A
:102DA0003ACE3ACEF9C55ACE5ACE3ACE7ACE9BCE4C
:102DB000117C317C9BCEB7AD19B619B6979DB7A5DE
:102DC000F9B51AB63ABE1ABEF9B5F9B5F9B5FABDF4
:102DD000FABD1AB61AB63AB63AB65BB65BB69CBE40
:102DE000BBBEDCC61DCFFCC63DCFFFEFFFF7BFF774
:102DF0009FEF9FE79FD75EBFFDA6FA95547CCF5A01
:102E0000AC42906311742E534A3A8721E508471962
:102E10000611061126112711471168118811891909
:102E20008811881189118911AA11AA11AB11AB114E
:102E3000CB11EC19CB11EB192C220C1A2C22AA1154
:102E4000C60869192811081129110811081149111A
:102E50002811481107092811491928112811291189
:102E600028114919081149192811EB29AA212811FB
:102E7000E70869196919AA2189198A19AA19CA21A1
:102E8000892127118821906BFAB57BCE1ABE3AC6EC
:102E90003AC619C65ACE5ACE7BD6BCD65ACE39C6F9
:102EA0003ACE5ACE5ACE5ACE39C67ACE39C65ACE34
:102EB0009BCEAF73B48C5AC6F9B5F8ADD8AD369584
:102EC000D8A519AE39B619B6F9B5F9B5F9B5F9BD40
:102ED000F9BDF9BDFABD1ABE1AB61AB63BB65BBE4D
:102EE0009BB6DDBE3FC75FBF7FB73DB77ECFBFF7A5
:102EF0009FFF9FF7FDC6D885D554544C9353B04AD5
:102F0000E5080511461929322D534E5B4B3A26111F
:102F10006F5B90632A32E921E92947116711471154
:102F2000881188118911A911AA11AA11AB11CB110D
:102F3000AB11CB11EC190C1ACB112C222C226909E4
:102F4000E60828114819281108110811291128111B
:102F50002811281149114911481128112911491125
:102F60002911491129112811281128112811491155
:102F700069196919691169118A19AA19AA19AB196C
:102F8000EB216919691969194C3A16957BC65BC61C
:102F90003AC63AC65ACE19C65ACE3ACE19C65ACEF3
:102FA0005ACE5ACE5ACE5ACE5ACE5ACE5ACE5ACEE1
:102FB0007ACE5AC64E63359D5AC6B8AD19B6369DFF
:102FC000969DD8A519AE39B6D8AD19B6F9B5F9BDE3
:102FD0001ABE19BEF9BDF9B5D9B5FAB55BBE9DC625
:102FE0009DB61C9E3A75975497441755D9851DD7A1
:102FF0003EFF5EFF1EDF77759123CF0AEE116D1144
:10300000E8292932E9296619261166194611C408EA
:10301000E9295274158DB484126C4E53ED422A2A5C
:10302000C919A919681168118911CA19CB19AB11ED
:10303000EC196A090C1A2C220C1A0C1A0C1A4801E9
:1030400027112711281128112911291129112911B6
:10305000491128114811481128112809491149110D
:103060002911291129112911281129114911691131
:103070006911691169116A118A11AB19CB19CB1940
:10308000AA192C2A8A1969192C32EA2913741ABE32
:103090007BC63AC619C6FDDE39CE5ACE59CE5AD6AF
:1030A0007ACE5AC65ACE7ACE5ACE5ACE5ACE5ACEA8
:1030B00019C67BCE19C64E6336A51ABE77A598AD44
:1030C000559518AEF8ADF8AD5ABEF8B519BEF9B5BC
:1030D000D8B5D8B5F9B55BBE9CC63BB61695F26BB4
:1030E000CF2AB02AD222341BD61B772C996DFDC66D
:1030F0005FFF3EFF7FEF7CA69544B323F21A1012C8
:10310000E92929322A320932E829C821C821C821EF
:10311000A400E408E50805090611C5082611871969
:103120000A2A6C3A8D3A2B2AA9196911AA11AA19EF
:103130000B22AE320B1AAA11CB114C22AA11C700D6
:10314000281128112811281128110811080908111F
:103150002811281128114811291149114911491123
:1031600029112911291129114911491169116911CF
:10317000491169116A118A118A11AA19CB19CB193F
:10318000CB11CB192C22AA1969114C320B2A91634D
:10319000D9ADFDD61ABE5AC65ACE39CE59CE39CE81
:1031A0007AC65AC65AC67ACE5ACE5ACE5ACE5ACEB7
:1031B0005ACE3AC67BCED8B5ED5AF5945AC6D9B593
:1031C000B7A596A5B7ADD8B518B6B7ADF8B5F8B5EB
:1031D0007AC65AC61AB6369590632A2AA9190A2AB7
:1031E0004F3331337433B62B172497247955DCA62B
:1031F0007EEF1DFF3DF7BCBEF65CD32B531B910A3F
:103200008B3A2A32092A09320932E829A721A72153
:10321000A7212511051146194619E5088400A400C7
:10322000A400060988214B32ED42EE4A6C32CA21D5
:10323000A919B67C1785504BEB210B2269090701B0
:103240004811481148114811491129110811081154
:103250000811281128114811491149112911291162
:10326000491149114911491149114911491169116E
:1032700069116A116A118A118A11AB11AB19CB1944
:10328000EC19EC19CB192D22EC21AA198E3A6D32CA
:103290002F5378A59CCE7BC63AC639C659CE5ACE96
:1032A0007AC65AC67AC67ACE7ACE5ACE5ACE5ACE76
:1032B0005ACE5ACE3AC65AC63AC6ED5273841ABE90
:1032C000D8B5D8B5D8B5D8B5F8B59BCE19BE19BE06
:1032D000F494F06B4A320509E500E9210E43B1533D
:1032E00090337133933BB533D623361CF73C1A7EAB
:1032F0003DCF9EF79EFF7DDF5A9E954CB323321340
:103300000932092AC82167198719C829E829C82953
:10331000661946198721A72166214619051105114D
:10332000E510C408A408A4080611C929AC426F53CB
:103330002F4B4F539895F68413642B2AEB210709E2
:1033400007092709070907092811691949190811E7
:103350000811071107112811281129112911291104
:10336000491149114911491149116911491169114D
:1033700069116A118A118A118A11AA11AB19CB1924
:10338000CB19CB190C220C224D2A0C222C221043D3
:10339000AE3A0F4B789DBCCE19BE9BCE39CE5ACEDD
:1033A0007AC67ACE7ACE7ACE7ACE5ACE5ACE5ACE45
:1033B0005ACE3AC619C63ABE3ABE3ABE4F5B73847D
:1033C000F9BDB8ADD8B5D9B5117CEC524A3A8721D0
:1033D0000511830083002609C919E9190A224B2A1D
:1033E0000F2B31339343753B952BD61B772C3955D7
:1033F0009D9EBFE79FF75EE7FDC6176D932B942355
:103400006719671946192619051105112511251186
:103410004619C410C408E410E410C410C408C41051
:10342000A410A41083088308830863008300E408C1
:10343000E9298B3A326C33742F4B947C4C326811EF
:103440000609270948110709E70808092811281162
:103450000711071107110709070908112911291177
:10346000281128114811491149116911691169116F
:1034700069116A118A118A118A11AA11AB19CB1923
:103480008A192C22CB190C224E2AAF322D22CF3A88
:10349000304B504BEE423795DDCE5AC69BCE39C6E7
:1034A0005ACE7ACE7ACE5ACE5ACE5ACE5ACE3ACEBC
:1034B00019C65ACE7BCE9BCE7BC6B8A594844E53FC
:1034C000FAB5D9B5FABD6B426300E510C408051121
:1034D000051126112611260927096811CA19EA19AA
:1034E0008E22CF32113BF232F3225523F82B9A3C35
:1034F0003E7EBFCFBFE73EE71DDF7995B43B942307
:103500008721461905110511E410A408A308C41069
:10351000A308C410C308A308A308A410A410830818
:1035200083108310A310C310C310A308A308C308FB
:1035300042008300A3004711E5084B32947C8C3A8B
:103540008811891989198919281107090811281959
:10355000071127110711E708E70808112811491971
:103560002811280948114911491169116911691176
:1035700069116A118A198A19AA11AA19AB19CB19EA
:103580000B22CB21EC210C226E2A0D22CF32D0321D
:10359000CF3A10435053705BD9ADBCCEF9B5BCD611
:1035A0005ACE5ACE5ACE3ACE3ACE5ACE5ACE3ACE3B
:1035B0009BD69BD61ABEB48CD06B32745274D48412
:1035C0003BBEFAB58C42A408471926194619E508EE
:1035D0002611E508060947118819CA218D32515371
:1035E000D353514B0F438E326F22D3227623182CA4
:1035F000FA4C9E96BFD77EEF5DEF5BBE9664732B51
:10360000051126190511A408A300A408C408A308DD
:10361000C410C4108308A310A3108308A310A31020
:103620006310831083108310A310A310C308A30892
:10363000E41004112511E5080509A5006819CD421B
:10364000EA2168112709691989192811C608A600F5
:10365000071127110711E708E70807112811291199
:1036600028112809280948114911691169114911BE
:1036700069116A118A198A19AA19AB19AB19CB19E0
:10368000CB21CB210C222D2A0D228E2AAF32AF3234
:103690001143104371535053705B3ABE9CCE5AC6CF
:1036A0005ACE5ACE5ACE5ACE5ACE7BD67BD67BCE67
:1036B00016A5ED5AC831E51067194B32CC42ED42E0
:1036C000CD4A8821840047190611051126110509E4
:1036D0000611E50806094711A9216D325053F3631D
:1036E000F263EE422A22C911AB112F12B312551305
:1036F000F62378655DC79DEF7CF79EEF5CA6B65C10
:103700000C63294A494AE839C739A7318310A31005
:10371000A310A310A310A310A308A310C310A30801
:10372000A3108308A308A310A31083088308A30889
:10373000C410C410E410E510E510C410A4088308F8
:10374000A308A308A308A408A408C408C408A408DC
:10375000C408A408E510E610E60807114819281166
:10376000E708281149114911481149114911491116
:1037700069116A118A11AB198B118B118B11AB1165
:10378000CB21CB210C222D2A6E2A8F2ACF2AD03290
:10379000F0327243504391537153747C7CC67CC6A3
:1037A0005ACE7BCE5ACE3AC6DCD6F9B5D173C929EA
:1037B000C408C508061126110611E608C508E50863
:1037C000C500E508261126110611E508E6080609D8
:1037D000060927098811CA196C2A0E3B5043914BE0
:1037E000AE428919271147112909AD095112F41266
:1037F000B523554C3AA69EE77EEFBFEF1FBF397544
:103800000842E4208629A731494A04196208C310F6
:10381000A310A310A310A310A308A310C410C310D7
:10382000C310A3088308A308A308A308A308A4102F
:10383000A308A308A408C410C410C410A408A408B2
:10384000C410C408C410C408E508E510E510E5106C
:10385000E510C410C510C508A508071148112811A6
:10386000E7082811481149114911691969116911AD
:10387000691169116911491149092809280929099A
:103880004911AB210C2A0D2A2D224D228F2ACF322D
:10389000303B5143514BB2539153B16337959DC661
:1038A0005ACE3AC67BCE5AC66F6B26198308E510EE
:1038B00005110611261126112611061126112711B0
:1038C0004719261106110611061126118819E92932
:1038D0004B320A2A0A22EA212B22AD322F435043CF
:1038E000EB290709E608261128118C113012B212B3
:1038F000131355447CA6BFE77EEF7FE7BCBED674AA
:103900002521662987314521662904198208A310DB
:10391000A310A308A308A3088308A308A31083087F
:10392000A308A3088308A308A308C410C410C410E4
:10393000C410C410C410C410C410C410C410C410E7
:10394000C410E4100511051105110511051105112B
:103950000511E510C510A508A508071128110709CC
:1039600028114911491149114911491149114911A8
:1039700049112809E7080709080908090809080979
:10398000E708E7080811AA194D32AE32AE32AE325E
:10399000EF3A3043914B71537153915B54743BAE8A
:1039A0005ACE9BD677AD26216308C410E510C40813
:1039B0000511E510E508E508E508E508061106111A
:1039C0000611051105110611051147192A320E4B72
:1039D000AC420A2A8819A9190A22AD320E3BAD322F
:1039E0004819C608E508261107114A11CD11500AD9
:1039F000331B15343C8EDFDFBFEF7EEFFCD6D7AD37
:103A00007EEF9ACE35A5DCDE7EEFD7B5A310041984
:103A1000E410E410E4100411041105190411C41099
:103A2000E4100511051925192619462146192519ED
:103A3000261926192519251105110511051105113C
:103A4000E5100511251105110511051105110511C7
:103A500005110619E510C508C50807110711E70883
:103A60004911491149114911291128112811080931
:103A70000809080927112811281127110711071112
:103A8000071148194819070969192C2AAE3ACF427B
:103A9000EF3AEF42714B9153D25BD263B15B9574B5
:103AA0003AC67BC6E939830826190511E510E510E9
:103AB000E508E508E510E508C508C508E508E510CE
:103AC000E510051126110511E5100611A8214B3A44
:103AD000A8212609E6086811EA21AD32EE3A2B2228
:103AE0002711E50805090511E51027116A11ED09EF
:103AF0006F0A731B9B6D5FBF9FD77FE79DEF5CEFE6
:103B0000BFF75DE7C7317284FFFF9FEF0D5BE831C0
:103B1000293A093A293A293A293A493A293A0832B6
:103B2000C82908320932E831E829C829C829A72953
:103B30008721872167216619461926192519251914
:103B40000511251925192611051105110511051154
:103B5000E51006190511C508C6080711E710E708A2
:103B60002909280928090809281108110809081134
:103B70000711071127110711E610E6080711471969
:103B8000E61084006400A500C508C60868194C3218
:103B90002F4B0F4B2F4B504B9153D25BF35B136466
:103BA000369D159D63000519C408C408A408E510D6
:103BB000C408E408C508C508C508C508C508C51077
:103BC000E510E510E510C408C408E510E508C508CF
:103BD000C508C5002609A919EA216C2A8D32EA19FF
:103BE0000511E5080509E408C408E61027118A094B
:103BF0002D0A8F027323B8543D9E7FD7DFEF7DE7F8
:103C0000FFF7FFFF56A556A5DFF7DFEFB38CCC4AD1
:103C10004D5B2D5B0D530C53EC4AEC4AEC4ACC4AFD
:103C20008A3A8B3A6A3A4A3A0932E829C829C821BD
:103C3000872187216619661966194619461946199A
:103C40002511251125112511051105110511051144
:103C5000E5100619E510C508C608E710E7080709CA
:103C600008090809080908090809070907110711BF
:103C7000071107110711271947190611A508430055
:103C80008821AD4A127CF594579D379DF2732B3AEB
:103C900088216C3A505370537053D25B3464135C78
:103CA000327CED52C408C508E5100511E508C408CA
:103CB000C408C408C408A408A408C408C410C410D4
:103CC000C410E410C410A408C408C410C408A4009C
:103CD000A400C5080609A819EA214B2A6C2AC919AB
:103CE000E410E4080509E408C408E510E510270914
:103CF000AA092D02900AF21AD53B19759DAEBFDFB5
:103D0000359DB7AD39BEF8B57EE7FFF7DCCE0D5374
:103D10004E5B4E5B2D530C4BCC4AAB42AB428B42BD
:103D20008B3A6B3A6A3A4A32092AC821A821A8215B
:103D3000A721871966196619661966194619461169
:103D40002519251125112511051105110611061139
:103D500005110611C510C508E610E710E70808119F
:103D6000081108110811081108110711071107118E
:103D700007112711E6108500840047190E5373843C
:103D80003695F694B48C327C7384F9B5DDD69CCE2E
:103D9000B48C6C428821CE4AD263B15BB153336498
:103DA0007384CC4A83002611E510C408E508E510A9
:103DB000E510E510C410C408C410C410C410C41029
:103DC000C410E410E510E410A408A308A408A40893
:103DD000A400E508C50068110A224C2A6C32C919F2
:103DE000E410E4100509E408E508E510C408050935
:103DF0002709AA010D02900AF21A742B7854FD7D4E
:103E0000CC52527CF9B5F9B57AC6DCCE19B64E5B08
:103E10004E5B4E5B4E532D53EC4ACC4ACC42AB42E8
:103E20006A324A324A326A324A32092AE829E82991
:103E3000C821A721671966196619661966194611FE
:103E4000661946194611261126112611261126112A
:103E500006110511C508C51027190711E708081133
:103E6000E710E710071107110711071107112711B4
:103E7000C608A50007118C4233741695B584F273F9
:103E80004F5B0E532E5B4F5B906B169D5BCE5ACEF5
:103E9000DCDE7BCE948CE931C921B15B536CF25BE3
:103EA00094842A3263004619C5082511C408C40841
:103EB000E408E410C410C410C408C410A408A30883
:103EC000C410A308A308C410C410A408A408C408FC
:103ED000A4080611060988190A224B2A6C2AC91956
:103EE000E310C310C408C400C508E508C408E51001
:103EF000060968098A01CD01700AD20A3413F72B2A
:103F00008F63B06BB06B8F636F636F636F636F5B57
:103F10006E5B4E5B4E534D532D530D4BCC4AAB4213
:103F20008B3A6A326B3A6A326A32292A292AE9299B
:103F3000092AC821C8216619A721661946118719BF
:103F40004619461905118721050926114611061142
:103F500047192619A40827190711E710281107097E
:103F60002719E710E71027192719E608A50085008B
:103F70000B329163F68CF68CF26B2F53EE4A0F5393
:103F80004F53905B705B337C5BC6FDDE3AC67ACEE6
:103F90003ACE5ACEBCD67BC6D06BA821AC42126CAE
:103FA00093848B420611E5102511E5100511E510EB
:103FB000E408C408C408E510A408C4108308C410A9
:103FC0008308E410A3088308A410C408A408C40844
:103FD000C40806112711C9210A2A4B2A8C322B2228
:103FE0000411C308C308E408C408C408C408C4080A
:103FF000C508E61028096A09AC012F029202F40AEA
:104000008F639063B0638F636F5B8F63AF63AF63E6
:104010008F5B6F5B6F5B6F5B6E5B4E532D530D4B16
:10402000EC4A8B3A8B3A8B3A6B3A092A6A3A092A5C
:10403000C821E829E829A7216719871966194611B7
:104040006619251146114611661967194611261180
:1040500067190611A408E6100611071107112811A7
:10406000071127190719A50885004719EE4A757C1D
:10407000B58413742F53AE42EE42505371535053D4
:10408000915B705BB1637CC69CCE1ABEBCD63ACE47
:104090007ACE39CE3AC67ACEFCD6F8B52E5BC82990
:1040A000B06BCC4A73842A3A6300261905110511B6
:1040B0000511E510E410A408A4088308C4106629BB
:1040C000A310E418E4182519E410A308A308A40811
:1040D000C408061167110A222B2A4C2A8D326C2A39
:1040E0006619E410A308A310A308C408C408C508EF
:1040F000C508C510E61007114909AB010E025002B0
:10410000B063B063B063B063B063B063B063B06317
:104110009063B0638F638F638F638F5B6F5B6F5B45
:104120000D4B0D4B8B3ACC42EC4A8B3A2A324A3239
:10413000092A2932C8218719C821871987196611C8
:10414000461146114619261146116719671926119D
:104150002611C4080611061127110711E7080811D6
:10416000E6108500A508EA319163747CF26B2F5349
:10417000AD42EE420F4B304B504B50537153715385
:1041800070535053DAADDECE5BC65AC65ACE5ACE05
:1041900039CE19C67AD69BD619C67ACEBBCE569DD5
:1041A000ED528729527C39BE8B4A6200E4102519F2
:1041B0000511C40863000519C410E410C410A40854
:1041C0008308A310A3102519C410A308C410C408A1
:1041D000051126116819EA212B2A4C2AAD32AD327D
:1041E000A8190511A308A310C318E410E508C50811
:1041F000C508C510C518E5180611270969098B09F6
:10420000F16BF16BF16BF16BF16BF16BD16BD06B0F
:10421000D16BD06BB063B063B063B0638F638F63F7
:104220008F5B0D530D53AB42AB42CC42CC4A2A328A
:10423000E929E929092AA721A821A7218719A7196E
:1042400025112511A400261167196719E508061123
:104250002E5326190611E50827114819C600A60095
:104260004819AD42F26B3374705BCE4AAD42EE4AF0
:104270000F4B0F4B0F43304B504B714B504B504B30
:104280003053F68C9DC6789DB9AD5BC67BCE5ACEB9
:104290005ACEDBDE19C639C69BD65ACE7ACE9ACE16
:1042A0007BCEB48C2E632E63159D0D53C410E41089
:1042B0002519C408C408C4106300A408A308A408EE
:1042C000C310C4108308C4108308A308C410C40812
:1042D000E5082611A8194B2A8C326C2A8D2AAD329A
:1042E0006B2A6719C410A318C318E310E408E60882
:1042F000E608C610A418C318C418E4100611271144
:10430000127412741274327432743274127412741D
:104310001274F16BF16BD16BB06BB06B9063906307
:104320006F632D53ED52EC4AAB428B42A7212932E9
:104330004A32A8212932C821C821C8216619E408B7
:1043400005110511E40887194611A400C929937CB9
:10435000CD4AA4082619271985008500AA215153A2
:10436000136C915BEE4A6C3A8D3ACE420F4BEF42A2
:104370000F4B0F4B2F4B304B504B504B71539153B6
:104380003053547CD26B70639063D173159D7BCE98
:104390007BCE19C65ACE59CE39CE5ACE39CE5ACE48
:1043A00039C6DCD69BD6B3942E63AF6B6B42E41058
:1043B000E510C410ED520511C410C4108308E510B7
:1043C0008308E410C410C410A308C410C408E5088E
:1043D000E5082611C9212B2A2B222C22AD322F438E
:1043E00050432B2A2519C318A210C308E400E6087D
:1043F000E608A610A418C418E418041925192619EB
:10440000737C537433743374327432743274327410
:1044100032741274F173D16BD16BB06B9063906393
:104420004E5BCC4A0D53CC4AC72909326619051197
:10443000A721E929871929328719A721E5084A32D6
:10444000AC4AA300C821051105094F53737C32748F
:10445000A8218300C50827114C3AF26B136C104B4E
:104460004C2A8D32AD3ACE42EE420F430F43EF421B
:104470000F4B0F430F43304B714B7153714B504BEC
:10448000715BCE4A0F53EE52CD4AED522E5B117C3A
:10449000F9BD5ACE7ACE5ACE3ACE5ACE5ACE19C697
:1044A0005ACE39C639C6BBD6BBD6938C6E63251996
:1044B0006200C410359D8B4A63000511A408830077
:1044C00083086200E410E410C410C410A408E508D6
:1044D00006114711EA210B22CA19EB198D2A7143E3
:1044E00071438C32A8212521E310C3080401060181
:1044F000E708E610E618261966198719A821A821E9
:10450000737C737C537C537C537C53743274537C24
:10451000537C327C32741274F173D16B906B6F6385
:104520002D5B6E63CC52E51005110932293A620009
:10453000E4086719092A8721E829E508AB42737C5A
:104540008721C40883002A321274126C737C0D4BCD
:10455000220087212E533274905BAD3A4C322C32BC
:10456000AE32AE3ACE3ACE3ACE3AEF3A0F4330437D
:10457000EF420F43504B504B504B714B71537153A3
:10458000916B1795B9AD13740E5B4F63327CF17369
:1045900077AD9BCE3AC639C65ACE3ACE7BD65AD6DE
:1045A00039CE9AD639CE19C639C69BD65AC6D494B6
:1045B0004621A7291595D48C0511A408830006115E
:1045C00029428300E410C410C408A408E508471970
:1045D0006719A9216C326C320B1AEB194C22EE329E
:1045E000EF2A6C2A0A2A872945192509250926094F
:1045F0002711271948218821C9210A1A0B1A2C22B0
:1046000033745374737C947C947C737C537C737C80
:10461000537C537C537C337C327CF173B16B906B55
:104620008F6B2D5B25196A422619CC4A0932A308E3
:10463000A829C82967192A3205094A323174B0639A
:10464000E510C408EC4A116C3274B0632A322A3285
:10465000D06B94846F5B8C3A2B326C328D3A8E3AED
:10466000AE32AE32AE32CE3AEF3A0F430F430F4383
:10467000714B504B0F43EF420F430F4B0F4BEF4229
:10468000B58CDED6FED6FED6DDD69CCE3ABEBCCEEE
:104690009BCE9BCE9BCE5ACE5ACE5ACE3ACE3ACE57
:1046A0005AD619CE5AD65ACE7ACE39C67ACE7BC6CB
:1046B0009BCE11746B4211744A3A4300A82993842B
:1046C000317CA408C410C410C4100511A8294B3AA9
:1046D000AC426C3AAD3A4C2AEA190B1A4C22CE3253
:1046E000AE226D222A2AC8294619450966094711B2
:1046F000071127196821C9210A1A2B122C122D1211
:10470000747C747C9584B68495849584D68CF68C60
:104710001795F68CF68C94847484537C906B2F637D
:104720000E5BE518738CD49CE418C73987296200A6
:10473000092A6F5347094709EA199053F25B0E4360
:1047400046110D4B52746F5B0B2A6C3A3474F78C24
:1047500051532D2AEC216E328E326E328E328E32D1
:104760008D3A8D3AAE42CE42AE42CF42104BCF4A46
:10477000EF4ACF4A715B547CD68C958491634C3A56
:10478000EA314B424F63D5945ACE3ACE3ACE3ACE26
:1047900019CED8C556ADD9BD7BD65ACE3ACE5ACE53
:1047A0005ACE5ACE5ACE5ACE5ACE5ACE3ACE3ACE09
:1047B0005AD69BD6B8B54F634721E508169516958E
:1047C000D073C408C408E508C40046094A2A0E4B41
:1047D0008C3A0A324B3A2B320A220A1A8D22EE2ADE
:1047E000AC328B2A4B2AE921681927112711271986
:1047F000471127116819A921C9210A222B2A2B2A1E
:104800005374D584F68CD58CD58CF694D58CB48421
:104810009484116CB0634F5BED524A3AE931E9314F
:10482000E510ED529BCE2D6362084621A30883005C
:104830004A32F1634B2AA4004F4BB15B6F4BCC3A29
:104840006F5BD0634B32E929F26B3795B263EB2192
:104850002D2A2D2A6E328E326D2A6E32AE328E3273
:104860008D32CE3ACE3ACE3A0F43EF42CE42EF4AA5
:10487000505BD68C5CBEBDCE9CCE9CCE5BC6D9B503
:104880009484537C127CF59C39C67AD65AD619CEBC
:1048900097BDD49C35A55ACE3AC65ACE7ACE9BD671
:1048A0005ACE5ACE5ACE5ACE5ACE5ACE5ACE5ACEC8
:1048B0003ACE3AC69BCE9CCE369D6B424E5BF58C73
:1048C0005284C410C408A4000509A4004711A821FB
:1048D000A8218821C9210A2A6C2A0A1A2B1ACD2A52
:1048E000AC2A8C2A4B2A0A22881927112711271152
:1048F000271127116819A921CA210A222B2A2B2A3C
:10490000D063D063B063D06BD06B4F5B0D534E5B05
:10491000CC4A4A32C82125110511A308C408420017
:10492000A929327CD594B06B22000519E410C40883
:10493000CC424F53ED4288112E436F532E4B8F5371
:104940006F53C8212B323795136CEB212C326E320A
:104950002D2A6E328E326E326D2AAE32CF328E32C8
:10496000EF32CE32CE320F3BEF3A8D32EE4233741D
:104970005BBE9CC69BCE5AC639C659CE79CE59CE9F
:10498000BCCEDDD6BCD6BBD67AD639CE59CE7AD6F9
:104990007BD67BCE3ACEBCD65ACE5AC67BCE3AC652
:1049A0007ACE7ACE7ACE7ACE7ACE5ACE5ACE5ACE27
:1049B0007BCE3AC67ACE7BCE7BCE7AC62D5B6B425F
:1049C000F48CA72983000511A408A400A5004711B1
:1049D0000609A8190A220A220A22EA196C2ACE3AE2
:1049E000ED32CD328C2A2B2A881927112711271155
:1049F000271127116811A919CA21EA21EA21EA2100
:104A0000D063B063B063D16BB06BB06BD16BF1733B
:104A1000B06BB0638F630D4B8B420932C82983089A
:104A2000B15B4F53126CB0630511A82905116719CA
:104A30002E4BED422E4B0A224F4B0E434E4B2E4B2C
:104A400047112F4B5895AD3A0B2A4D322C2A6D2A1F
:104A50008F328E326E2A6E2AAF32CF32CF32AE32E2
:104A6000CF32AE32CE32CE32CE3A126CB9A5DDCED6
:104A70009BC65AC639C659CE99D659D638CE59D6BC
:104A800039C65AC619C65ACE5ACE7ACE59CE39CE62
:104A900039C67BCE7ACE19C67ACE5AC69BCE5ACEAE
:104AA0007BCE7BCE7ACE7ACE7ACE7ACE7ACE7ACEC4
:104AB0005ACE9BD659C65AC67ACE7AC6DCD64E6333
:104AC000CB4AAC4A8300E5108408CD52E6100609B3
:104AD00067118811E9196B2A0A2288110B226D329D
:104AE0002E33EE32AC2A2B228819271127112611DA
:104AF000271147118819C921CA21CA21CA19CA19FF
:104B00001695F68C1695579D78A578A5379DF69441
:104B1000169DF58CB4849484948C337C4F636829FF
:104B2000D25BCD3A705BED4A0A2A4A3283006B3A77
:104B30000D4BCC42AC3AED42CD3A0D432E4B6711B2
:104B4000B15BD57C2B2A2B2A4C2A6D328E324D2A12
:104B50006E2A6E2A8E2AAF32CF32CF32CF32EF3268
:104B6000CE3AEF427053D684D9AD9CC69CCE5AC67D
:104B700039C67ACE7AD639CE39CE39CE38CE79D634
:104B80007ACE9AD67ACE9AD639C639C65ACE9BD61E
:104B90009BD619BE9BD67ACE5ACE7ACE5AC67ACE3C
:104BA0007BC67BCE7BCE7ACE7BCE9ACE7ACE7ACEA9
:104BB00059C69ACEBBD69BD67ACE9ACE7ACEDCDEBA
:104BC0002D53293A0511E518C510B58C6B3AA40090
:104BD0006711C91909222A22EA21C9192B2AEE4A8A
:104BE0000F33CD2A8C2A2B22A919471127112711FF
:104BF00047114719A819EA21CA21CA19CA19CA199D
:104C00000B32EA31AD4A0F5BCE5250637484F69496
:104C1000379D579D1795F694B68C958450636821FF
:104C2000704B6C32AD3A2A2A4B322609C921CD424B
:104C30008C3A8C3AED42ED428C3A2E4B6719905BE0
:104C40009574EA214C2A6D324D2A6D2A6E2AAF32B4
:104C50006E2AAF2ACF32CF32CF2AEF32EF32CF32A5
:104C600070631ABE9CCE9CCE7CCE9CD67BCE5ACE98
:104C70003ACE7AD67AD65ACE7AD69BD67BD63ACE4A
:104C800059CE39CE39C69AD69BD69BCE9BCE5AC624
:104C90007ACE9BCE5AC69ACE7ACE7ACE9ACE7ACE9B
:104CA0007BCE7BCE7BCE7BCE9BCE9ACE9ACE9ACE3F
:104CB000DBD639C67ACE59CE7ACE59CE9AD659CECF
:104CC0005AC62A3A47218400A929F58CB163E50028
:104CD0006711E921E921C919A919481127090B2AE6
:104CE0000F33CE2AAD2A4C2AC9196711471147192B
:104CF000261147118819C921C919C919CA19CA1910
:104D000090632A3A63006821F273B06B4B42AD5254
:104D10004F5B537CF5941695B58CB58CEE524821BB
:104D2000AD3A6C326C324B2AC50088198B3A8B3AFB
:104D30004B328C3A8C3ACD42AD3AEA214F53537400
:104D4000EB192C226D2A4D228E32AF328E2A8F2AF9
:104D5000D032D032D02ACF2ACF2A30333033CF2AA4
:104D60005384BDD63BC65BCE5BCE1AC63ACE7BD64D
:104D70007BD65ACE3ACE5ACE3ACE3BC67BCE7CCEEE
:104D80007ACE9AD69ACE7ACE19BE19BE7BCE7BCE7B
:104D9000F9BD39C69BCE7ACE9BD659CEBBD67ACE3C
:104DA0007BCE7BCE9BCE9ACE9BCE9ACE9ACE9ACEFF
:104DB0007ACEDBD639C6DBD69ACE5ACE9BD65ACE21
:104DC000BCD6938CC831C508B05B368D12642609F9
:104DD0008819050926092609A400E6006811CE3ABB
:104DE0000F33EE2AAD2A4C2AC919681947194619FA
:104DF000471947196719A819A919A919C919A9198A
:104E000011741595B48C6A42A829328456A58F6B0B
:104E1000AC4AAB42AB4AD06BB48C1695CC4A051168
:104E20008C324B324B322A2AA9214B32E9216819A4
:104E30002A2A0A2A0B2A8919CA21EE4213640B2254
:104E40006D2A6E2A6E2A8E2A8F2AAF328F22F03276
:104E5000F032AF2AF02A1033102B10333033EF2A00
:104E60007484DDD65BC69BCE7BCE5ACE9BD63ACE23
:104E70005ACE3ACE7BCE9BCE7BCE7BCE9CCE7CC612
:104E80005ACE9ACE39C6D494D173327CF9B5DDD6D8
:104E9000F59C6F6BDCDE39CE9AD69AD67ACE9AD64E
:104EA0007AD67AD69BD69AD69ACE9ACE9ACE9ACEE1
:104EB0009ACEBBD6BBD67ACEBBD67AD69BD67BD67D
:104EC0009BD65BCE2A3A6F5BD47CF57C736C050174
:104ED0000501E929126CEE4A640068118C32CD326A
:104EE000EE32AD2A8C2A2B22A919471947194719E6
:104EF000872167198719A821A821C919C919A919D2
:104F00004200AB42359D56A5117C66216A42569DF2
:104F10000D534A3AAC42A721C82911742E5B2619B9
:104F20006B320A2A2A2A6B32C929C921705B57952C
:104F30007895F68C178DB57CF784546C0C224C2A2E
:104F40006E226E2A8F2AAF2AD02AD02AF02AF02A7F
:104F5000113311333133102B51333033313310339C
:104F6000B484FDCE7BBE9CC69BC67BC69BCE9ACE30
:104F70007ACE7ACE59C69BCEBBD67ACE9BCE7BC696
:104F80009BCED8B5117CD173F173B16BB58C7CC657
:104F90007BCE6729D49CBBDE7AD659CEBBDE79CED8
:104FA0007AD69BD69BD67AD67ACE9ACEBBD6BBD6AD
:104FB000BACEBBCEBBCE9BD69BD69BD69BD69BD622
:104FC0009BD6BCD6B06BF1631585F47CD0538709B2
:104FD000D05B3695158D4A3206090A224B22AD3236
:104FE000CD322F3B704BAC3AC92147194619672186
:104FF000671987198819881988198819A919A91989
:10500000C9294300C929F59457A5369D0A320A3AA1
:1050100078A58C42C929E929C929892127190711AD
:10502000C9214B3AC9290609EE4A99A5168DEE4ABF
:105030002B32EA29EB290C2A4D2A0C220D228F2A29
:105040008F2AAF2ACF2AD02AD02AF02AF02A112B71
:10505000F02A112B312B313351335133923B5133E1
:10506000158DFDCE9BBE9BC69BC6BBCEBBCE7AC666
:105070009ACEBACE9ACE9ACE7ACE9ACE9ACE7ACE10
:10508000BCCEB8ADB06B127413743374F2733ABE05
:105090001DDFF17BE420BBDE7AD67AD69BD6BBD669
:1050A0009AD69AD69AD69AD6BBD6BBD6BAD69ACE26
:1050B000BBD6BBD6BBD6BBD6BBD69BD69BD69BD6C8
:1050C0007BCE1DDFD48C8B3AF48435855264937487
:1050D000F5849374F5842A2A67116B2AAD32CD3A90
:1050E000904BB053F25BED428819261147194719CE
:1050F000671987198819A8198819881988196819CA
:10510000CE420B32A5000711F27378A55CC66C4243
:105110002B3A589D8921EA29EB29AA218A218A2143
:10512000E9312611EA29F68CBAA50F5368198921AD
:105130008921EB290C2A0C2A6E322D224E228F2A2D
:10514000AF22CF2AD02AF02AF02A112B312B52334A
:105150007233923B7133923B723B923BB23B513381
:1051600076A5BBCEBBCEBBCE9ACEBBCE9ACE9ACEC8
:105170009ACEBAD6BAD699CE99CE9AD69AD67ACEB1
:105180009BCE5BC6537CD16B3374D26B1695BCCE71
:105190005BCEFDE68731AB5AFCE67ACEBBDE5ACE5B
:1051A0009BD69BD69AD69AD69BD6BBD6DBD6BBD6F9
:1051B000BBD6BBD6BBD6BBD6BCD6BCD6BCD6BCD663
:1051C000BBCEBBCE7BC6E9292E530D4B8F53D47C6F
:1051D000F47C9374F47C4A22C819AC324B2A0E43F7
:1051E0000E43E9190E430A2A4711261147114719A0
:1051F0006819681967196811671168198819881979
:10520000EA214C32CA21271164008921F27398A542
:105210008C42EE4AEE4A6819CA29EB29AA212811C4
:10522000A821505B789D137489212811281107113A
:105230000711A500AA190C2A2D226E2AD0326F223E
:10524000D022D022F02A102B112B312B5233723363
:10525000723392339233B33BB23BB343B23B5554B8
:1052600079CEBAD69AD6DBDE9AD67ACE59CE9AD6EF
:105270009AD67ACE9ACE9ACE9AD69BD67AD69AD605
:105280007BCEDCD677A5D16B537CB584BCC67BC600
:10529000FDDEF49C66311184BBDEBBD67BCEBCD672
:1052A000BBCEBBD6DCD6BBD6BBCE9BCEBBCEBBCE9D
:1052B000DBD6DBD6DCD6DCD6DCD6BCD6BCD6BCCEC8
:1052C0001CCFBBC61CCF0D5377A5B8A532742A2AB4
:1052D0003164D474357D8B2AA811EA212B2ACD3A6A
:1052E0000E4306098819EA29681927114711471141
:1052F000471147116811681168118919A919C92145
:105300000A220A22C921E929C9212611E5086719BB
:105310008C424711E929C92168194811A9214F5325
:105320001374B163CA210709691128116919EB299E
:10533000691948110B2A4C2A6D2A4D226E22F02A37
:10534000102BF02A102B312B512B522B723392330E
:10535000B33BB33B1444F443F343F343D343BA8521
:10536000FBE69AD659CEBAD6BBD6BBD6BBD6BCD6F0
:10537000BCD6BCD6BCD69BD69BD69BD67BD69BD662
:105380009BCEBBCE9BCED58CB06BD9ADDDCE7BCECC
:105390005AC6E83996B5FCDE7ACEBCCEBCCEDDCEA0
:1053A000DCCEDCCEDCCEDCCEDCCEDCCEFCD6FCD65D
:1053B000DCD6DCD6DCD6DCD6DCD6DCD6DCD6DCD65D
:1053C000DBC6FBCE3DD71174D48C9FE73ED7B8A582
:1053D000292A937435850D3B6709881188110B22A2
:1053E0008C3A671184000A2A6819E60848110709EF
:1053F00048096811A911CA19EA19EA21EA21CA2142
:105400002A22E9190922C921C821E929A8218719D5
:105410002509871987192609E9210E4B705BAD42D2
:1054200089210709481149118A19EB21EB210C2A1E
:105430002811CA214C326D328A11CB11D02A8F2209
:10544000102B1023312B512B9233B233B33BD33B70
:1054500035441444354C144455545554144CFB8D68
:10546000DCCEFCD61DD73DD7FDCEFDCEFDCEFDCE8C
:10547000BCC61ED7FDD6BCCE9CCE9BCEBCD67BD6A2
:105480009AD69ACEDCD639BE537CF9B5BCCEBCD602
:105490007ACEAF73BBDE9AD6DCD6BCCEDDCE1AAEEA
:1054A0009895D89D3AAEBCBE1DCF1DD7FCCEBBCEC5
:1054B000FCD6FCD6FCD6FCD6FBD6FBD6FBD6FBD660
:1054C000FBCEDBCE3DDFD8ADCC4A36953AB69FDF7A
:1054D000369509221585B05B6709E91947096809FE
:1054E000A8194711C9210609681148118919CA1953
:1054F0002C222C224C224C224C222C220B22EB213F
:10550000CA11CA19EA21A919A9198819C921881922
:10551000C921881927094B2AEE42CA21891907098E
:10552000281169118911EB210C22EB19AA19C70066
:1055300069116C32EA21480928012C1AEF2AF02A55
:10554000102B102B512B9233B333D33BF33B14442A
:10555000D33BF33BF443D33B344C5554144CB66427
:105560001A9E9CAEBDAE9DAE3B9EDA95FA95B98D66
:10557000B995D99DB8A59BBEDCD69BCEBBD69AD695
:105580009AD69AD69ACEDCD67AC67BC6DCD67ACEA6
:1055900039C6F49C9AD69ACEFCD69CBE5795F68412
:1055A000367D167D3685578DD89D5AB6DCC61DD7FB
:1055B000FCD6FCD6FCD6FCD6FBD6FBD6FBD6FBD65F
:1055C000FCD6FCD6DBCEFCCEED4A6B3AAC42327454
:1055D0009FDFB4848B3A937CEA214B22C9112B1AAA
:1055E00088192A32126CC6004C328D328D32CF3A75
:1055F000103BEF32CF32AE2A8D2A6D2A4C2A2C2A4C
:10560000CB19EB19CA198A198A19CA21691989197A
:105610004811C600AA19AA19491128090809080938
:105620008A19AA19CB19CB198A1149094909CB2121
:105630004C32CA21280907016909EF32AF2AF02A42
:10564000312B512B7233B333B33BB333D33B1444BD
:10565000F85C9A75DB7D7975386DF86C186D965C21
:10566000544C554C3444544C544C1344344C134C0B
:10567000F253D153F15BD9A51CD79ACEDBD6BAD65B
:1056800099D6DADE9AD69ACEDBCEDCD69BCEDCDE9D
:105690009AD6F8BDDBDEDCD65ABED584B57C177D44
:1056A000367D577D988DB895B89DF9A57ABEDCCE2C
:1056B000FCD6FCD6FCD6FCD6FBD6FBD6FBD6FBD65E
:1056C000FCDEDCDEDBD67EDF31748E53937C093268
:1056D000D16B7FE7537CCD4A4B328C2A4F3B4F3BFB
:1056E00067196F5B747C4811EF42504B714B31432B
:1056F000103B103B1033EF32CF32CE328E326D3250
:10570000A9198919A91989198919681189194809C3
:10571000080189118A198919691927116400271943
:10572000CA11CB11AB19EB21270947110B2A2C32D7
:105730008919E600C91948014D1AD02AD022102B28
:1057400052239333923B91430F3BD4845ABE7EEF56
:105750009EF7DFFF9FF7BFF7FFFF9FF77FEF5EEF3B
:105760001DD79BCE3AC619C619BE569D1585936C9A
:10577000325CD574FEC6BCC6FCD61CDFBACEDACE0F
:10578000B9D6DADE7AD6BCDE9CD69CCEFDD6BBC6B8
:10579000DCCEBBD6BBD6DCE639CEB8B5F8B5F9ADB4
:1057A00018BEBBD6DBD61CDF3DDF3DDFFCDE1DDFD8
:1057B0001CDF3DE73DE71DDF5EDF5EDF3DD73DD708
:1057C000FDCE3ED7FCCE3DD7F8A5AC32B56CB56C5E
:1057D0004C22B57C7FDFB48C8721092A6F534B2282
:1057E0006B32F584B47CA919EE425153AE3A2D2A9E
:1057F0000C2AEB21CB21CB21EB190B222C220B1AEB
:10580000A919A919A9196811A919681127096911F4
:10581000CA198A11AA198A19A9190711A50088217C
:10582000EB19CB19CC19EC21E600A9212B32070981
:10583000E700CA21A91107018E22D02A112B302B93
:10584000722B72335133D253BCB6FFEFDFEFBFEF91
:105850007EEF7EEF9EF77EEF7EEF9FF79FF77EEF66
:10586000DFEFFFFFBFF7DFFFDFFFBFEFDFEF7ED729
:10587000DCB6568D3AAE3ED7738497A53DDFDBCEBE
:10588000BACEBAD69AD6DCDE7BCEBCD6DCD6DCCE9F
:10589000DCCEDCD6BBD67AD6BBDEFCDEFCD63DD772
:1058A0003DE7F8BDB7AD96ADF8B518B619BE39C627
:1058B00019BE19BEF9BDD8B519B65ABE7ABE9BBE7F
:1058C0009FE7BBCE3DDF1DD73DCF0D3B53649564B5
:1058D000135C0A2256957FE7F4944A3A6B322B2ADE
:1058E0007374B47CD57CEA21CA19EB218A19891119
:1058F000691128092809691148114809480948010E
:105900008919A919681127098819891928098D3A4F
:105910002C2A69118A1989196919C600C608A9298A
:10592000AA11CB198B11CB21270988196819E7080F
:105930008A198919A91148016E22B02AF02A102B60
:105940009233D243EE2A9CB6FFE7BFE7DFEF9EE734
:10595000DFF77DEF9DF79DF7DEFFBEF77DEFDFF709
:105960007EEF9EEF9EF73CE7BEF77DEFBEEFBFEF09
:10597000DFEF5ED736953695779D68191274DDCEC8
:105980003CDF7AC6FCDE7BD6BCDE9BD67BCEBBCEB4
:105990005EDF7AC61DDFBBD6FCDEFCDEFCD6FCD6A5
:1059A0001DDF5EE73DDF9FEF9EE77EE77EE75EE778
:1059B0005EE73EE73EE73DDFFDD6DCCE7ABE19B6B8
:1059C000B8B55EE7DBD6DBCE7EDF526C904BD66C93
:1059D000B564946CC819769D9FE7F9AD0A2A5053B7
:1059E000368D53749474C91948098919691169115C
:1059F000691148116811891968114709481168111E
:105A00008811C919CA21891989198819E600CE4255
:105A10002C2A8911AA1989190709A500E608C9299C
:105A2000AA11CB218B19CB2127090609060989194F
:105A3000AA19A91967094801F0321133D02A9243F3
:105A4000102B0B122F43FFF7759DF394DFEFDFEF61
:105A50009EE79EEFDEFF9CFF7CF7BDFFBEF7DFF702
:105A6000DFFFDBDE9EF7BEF79DF7BDF75CEF9EF72D
:105A7000BFF7FFF75FD7336C546CCE4248116D3AD5
:105A8000569D3DD7BBCEBBD6BBDEBBD67ACE56A588
:105A900077A5FDD61DD7BCCEFCCEDCCE1CD73DDF16
:105AA000BFEF9FEFBFEFDFEF9FEF9FEFDFEF9FEFC6
:105AB000BFF79FEFBFF7DFF7DFF7FFF7DFF79FE7EE
:105AC000BBD65ACE1CDF1CDF3DD75AAECD32F56CAB
:105AD0005354D56CF57CC82115953EDF3BBE4C4236
